{
  "_format": "hh-sol-artifact-1",
  "contractName": "zkAgreement",
  "sourceName": "contracts/zkAgreement.sol",
  "abi": [
    {
      "inputs": [
        {
          "internalType": "address",
          "name": "_hasher",
          "type": "address"
        },
        {
          "internalType": "address",
          "name": "_groth16Verifier",
          "type": "address"
        },
        {
          "internalType": "address",
          "name": "_plonkVerifier",
          "type": "address"
        }
      ],
      "stateMutability": "nonpayable",
      "type": "constructor"
    },
    {
      "anonymous": false,
      "inputs": [
        {
          "indexed": false,
          "internalType": "uint256",
          "name": "root",
          "type": "uint256"
        },
        {
          "indexed": false,
          "internalType": "uint256[10]",
          "name": "hashPairings",
          "type": "uint256[10]"
        },
        {
          "indexed": false,
          "internalType": "uint8[10]",
          "name": "pairDirection",
          "type": "uint8[10]"
        },
        {
          "indexed": false,
          "internalType": "uint256",
          "name": "commitmentValue",
          "type": "uint256"
        }
      ],
      "name": "Agreement",
      "type": "event"
    },
    {
      "anonymous": false,
      "inputs": [
        {
          "indexed": false,
          "internalType": "address",
          "name": "evaluator",
          "type": "address"
        },
        {
          "indexed": false,
          "internalType": "uint256",
          "name": "nullifierHash",
          "type": "uint256"
        },
        {
          "indexed": false,
          "internalType": "address",
          "name": "sender",
          "type": "address"
        },
        {
          "indexed": false,
          "internalType": "address",
          "name": "recipient",
          "type": "address"
        },
        {
          "indexed": false,
          "internalType": "uint256",
          "name": "result",
          "type": "uint256"
        }
      ],
      "name": "Evaluate",
      "type": "event"
    },
    {
      "inputs": [
        {
          "internalType": "uint256",
          "name": "_commitment",
          "type": "uint256"
        }
      ],
      "name": "agreement",
      "outputs": [],
      "stateMutability": "payable",
      "type": "function"
    },
    {
      "inputs": [
        {
          "internalType": "uint256",
          "name": "",
          "type": "uint256"
        }
      ],
      "name": "commitments",
      "outputs": [
        {
          "internalType": "bool",
          "name": "",
          "type": "bool"
        }
      ],
      "stateMutability": "view",
      "type": "function"
    },
    {
      "inputs": [],
      "name": "denomination",
      "outputs": [
        {
          "internalType": "uint256",
          "name": "",
          "type": "uint256"
        }
      ],
      "stateMutability": "view",
      "type": "function"
    },
    {
      "inputs": [
        {
          "internalType": "uint256[2]",
          "name": "_pA",
          "type": "uint256[2]"
        },
        {
          "internalType": "uint256[2][2]",
          "name": "_pB",
          "type": "uint256[2][2]"
        },
        {
          "internalType": "uint256[2]",
          "name": "_pC",
          "type": "uint256[2]"
        },
        {
          "internalType": "uint256[5]",
          "name": "_pubSignals",
          "type": "uint256[5]"
        },
        {
          "internalType": "uint256",
          "name": "commitmentValue",
          "type": "uint256"
        }
      ],
      "name": "evaluateGroth16",
      "outputs": [],
      "stateMutability": "payable",
      "type": "function"
    },
    {
      "inputs": [
        {
          "internalType": "uint256[24]",
          "name": "_proof",
          "type": "uint256[24]"
        },
        {
          "internalType": "uint256[5]",
          "name": "_pubSignals",
          "type": "uint256[5]"
        },
        {
          "internalType": "uint256",
          "name": "commitmentValue",
          "type": "uint256"
        }
      ],
      "name": "evaluatePlonk",
      "outputs": [],
      "stateMutability": "payable",
      "type": "function"
    },
    {
      "inputs": [],
      "name": "nextLeafIdx",
      "outputs": [
        {
          "internalType": "uint256",
          "name": "",
          "type": "uint256"
        }
      ],
      "stateMutability": "view",
      "type": "function"
    },
    {
      "inputs": [
        {
          "internalType": "uint256",
          "name": "",
          "type": "uint256"
        }
      ],
      "name": "nullifierHashes",
      "outputs": [
        {
          "internalType": "bool",
          "name": "",
          "type": "bool"
        }
      ],
      "stateMutability": "view",
      "type": "function"
    },
    {
      "inputs": [
        {
          "internalType": "uint256",
          "name": "",
          "type": "uint256"
        }
      ],
      "name": "roots",
      "outputs": [
        {
          "internalType": "bool",
          "name": "",
          "type": "bool"
        }
      ],
      "stateMutability": "view",
      "type": "function"
    },
    {
      "inputs": [],
      "name": "treeLevel",
      "outputs": [
        {
          "internalType": "uint256",
          "name": "",
          "type": "uint256"
        }
      ],
      "stateMutability": "view",
      "type": "function"
    },
    {
      "inputs": [
        {
          "internalType": "uint256",
          "name": "value",
          "type": "uint256"
        }
      ],
      "name": "uintToAddress",
      "outputs": [
        {
          "internalType": "address",
          "name": "",
          "type": "address"
        }
      ],
      "stateMutability": "pure",
      "type": "function"
    }
  ],
  "bytecode": "0x600a600481905567016345785d8a000060055560006006556101c06040527f8cfd904a1564f728bad463e11678c335bbe7bb55e73a07588b14f8bd04545c3d60809081527f3a362132ff01c0f19143e7526b28c6fdcabecaad0dfcdfdf6d8f23483b99438460a0527fcafc0f3216abfccb1134117a825ba2e17388c9b09877b1fee9873697c41de04460c0527f52d21251f1b6967a0505130ebea06b9d8e8cb000abe492df5259d6678b0e215360e0527f1548db067f3cf9a942c70c5ce0b6048806dd74e2b709f1d30e7a191548943a9d610100527f1ea1a9099c5691137f1d3d1830867cdd75c536dff279663aefb7b49f7798f4cb610120527f772dac99aed444be6218c8da12c933163e165b31f1099b7869f4ec29ba4da1c7610140527fc1c6314026af83a766e1ad18d985ac243fadcf9c07932757904500e6cff80b98610160527fa23d32762958399632e9e0b52d049042041484a30974a83254af4e50893ad991610180527f7ae8404bbd3493825346a185473e48d1015672145bef4cd06002212e65ed18ce6101a0526200019c91600b919062000215565b50348015620001aa57600080fd5b50604051620014a4380380620014a4833981016040819052620001cd916200028c565b6001600081905580546001600160a01b039485166001600160a01b031991821617909155600280549385169382169390931790925560038054919093169116179055620002d6565b82600a810192821562000246579160200282015b828111156200024657825182559160200191906001019062000229565b506200025492915062000258565b5090565b5b8082111562000254576000815560010162000259565b80516001600160a01b03811681146200028757600080fd5b919050565b600080600060608486031215620002a257600080fd5b620002ad846200026f565b9250620002bd602085016200026f565b9150620002cd604085016200026f565b90509250925092565b6111be80620002e66000396000f3fe6080604052600436106100915760003560e01c8063b2673a3b11610059578063b2673a3b1461017b578063b8e7956414610190578063c2b40ae4146101a6578063d5a7420d146101d6578063dea4c9cf146101e957600080fd5b80631f79a1e91461009657806328cf5cba146100db57806345e0523f1461011157806349ce8997146101355780638bca6d1614610165575b600080fd5b3480156100a257600080fd5b506100c66100b1366004610d3b565b60096020526000908152604090205460ff1681565b60405190151581526020015b60405180910390f35b3480156100e757600080fd5b506100f96100f6366004610d3b565b90565b6040516001600160a01b0390911681526020016100d2565b34801561011d57600080fd5b5061012760065481565b6040519081526020016100d2565b34801561014157600080fd5b506100c6610150366004610d3b565b600a6020526000908152604090205460ff1681565b34801561017157600080fd5b5061012760055481565b61018e610189366004610d7c565b6101fc565b005b34801561019c57600080fd5b5061012760045481565b3480156101b257600080fd5b506100c66101c1366004610d3b565b60076020526000908152604090205460ff1681565b61018e6101e4366004610d3b565b6105d0565b61018e6101f7366004610de5565b61091b565b610204610ca5565b60208083013560008181526009909252604091829020548435928501359060608601359060808701359060ff16156102735760405162461bcd60e51b815260206004820152600d60248201526c185b1c9958591e4b5cdc195b9d609a1b60448201526064015b60405180910390fd5b60008581526007602052604090205460ff166102bc5760405162461bcd60e51b81526020600482015260086024820152671b9bdb8b5c9bdbdd60c21b604482015260640161026a565b6002546040805160a08101825287815260208101879052808201869052606081018590526080810184905290516000926001600160a01b031691610309918e918e918e9190602401610e6b565b60408051601f198184030181529181526020820180516001600160e01b03166334baeab960e01b1790525161033e9190610ebc565b6000604051808303816000865af19150503d806000811461037b576040519150601f19603f3d011682016040523d82523d6000602084013e610380565b606091505b50509050806103d15760405162461bcd60e51b815260206004820152601c60248201527f696e76616c6964207a65726f206b6e6f776c656467652070726f6f6600000000604482015260640161026a565b6000858152600960205260408120805460ff191660011790556103f18490565b9050846001849003610476576000826001600160a01b03168a60405160006040518083038185875af1925050503d806000811461044a576040519150601f19603f3d011682016040523d82523d6000602084013e61044f565b606091505b50509050806104705760405162461bcd60e51b815260040161026a90610eeb565b50610560565b83600003610521576000816001600160a01b03168a60405160006040518083038185875af1925050503d80600081146104cb576040519150601f19603f3d011682016040523d82523d6000602084013e6104d0565b606091505b50509050806104705760405162461bcd60e51b815260206004820152601e60248201527f4661696c656420746f2073656e6420457468657220746f2073656e6465720000604482015260640161026a565b60405162461bcd60e51b8152602060048201526014602482015273496e76616c696420726573756c742076616c756560601b604482015260640161026a565b60408051338152602081018990526001600160a01b0384811682840152831660608201526080810186905290517fd408c3f932caab677ba01c19fb215b088fa2e7a5786fb906b077ac53df5cf0409181900360a00190a150505050505050506105c96001600055565b5050505050565b6105d8610ca5565b6000818152600a602052604090205460ff16156106375760405162461bcd60e51b815260206004820152601960248201527f6475706c696361746520636f6d6d69746d656e74206861736800000000000000604482015260640161026a565b600454610645906002611026565b600654106106885760405162461bcd60e51b815260206004820152601060248201526f1d1a19481d1c9959481a5cc8199d5b1b60821b604482015260640161026a565b6000610692610cfe565b61069a610cfe565b600654846000806106a9610d1d565b60005b6004548160ff161015610875576106c460028761104f565b60000361074357849350600b8160ff16600a81106106e4576106e4610e2c565b01549250600b8160ff16600a81106106fe576106fe610e2c565b0154888260ff16600a811061071557610715610e2c565b602002015260008760ff8316600a811061073157610731610e2c565b60ff9092166020929092020152610799565b60ff8116600081815260086020526040902054945085935084908990600a811061076f5761076f610e2c565b602002015260018760ff8316600a811061078b5761078b610e2c565b60ff90921660209290920201525b60ff81166000908152600860205260408120869055849083906020020152828260016020020181815250506000600160009054906101000a90046001600160a01b03166001600160a01b031663d622e5a4620249f0858e6040518463ffffffff1660e01b815260040161080d929190611063565b6020604051808303818786fa15801561082a573d6000803e3d6000fd5b50505050506040513d601f19601f8201168201806040525081019061084f919061109b565b955085905061085f6002886110b4565b965050808061086d906110c8565b9150506106ac565b506000848152600760205260408120805460ff1916600190811790915560068054969a508a96919290916108aa9084906110e7565b90915550506000898152600a602052604090819020805460ff19166001179055517f4734e8c22de58d385b5e4a86e243c8eafd12682db6819fba758d04c369f8d096906108fe908a908a908a9034906110fa565b60405180910390a150505050505050506109186001600055565b50565b610923610ca5565b60208083013560008181526009909252604091829020548435928501359060608601359060808701359060ff161561098d5760405162461bcd60e51b815260206004820152600d60248201526c185b1c9958591e4b5cdc195b9d609a1b604482015260640161026a565b60008581526007602052604090205460ff166109d65760405162461bcd60e51b81526020600482015260086024820152671b9bdb8b5c9bdbdd60c21b604482015260640161026a565b6003546040805160a08101825287815260208101879052808201869052606081018590526080810184905290516000926001600160a01b031691610a1f918c9190602401611168565b60408051601f198184030181529181526020820180516001600160e01b03166327b5d55960e11b17905251610a549190610ebc565b6000604051808303816000865af19150503d8060008114610a91576040519150601f19603f3d011682016040523d82523d6000602084013e610a96565b606091505b5050905080610ae75760405162461bcd60e51b815260206004820152601c60248201527f696e76616c6964207a65726f206b6e6f776c656467652070726f6f6600000000604482015260640161026a565b6000858152600960205260408120805460ff19166001179055610b078490565b9050846001849003610b8c576000826001600160a01b03168a60405160006040518083038185875af1925050503d8060008114610b60576040519150601f19603f3d011682016040523d82523d6000602084013e610b65565b606091505b5050905080610b865760405162461bcd60e51b815260040161026a90610eeb565b50610c37565b83600003610521576000816001600160a01b03168a60405160006040518083038185875af1925050503d8060008114610be1576040519150601f19603f3d011682016040523d82523d6000602084013e610be6565b606091505b5050905080610b865760405162461bcd60e51b815260206004820152601e60248201527f4661696c656420746f2073656e6420457468657220746f2073656e6465720000604482015260640161026a565b60408051338152602081018990526001600160a01b0384811682840152831660608201526080810186905290517fd408c3f932caab677ba01c19fb215b088fa2e7a5786fb906b077ac53df5cf0409181900360a00190a15050505050505050610ca06001600055565b505050565b600260005403610cf75760405162461bcd60e51b815260206004820152601f60248201527f5265656e7472616e637947756172643a207265656e7472616e742063616c6c00604482015260640161026a565b6002600055565b604051806101400160405280600a906020820280368337509192915050565b60405180604001604052806002906020820280368337509192915050565b600060208284031215610d4d57600080fd5b5035919050565b8060408101831015610d6557600080fd5b92915050565b8060a08101831015610d6557600080fd5b60008060008060006101c08688031215610d9557600080fd5b610d9f8787610d54565b945060c0860187811115610db257600080fd5b604087019450610dc28882610d54565b935050610dd3876101008801610d6b565b949793965091946101a0013592915050565b60008060006103c08486031215610dfb57600080fd5b610300840185811115610e0d57600080fd5b849350610e1a8682610d6b565b9250506103a084013590509250925092565b634e487b7160e01b600052603260045260246000fd5b8060005b6005811015610e65578151845260209384019390910190600101610e46565b50505050565b6101a081016040808784378083018660005b6002811015610e9a57838284379183019190830190600101610e7d565b505050808560c085013750610eb3610100830184610e42565b95945050505050565b6000825160005b81811015610edd5760208186018101518583015201610ec3565b506000920191825250919050565b60208082526021908201527f4661696c656420746f2073656e6420457468657220746f20726563697069656e6040820152601d60fa1b606082015260800190565b634e487b7160e01b600052601160045260246000fd5b600181815b80851115610f7d578160001904821115610f6357610f63610f2c565b80851615610f7057918102915b93841c9390800290610f47565b509250929050565b600082610f9457506001610d65565b81610fa157506000610d65565b8160018114610fb75760028114610fc157610fdd565b6001915050610d65565b60ff841115610fd257610fd2610f2c565b50506001821b610d65565b5060208310610133831016604e8410600b8410161715611000575081810a610d65565b61100a8383610f42565b806000190482111561101e5761101e610f2c565b029392505050565b60006110328383610f85565b9392505050565b634e487b7160e01b600052601260045260246000fd5b60008261105e5761105e611039565b500690565b60608101818460005b600281101561108b57815183526020928301929091019060010161106c565b5050508260408301529392505050565b6000602082840312156110ad57600080fd5b5051919050565b6000826110c3576110c3611039565b500490565b600060ff821660ff81036110de576110de610f2c565b60010192915050565b80820180821115610d6557610d65610f2c565b8481526102c0810160208083018660005b600a8110156111285781518352918301919083019060010161110b565b50505061016083018560005b600a81101561115457815160ff1683529183019190830190600101611134565b50505050826102a083015295945050505050565b6103a081016103008085843761118081840185610e42565b50939250505056fea264697066735822122015fdce9af1fbd241f174a3ce75a0f42f747d88c35b61f1c61552c7e08cb0dc6764736f6c63430008110033",
  "linkReferences": {},
  "deployedLinkReferences": {}
}