{
  "_format": "hh-sol-artifact-1",
  "contractName": "zkAgreement",
  "sourceName": "contracts/zkAgreement.sol",
  "abi": [
    {
      "inputs": [
        {
          "internalType": "address",
          "name": "_hasher",
          "type": "address"
        },
        {
          "internalType": "address",
          "name": "_evaluator",
          "type": "address"
        }
      ],
      "stateMutability": "nonpayable",
      "type": "constructor"
    },
    {
      "anonymous": false,
      "inputs": [
        {
          "indexed": false,
          "internalType": "uint256",
          "name": "root",
          "type": "uint256"
        },
        {
          "indexed": false,
          "internalType": "uint256[10]",
          "name": "hashPairings",
          "type": "uint256[10]"
        },
        {
          "indexed": false,
          "internalType": "uint8[10]",
          "name": "pairDirection",
          "type": "uint8[10]"
        }
      ],
      "name": "Agreement",
      "type": "event"
    },
    {
      "anonymous": false,
      "inputs": [
        {
          "indexed": false,
          "internalType": "address",
          "name": "evaluator",
          "type": "address"
        },
        {
          "indexed": false,
          "internalType": "uint256",
          "name": "nullifierHash",
          "type": "uint256"
        },
        {
          "indexed": false,
          "internalType": "address",
          "name": "recipient",
          "type": "address"
        },
        {
          "indexed": false,
          "internalType": "address",
          "name": "sender",
          "type": "address"
        },
        {
          "indexed": false,
          "internalType": "uint256",
          "name": "result",
          "type": "uint256"
        }
      ],
      "name": "Evaluate",
      "type": "event"
    },
    {
      "inputs": [
        {
          "internalType": "uint256",
          "name": "_commitment",
          "type": "uint256"
        }
      ],
      "name": "agreement",
      "outputs": [],
      "stateMutability": "payable",
      "type": "function"
    },
    {
      "inputs": [
        {
          "internalType": "uint256",
          "name": "",
          "type": "uint256"
        }
      ],
      "name": "commitments",
      "outputs": [
        {
          "internalType": "bool",
          "name": "",
          "type": "bool"
        }
      ],
      "stateMutability": "view",
      "type": "function"
    },
    {
      "inputs": [],
      "name": "denomination",
      "outputs": [
        {
          "internalType": "uint256",
          "name": "",
          "type": "uint256"
        }
      ],
      "stateMutability": "view",
      "type": "function"
    },
    {
      "inputs": [
        {
          "internalType": "uint256[2]",
          "name": "_pA",
          "type": "uint256[2]"
        },
        {
          "internalType": "uint256[2][2]",
          "name": "_pB",
          "type": "uint256[2][2]"
        },
        {
          "internalType": "uint256[2]",
          "name": "_pC",
          "type": "uint256[2]"
        },
        {
          "internalType": "uint256[5]",
          "name": "_pubSignals",
          "type": "uint256[5]"
        }
      ],
      "name": "evaluate",
      "outputs": [],
      "stateMutability": "payable",
      "type": "function"
    },
    {
      "inputs": [],
      "name": "nextLeafIdx",
      "outputs": [
        {
          "internalType": "uint256",
          "name": "",
          "type": "uint256"
        }
      ],
      "stateMutability": "view",
      "type": "function"
    },
    {
      "inputs": [
        {
          "internalType": "uint256",
          "name": "",
          "type": "uint256"
        }
      ],
      "name": "nullifierHashes",
      "outputs": [
        {
          "internalType": "bool",
          "name": "",
          "type": "bool"
        }
      ],
      "stateMutability": "view",
      "type": "function"
    },
    {
      "inputs": [
        {
          "internalType": "uint256",
          "name": "",
          "type": "uint256"
        }
      ],
      "name": "roots",
      "outputs": [
        {
          "internalType": "bool",
          "name": "",
          "type": "bool"
        }
      ],
      "stateMutability": "view",
      "type": "function"
    },
    {
      "inputs": [],
      "name": "treeLevel",
      "outputs": [
        {
          "internalType": "uint256",
          "name": "",
          "type": "uint256"
        }
      ],
      "stateMutability": "view",
      "type": "function"
    },
    {
      "inputs": [
        {
          "internalType": "uint256",
          "name": "value",
          "type": "uint256"
        }
      ],
      "name": "uintToAddress",
      "outputs": [
        {
          "internalType": "address",
          "name": "",
          "type": "address"
        }
      ],
      "stateMutability": "pure",
      "type": "function"
    }
  ],
  "bytecode": "0x600a6003819055670de0b6b3a764000060045560006005556101c06040527f8cfd904a1564f728bad463e11678c335bbe7bb55e73a07588b14f8bd04545c3d60809081527f3a362132ff01c0f19143e7526b28c6fdcabecaad0dfcdfdf6d8f23483b99438460a0527fcafc0f3216abfccb1134117a825ba2e17388c9b09877b1fee9873697c41de04460c0527f52d21251f1b6967a0505130ebea06b9d8e8cb000abe492df5259d6678b0e215360e0527f1548db067f3cf9a942c70c5ce0b6048806dd74e2b709f1d30e7a191548943a9d610100527f1ea1a9099c5691137f1d3d1830867cdd75c536dff279663aefb7b49f7798f4cb610120527f772dac99aed444be6218c8da12c933163e165b31f1099b7869f4ec29ba4da1c7610140527fc1c6314026af83a766e1ad18d985ac243fadcf9c07932757904500e6cff80b98610160527fa23d32762958399632e9e0b52d049042041484a30974a83254af4e50893ad991610180527f7ae8404bbd3493825346a185473e48d1015672145bef4cd06002212e65ed18ce6101a0526101989190816101fc565b503480156101a557600080fd5b5060405162000f0b38038062000f0b8339810160408190526101c69161026b565b6001600081905580546001600160a01b039384166001600160a01b0319918216179091556002805492909316911617905561029e565b82600a810192821561022a579160200282015b8281111561022a57825182559160200191906001019061020f565b5061023692915061023a565b5090565b5b80821115610236576000815560010161023b565b80516001600160a01b038116811461026657600080fd5b919050565b6000806040838503121561027e57600080fd5b6102878361024f565b91506102956020840161024f565b90509250929050565b610c5d80620002ae6000396000f3fe6080604052600436106100865760003560e01c806349ce89971161005957806349ce89971461013f5780638bca6d161461016f578063b8e7956414610185578063c2b40ae41461019b578063d5a7420d146101cb57600080fd5b80631f79a1e91461008b57806328cf5cba146100d0578063333d07a21461010657806345e0523f1461011b575b600080fd5b34801561009757600080fd5b506100bb6100a63660046108aa565b60086020526000908152604090205460ff1681565b60405190151581526020015b60405180910390f35b3480156100dc57600080fd5b506100ee6100eb3660046108aa565b90565b6040516001600160a01b0390911681526020016100c7565b6101196101143660046108da565b6101de565b005b34801561012757600080fd5b5061013160055481565b6040519081526020016100c7565b34801561014b57600080fd5b506100bb61015a3660046108aa565b60096020526000908152604090205460ff1681565b34801561017b57600080fd5b5061013160045481565b34801561019157600080fd5b5061013160035481565b3480156101a757600080fd5b506100bb6101b63660046108aa565b60066020526000908152604090205460ff1681565b6101196101d93660046108aa565b6104cb565b6101e6610814565b60208082013560008181526008909252604091829020548335928401359060608501359060808601359060ff16156102555760405162461bcd60e51b815260206004820152600d60248201526c185b1c9958591e4b5cdc195b9d609a1b60448201526064015b60405180910390fd5b60008581526006602052604090205460ff1661029e5760405162461bcd60e51b81526020600482015260086024820152671b9bdb8b5c9bdbdd60c21b604482015260640161024c565b6002546040805160a08101825287815260208101879052808201869052606081018590526080810184905290516000926001600160a01b0316916102eb918d918d918d9190602401610956565b60408051601f198184030181529181526020820180516001600160e01b03166334baeab960e01b1790525161032091906109c4565b6000604051808303816000865af19150503d806000811461035d576040519150601f19603f3d011682016040523d82523d6000602084013e610362565b606091505b50509050806103b35760405162461bcd60e51b815260206004820152601c60248201527f696e76616c6964207a65726f206b6e6f776c656467652070726f6f6600000000604482015260640161024c565b600085815260086020526040808220805460ff19166001179055600454905133929183918381818185875af1925050503d806000811461040f576040519150601f19603f3d011682016040523d82523d6000602084013e610414565b606091505b50509050806104565760405162461bcd60e51b815260206004820152600e60248201526d1c185e5b595b9d0b59985a5b195960921b604482015260640161024c565b60408051338152602081018990526001600160a01b038089168284015287166060820152608081018690529051879187917fd408c3f932caab677ba01c19fb215b088fa2e7a5786fb906b077ac53df5cf0409181900360a00190a1505050505050505050506104c56001600055565b50505050565b6104d3610814565b60008181526009602052604090205460ff16156105325760405162461bcd60e51b815260206004820152601960248201527f6475706c696361746520636f6d6d69746d656e74206861736800000000000000604482015260640161024c565b600354610540906002610aed565b600554106105835760405162461bcd60e51b815260206004820152601060248201526f1d1a19481d1c9959481a5cc8199d5b1b60821b604482015260640161024c565b600061058d61086d565b61059561086d565b600554846000806105a461088c565b60005b6003548160ff161015610770576105bf600287610b16565b60000361063e57849350600a8160ff16600a81106105df576105df610940565b01549250600a8160ff16600a81106105f9576105f9610940565b0154888260ff16600a811061061057610610610940565b602002015260008760ff8316600a811061062c5761062c610940565b60ff9092166020929092020152610694565b60ff8116600081815260076020526040902054945085935084908990600a811061066a5761066a610940565b602002015260018760ff8316600a811061068657610686610940565b60ff90921660209290920201525b60ff81166000908152600760205260408120869055849083906020020152828260016020020181815250506000600160009054906101000a90046001600160a01b03166001600160a01b031663d622e5a4620249f0858e6040518463ffffffff1660e01b8152600401610708929190610b2a565b6020604051808303818786fa158015610725573d6000803e3d6000fd5b50505050506040513d601f19601f8201168201806040525081019061074a9190610b62565b955085905061075a600288610b7b565b965050808061076890610b8f565b9150506105a7565b506000848152600660205260408120805460ff1916600190811790915560058054969a508a96919290916107a5908490610bae565b909155505060008981526009602052604090819020805460ff19166001179055517fbe4e22d3d7564a83a1240bc208430e93166c4bf27a6ed14c1078641746795cb3906107f7908a908a908a90610bc1565b60405180910390a150505050505050506108116001600055565b50565b6002600054036108665760405162461bcd60e51b815260206004820152601f60248201527f5265656e7472616e637947756172643a207265656e7472616e742063616c6c00604482015260640161024c565b6002600055565b604051806101400160405280600a906020820280368337509192915050565b60405180604001604052806002906020820280368337509192915050565b6000602082840312156108bc57600080fd5b5035919050565b80604081018310156108d457600080fd5b92915050565b6000806000806101a08086880312156108f257600080fd5b6108fc87876108c3565b945060c086018781111561090f57600080fd5b60408701945061091f88826108c3565b93505086818701111561093157600080fd5b50929591945092610100019150565b634e487b7160e01b600052603260045260246000fd5b6101a081016040808784378083018660005b600281101561098557838284379183019190830190600101610968565b505050808560c08501375061010082018360005b60058110156109b8578151835260209283019290910190600101610999565b50505095945050505050565b6000825160005b818110156109e557602081860181015185830152016109cb565b506000920191825250919050565b634e487b7160e01b600052601160045260246000fd5b600181815b80851115610a44578160001904821115610a2a57610a2a6109f3565b80851615610a3757918102915b93841c9390800290610a0e565b509250929050565b600082610a5b575060016108d4565b81610a68575060006108d4565b8160018114610a7e5760028114610a8857610aa4565b60019150506108d4565b60ff841115610a9957610a996109f3565b50506001821b6108d4565b5060208310610133831016604e8410600b8410161715610ac7575081810a6108d4565b610ad18383610a09565b8060001904821115610ae557610ae56109f3565b029392505050565b6000610af98383610a4c565b9392505050565b634e487b7160e01b600052601260045260246000fd5b600082610b2557610b25610b00565b500690565b60608101818460005b6002811015610b52578151835260209283019290910190600101610b33565b5050508260408301529392505050565b600060208284031215610b7457600080fd5b5051919050565b600082610b8a57610b8a610b00565b500490565b600060ff821660ff8103610ba557610ba56109f3565b60010192915050565b808201808211156108d4576108d46109f3565b8381526102a0810160208083018560005b600a811015610bef57815183529183019190830190600101610bd2565b50505061016083018460005b600a811015610c1b57815160ff1683529183019190830190600101610bfb565b5050505094935050505056fea2646970667358221220a0358547ef2e1a6fc4d541dbbb4c5086ac405daf0971c64c4342ee87e7ac92b064736f6c63430008110033",
  "linkReferences": {},
  "deployedLinkReferences": {}
}