{
  "_format": "hh-sol-artifact-1",
  "contractName": "zkAgreement",
  "sourceName": "contracts/zkAgreement.sol",
  "abi": [
    {
      "inputs": [
        {
          "internalType": "address",
          "name": "_hasher",
          "type": "address"
        },
        {
          "internalType": "address",
          "name": "_verifier",
          "type": "address"
        }
      ],
      "stateMutability": "nonpayable",
      "type": "constructor"
    },
    {
      "anonymous": false,
      "inputs": [
        {
          "indexed": false,
          "internalType": "uint256",
          "name": "root",
          "type": "uint256"
        },
        {
          "indexed": false,
          "internalType": "uint256[10]",
          "name": "hashPairings",
          "type": "uint256[10]"
        },
        {
          "indexed": false,
          "internalType": "uint8[10]",
          "name": "pairDirection",
          "type": "uint8[10]"
        }
      ],
      "name": "Agreement",
      "type": "event"
    },
    {
      "inputs": [
        {
          "internalType": "uint256",
          "name": "_commitment",
          "type": "uint256"
        }
      ],
      "name": "agreement",
      "outputs": [],
      "stateMutability": "payable",
      "type": "function"
    },
    {
      "inputs": [
        {
          "internalType": "uint256",
          "name": "",
          "type": "uint256"
        }
      ],
      "name": "commitments",
      "outputs": [
        {
          "internalType": "bool",
          "name": "",
          "type": "bool"
        }
      ],
      "stateMutability": "view",
      "type": "function"
    },
    {
      "inputs": [],
      "name": "denomination",
      "outputs": [
        {
          "internalType": "uint256",
          "name": "",
          "type": "uint256"
        }
      ],
      "stateMutability": "view",
      "type": "function"
    },
    {
      "inputs": [],
      "name": "nextLeafIdx",
      "outputs": [
        {
          "internalType": "uint256",
          "name": "",
          "type": "uint256"
        }
      ],
      "stateMutability": "view",
      "type": "function"
    },
    {
      "inputs": [
        {
          "internalType": "uint256",
          "name": "",
          "type": "uint256"
        }
      ],
      "name": "nullifierHashes",
      "outputs": [
        {
          "internalType": "bool",
          "name": "",
          "type": "bool"
        }
      ],
      "stateMutability": "view",
      "type": "function"
    },
    {
      "inputs": [
        {
          "internalType": "uint256",
          "name": "",
          "type": "uint256"
        }
      ],
      "name": "roots",
      "outputs": [
        {
          "internalType": "bool",
          "name": "",
          "type": "bool"
        }
      ],
      "stateMutability": "view",
      "type": "function"
    },
    {
      "inputs": [],
      "name": "treeLevel",
      "outputs": [
        {
          "internalType": "uint256",
          "name": "",
          "type": "uint256"
        }
      ],
      "stateMutability": "view",
      "type": "function"
    }
  ],
  "bytecode": "0x600a6002819055670de0b6b3a764000060035560006004556101c06040527f8cfd904a1564f728bad463e11678c335bbe7bb55e73a07588b14f8bd04545c3d60809081527f3a362132ff01c0f19143e7526b28c6fdcabecaad0dfcdfdf6d8f23483b99438460a0527fcafc0f3216abfccb1134117a825ba2e17388c9b09877b1fee9873697c41de04460c0527f52d21251f1b6967a0505130ebea06b9d8e8cb000abe492df5259d6678b0e215360e0527f1548db067f3cf9a942c70c5ce0b6048806dd74e2b709f1d30e7a191548943a9d610100527f1ea1a9099c5691137f1d3d1830867cdd75c536dff279663aefb7b49f7798f4cb610120527f772dac99aed444be6218c8da12c933163e165b31f1099b7869f4ec29ba4da1c7610140527fc1c6314026af83a766e1ad18d985ac243fadcf9c07932757904500e6cff80b98610160527fa23d32762958399632e9e0b52d049042041484a30974a83254af4e50893ad991610180527f7ae8404bbd3493825346a185473e48d1015672145bef4cd06002212e65ed18ce6101a05261019a91600991906101f1565b503480156101a757600080fd5b50604051610a9f380380610a9f8339810160408190526101c691610260565b506001600081905580546001600160a01b0319166001600160a01b0392909216919091179055610293565b82600a810192821561021f579160200282015b8281111561021f578251825591602001919060010190610204565b5061022b92915061022f565b5090565b5b8082111561022b5760008155600101610230565b80516001600160a01b038116811461025b57600080fd5b919050565b6000806040838503121561027357600080fd5b61027c83610244565b915061028a60208401610244565b90509250929050565b6107fd806102a26000396000f3fe6080604052600436106100705760003560e01c80638bca6d161161004e5780638bca6d161461010e578063b8e7956414610124578063c2b40ae41461013a578063d5a7420d1461016a57600080fd5b80631f79a1e91461007557806345e0523f146100ba57806349ce8997146100de575b600080fd5b34801561008157600080fd5b506100a5610090366004610562565b60076020526000908152604090205460ff1681565b60405190151581526020015b60405180910390f35b3480156100c657600080fd5b506100d060045481565b6040519081526020016100b1565b3480156100ea57600080fd5b506100a56100f9366004610562565b60086020526000908152604090205460ff1681565b34801561011a57600080fd5b506100d060035481565b34801561013057600080fd5b506100d060025481565b34801561014657600080fd5b506100a5610155366004610562565b60056020526000908152604090205460ff1681565b61017d610178366004610562565b61017f565b005b6101876104cc565b60008181526008602052604090205460ff16156101eb5760405162461bcd60e51b815260206004820152601960248201527f6475706c696361746520636f6d6d69746d656e7420686173680000000000000060448201526064015b60405180910390fd5b600280546101f891610677565b6004541061023b5760405162461bcd60e51b815260206004820152601060248201526f1d1a19481d1c9959481a5cc8199d5b1b60821b60448201526064016101e2565b6000610245610525565b61024d610525565b6004548460008061025c610544565b60005b6002548160ff161015610428576102776002876106a0565b6000036102f65784935060098160ff16600a8110610297576102976106b4565b0154925060098160ff16600a81106102b1576102b16106b4565b0154888260ff16600a81106102c8576102c86106b4565b602002015260008760ff8316600a81106102e4576102e46106b4565b60ff909216602092909202015261034c565b60ff8116600081815260066020526040902054945085935084908990600a8110610322576103226106b4565b602002015260018760ff8316600a811061033e5761033e6106b4565b60ff90921660209290920201525b60ff81166000908152600660205260408120869055849083906020020152828260016020020181815250506000600160009054906101000a90046001600160a01b03166001600160a01b031663d622e5a4620249f0858e6040518463ffffffff1660e01b81526004016103c09291906106ca565b6020604051808303818786fa1580156103dd573d6000803e3d6000fd5b50505050506040513d601f19601f820116820180604052508101906104029190610702565b955085905061041260028861071b565b96505080806104209061072f565b91505061025f565b506000848152600560205260408120805460ff1916600190811790915560048054969a508a969192909161045d90849061074e565b909155505060008981526008602052604090819020805460ff19166001179055517fbe4e22d3d7564a83a1240bc208430e93166c4bf27a6ed14c1078641746795cb3906104af908a908a908a90610761565b60405180910390a150505050505050506104c96001600055565b50565b60026000540361051e5760405162461bcd60e51b815260206004820152601f60248201527f5265656e7472616e637947756172643a207265656e7472616e742063616c6c0060448201526064016101e2565b6002600055565b604051806101400160405280600a906020820280368337509192915050565b60405180604001604052806002906020820280368337509192915050565b60006020828403121561057457600080fd5b5035919050565b634e487b7160e01b600052601160045260246000fd5b600181815b808511156105cc5781600019048211156105b2576105b261057b565b808516156105bf57918102915b93841c9390800290610596565b509250929050565b6000826105e357506001610671565b816105f057506000610671565b816001811461060657600281146106105761062c565b6001915050610671565b60ff8411156106215761062161057b565b50506001821b610671565b5060208310610133831016604e8410600b841016171561064f575081810a610671565b6106598383610591565b806000190482111561066d5761066d61057b565b0290505b92915050565b600061068383836105d4565b9392505050565b634e487b7160e01b600052601260045260246000fd5b6000826106af576106af61068a565b500690565b634e487b7160e01b600052603260045260246000fd5b60608101818460005b60028110156106f25781518352602092830192909101906001016106d3565b5050508260408301529392505050565b60006020828403121561071457600080fd5b5051919050565b60008261072a5761072a61068a565b500490565b600060ff821660ff81036107455761074561057b565b60010192915050565b808201808211156106715761067161057b565b8381526102a0810160208083018560005b600a81101561078f57815183529183019190830190600101610772565b50505061016083018460005b600a8110156107bb57815160ff168352918301919083019060010161079b565b5050505094935050505056fea2646970667358221220d1492e987270fa20d6f34b1031645177745bb504bc78cbc6fe7e70e6d406b2c864736f6c63430008110033",
  "linkReferences": {},
  "deployedLinkReferences": {}
}