{
  "_format": "hh-sol-artifact-1",
  "contractName": "zkAgreement",
  "sourceName": "contracts/zkAgreement.sol",
  "abi": [
    {
      "inputs": [
        {
          "internalType": "address",
          "name": "_hasher",
          "type": "address"
        },
        {
          "internalType": "address",
          "name": "_evaluator",
          "type": "address"
        }
      ],
      "stateMutability": "nonpayable",
      "type": "constructor"
    },
    {
      "anonymous": false,
      "inputs": [
        {
          "indexed": false,
          "internalType": "uint256",
          "name": "root",
          "type": "uint256"
        },
        {
          "indexed": false,
          "internalType": "uint256[10]",
          "name": "hashPairings",
          "type": "uint256[10]"
        },
        {
          "indexed": false,
          "internalType": "uint8[10]",
          "name": "pairDirection",
          "type": "uint8[10]"
        },
        {
          "indexed": false,
          "internalType": "uint256",
          "name": "commitmentValue",
          "type": "uint256"
        }
      ],
      "name": "Agreement",
      "type": "event"
    },
    {
      "anonymous": false,
      "inputs": [
        {
          "indexed": false,
          "internalType": "address",
          "name": "evaluator",
          "type": "address"
        },
        {
          "indexed": false,
          "internalType": "uint256",
          "name": "nullifierHash",
          "type": "uint256"
        },
        {
          "indexed": false,
          "internalType": "address",
          "name": "sender",
          "type": "address"
        },
        {
          "indexed": false,
          "internalType": "address",
          "name": "recipient",
          "type": "address"
        },
        {
          "indexed": false,
          "internalType": "uint256",
          "name": "result",
          "type": "uint256"
        }
      ],
      "name": "Evaluate",
      "type": "event"
    },
    {
      "inputs": [
        {
          "internalType": "uint256",
          "name": "_commitment",
          "type": "uint256"
        }
      ],
      "name": "agreement",
      "outputs": [],
      "stateMutability": "payable",
      "type": "function"
    },
    {
      "inputs": [
        {
          "internalType": "uint256",
          "name": "",
          "type": "uint256"
        }
      ],
      "name": "commitments",
      "outputs": [
        {
          "internalType": "bool",
          "name": "",
          "type": "bool"
        }
      ],
      "stateMutability": "view",
      "type": "function"
    },
    {
      "inputs": [],
      "name": "denomination",
      "outputs": [
        {
          "internalType": "uint256",
          "name": "",
          "type": "uint256"
        }
      ],
      "stateMutability": "view",
      "type": "function"
    },
    {
      "inputs": [
        {
          "internalType": "uint256[2]",
          "name": "_pA",
          "type": "uint256[2]"
        },
        {
          "internalType": "uint256[2][2]",
          "name": "_pB",
          "type": "uint256[2][2]"
        },
        {
          "internalType": "uint256[2]",
          "name": "_pC",
          "type": "uint256[2]"
        },
        {
          "internalType": "uint256[5]",
          "name": "_pubSignals",
          "type": "uint256[5]"
        },
        {
          "internalType": "uint256",
          "name": "commitmentValue",
          "type": "uint256"
        }
      ],
      "name": "evaluate",
      "outputs": [],
      "stateMutability": "payable",
      "type": "function"
    },
    {
      "inputs": [],
      "name": "nextLeafIdx",
      "outputs": [
        {
          "internalType": "uint256",
          "name": "",
          "type": "uint256"
        }
      ],
      "stateMutability": "view",
      "type": "function"
    },
    {
      "inputs": [
        {
          "internalType": "uint256",
          "name": "",
          "type": "uint256"
        }
      ],
      "name": "nullifierHashes",
      "outputs": [
        {
          "internalType": "bool",
          "name": "",
          "type": "bool"
        }
      ],
      "stateMutability": "view",
      "type": "function"
    },
    {
      "inputs": [
        {
          "internalType": "uint256",
          "name": "",
          "type": "uint256"
        }
      ],
      "name": "roots",
      "outputs": [
        {
          "internalType": "bool",
          "name": "",
          "type": "bool"
        }
      ],
      "stateMutability": "view",
      "type": "function"
    },
    {
      "inputs": [],
      "name": "treeLevel",
      "outputs": [
        {
          "internalType": "uint256",
          "name": "",
          "type": "uint256"
        }
      ],
      "stateMutability": "view",
      "type": "function"
    },
    {
      "inputs": [
        {
          "internalType": "uint256",
          "name": "value",
          "type": "uint256"
        }
      ],
      "name": "uintToAddress",
      "outputs": [
        {
          "internalType": "address",
          "name": "",
          "type": "address"
        }
      ],
      "stateMutability": "pure",
      "type": "function"
    }
  ],
  "bytecode": "0x600a600381905567016345785d8a000060045560006005556101c06040527f8cfd904a1564f728bad463e11678c335bbe7bb55e73a07588b14f8bd04545c3d60809081527f3a362132ff01c0f19143e7526b28c6fdcabecaad0dfcdfdf6d8f23483b99438460a0527fcafc0f3216abfccb1134117a825ba2e17388c9b09877b1fee9873697c41de04460c0527f52d21251f1b6967a0505130ebea06b9d8e8cb000abe492df5259d6678b0e215360e0527f1548db067f3cf9a942c70c5ce0b6048806dd74e2b709f1d30e7a191548943a9d610100527f1ea1a9099c5691137f1d3d1830867cdd75c536dff279663aefb7b49f7798f4cb610120527f772dac99aed444be6218c8da12c933163e165b31f1099b7869f4ec29ba4da1c7610140527fc1c6314026af83a766e1ad18d985ac243fadcf9c07932757904500e6cff80b98610160527fa23d32762958399632e9e0b52d049042041484a30974a83254af4e50893ad991610180527f7ae8404bbd3493825346a185473e48d1015672145bef4cd06002212e65ed18ce6101a0526200019a91908162000202565b50348015620001a857600080fd5b506040516200105138038062001051833981016040819052620001cb9162000279565b6001600081905580546001600160a01b039384166001600160a01b03199182161790915560028054929093169116179055620002b1565b82600a810192821562000233579160200282015b828111156200023357825182559160200191906001019062000216565b506200024192915062000245565b5090565b5b8082111562000241576000815560010162000246565b80516001600160a01b03811681146200027457600080fd5b919050565b600080604083850312156200028d57600080fd5b62000298836200025c565b9150620002a8602084016200025c565b90509250929050565b610d9080620002c16000396000f3fe6080604052600436106100865760003560e01c80638bca6d16116100595780638bca6d161461015a578063b8e7956414610170578063b8ec3ffc14610186578063c2b40ae41461019b578063d5a7420d146101cb57600080fd5b80631f79a1e91461008b57806328cf5cba146100d057806345e0523f1461010657806349ce89971461012a575b600080fd5b34801561009757600080fd5b506100bb6100a63660046109cd565b60086020526000908152604090205460ff1681565b60405190151581526020015b60405180910390f35b3480156100dc57600080fd5b506100ee6100eb3660046109cd565b90565b6040516001600160a01b0390911681526020016100c7565b34801561011257600080fd5b5061011c60055481565b6040519081526020016100c7565b34801561013657600080fd5b506100bb6101453660046109cd565b60096020526000908152604090205460ff1681565b34801561016657600080fd5b5061011c60045481565b34801561017c57600080fd5b5061011c60035481565b6101996101943660046109fd565b6101de565b005b3480156101a757600080fd5b506100bb6101b63660046109cd565b60066020526000908152604090205460ff1681565b6101996101d93660046109cd565b6105ec565b6101e6610937565b60208083013560008181526008909252604091829020548435928501359060608601359060808701359060ff16156102555760405162461bcd60e51b815260206004820152600d60248201526c185b1c9958591e4b5cdc195b9d609a1b60448201526064015b60405180910390fd5b60008581526006602052604090205460ff1661029e5760405162461bcd60e51b81526020600482015260086024820152671b9bdb8b5c9bdbdd60c21b604482015260640161024c565b6002546040805160a08101825287815260208101879052808201859052606081018690526080810184905290516000926001600160a01b0316916102eb918e918e918e9190602401610a81565b60408051601f198184030181529181526020820180516001600160e01b03166334baeab960e01b179052516103209190610aef565b6000604051808303816000865af19150503d806000811461035d576040519150601f19603f3d011682016040523d82523d6000602084013e610362565b606091505b50509050806103b35760405162461bcd60e51b815260206004820152601c60248201527f696e76616c6964207a65726f206b6e6f776c656467652070726f6f6600000000604482015260640161024c565b6000858152600860205260408120805460ff191660011790556103d38490565b9050846001849003610492576000826001600160a01b03168a60405160006040518083038185875af1925050503d806000811461042c576040519150601f19603f3d011682016040523d82523d6000602084013e610431565b606091505b505090508061048c5760405162461bcd60e51b815260206004820152602160248201527f4661696c656420746f2073656e6420457468657220746f20726563697069656e6044820152601d60fa1b606482015260840161024c565b5061057c565b8360000361053d576000816001600160a01b03168a60405160006040518083038185875af1925050503d80600081146104e7576040519150601f19603f3d011682016040523d82523d6000602084013e6104ec565b606091505b505090508061048c5760405162461bcd60e51b815260206004820152601e60248201527f4661696c656420746f2073656e6420457468657220746f2073656e6465720000604482015260640161024c565b60405162461bcd60e51b8152602060048201526014602482015273496e76616c696420726573756c742076616c756560601b604482015260640161024c565b60408051338152602081018990526001600160a01b0384811682840152831660608201526080810186905290517fd408c3f932caab677ba01c19fb215b088fa2e7a5786fb906b077ac53df5cf0409181900360a00190a150505050505050506105e56001600055565b5050505050565b6105f4610937565b60008181526009602052604090205460ff16156106535760405162461bcd60e51b815260206004820152601960248201527f6475706c696361746520636f6d6d69746d656e74206861736800000000000000604482015260640161024c565b600354610661906002610c18565b600554106106a45760405162461bcd60e51b815260206004820152601060248201526f1d1a19481d1c9959481a5cc8199d5b1b60821b604482015260640161024c565b60006106ae610990565b6106b6610990565b600554846000806106c56109af565b60005b6003548160ff161015610891576106e0600287610c41565b60000361075f57849350600a8160ff16600a811061070057610700610a6b565b01549250600a8160ff16600a811061071a5761071a610a6b565b0154888260ff16600a811061073157610731610a6b565b602002015260008760ff8316600a811061074d5761074d610a6b565b60ff90921660209290920201526107b5565b60ff8116600081815260076020526040902054945085935084908990600a811061078b5761078b610a6b565b602002015260018760ff8316600a81106107a7576107a7610a6b565b60ff90921660209290920201525b60ff81166000908152600760205260408120869055849083906020020152828260016020020181815250506000600160009054906101000a90046001600160a01b03166001600160a01b031663d622e5a4620249f0858e6040518463ffffffff1660e01b8152600401610829929190610c55565b6020604051808303818786fa158015610846573d6000803e3d6000fd5b50505050506040513d601f19601f8201168201806040525081019061086b9190610c8d565b955085905061087b600288610ca6565b965050808061088990610cba565b9150506106c8565b506000848152600660205260408120805460ff1916600190811790915560058054969a508a96919290916108c6908490610cd9565b909155505060008981526009602052604090819020805460ff19166001179055517f4734e8c22de58d385b5e4a86e243c8eafd12682db6819fba758d04c369f8d0969061091a908a908a908a903490610cec565b60405180910390a150505050505050506109346001600055565b50565b6002600054036109895760405162461bcd60e51b815260206004820152601f60248201527f5265656e7472616e637947756172643a207265656e7472616e742063616c6c00604482015260640161024c565b6002600055565b604051806101400160405280600a906020820280368337509192915050565b60405180604001604052806002906020820280368337509192915050565b6000602082840312156109df57600080fd5b5035919050565b80604081018310156109f757600080fd5b92915050565b60008060008060006101c08688031215610a1657600080fd5b610a2087876109e6565b945060c0860187811115610a3357600080fd5b604087019450610a4388826109e6565b9350506101a0860187811115610a5857600080fd5b9497939650919461010001933592915050565b634e487b7160e01b600052603260045260246000fd5b6101a081016040808784378083018660005b6002811015610ab057838284379183019190830190600101610a93565b505050808560c08501375061010082018360005b6005811015610ae3578151835260209283019290910190600101610ac4565b50505095945050505050565b6000825160005b81811015610b105760208186018101518583015201610af6565b506000920191825250919050565b634e487b7160e01b600052601160045260246000fd5b600181815b80851115610b6f578160001904821115610b5557610b55610b1e565b80851615610b6257918102915b93841c9390800290610b39565b509250929050565b600082610b86575060016109f7565b81610b93575060006109f7565b8160018114610ba95760028114610bb357610bcf565b60019150506109f7565b60ff841115610bc457610bc4610b1e565b50506001821b6109f7565b5060208310610133831016604e8410600b8410161715610bf2575081810a6109f7565b610bfc8383610b34565b8060001904821115610c1057610c10610b1e565b029392505050565b6000610c248383610b77565b9392505050565b634e487b7160e01b600052601260045260246000fd5b600082610c5057610c50610c2b565b500690565b60608101818460005b6002811015610c7d578151835260209283019290910190600101610c5e565b5050508260408301529392505050565b600060208284031215610c9f57600080fd5b5051919050565b600082610cb557610cb5610c2b565b500490565b600060ff821660ff8103610cd057610cd0610b1e565b60010192915050565b808201808211156109f7576109f7610b1e565b8481526102c0810160208083018660005b600a811015610d1a57815183529183019190830190600101610cfd565b50505061016083018560005b600a811015610d4657815160ff1683529183019190830190600101610d26565b50505050826102a08301529594505050505056fea26469706673582212206236f4bc2720dadc4095581c0bc6e3e9806cf19312eaa30aa4feb60d4f0e50aa64736f6c63430008110033",
  "linkReferences": {},
  "deployedLinkReferences": {}
}