{"contracts/zkAgreement.sol":{"zkAgreement":{"abi":[{"inputs":[{"internalType":"address","name":"_hasher","type":"address"},{"internalType":"address","name":"_evaluator","type":"address"}],"stateMutability":"nonpayable","type":"constructor"},{"anonymous":false,"inputs":[{"indexed":false,"internalType":"uint256","name":"root","type":"uint256"},{"indexed":false,"internalType":"uint256[10]","name":"hashPairings","type":"uint256[10]"},{"indexed":false,"internalType":"uint8[10]","name":"pairDirection","type":"uint8[10]"}],"name":"Agreement","type":"event"},{"anonymous":false,"inputs":[{"indexed":false,"internalType":"address","name":"evaluator","type":"address"},{"indexed":false,"internalType":"uint256","name":"nullifierHash","type":"uint256"},{"indexed":false,"internalType":"address","name":"recipient","type":"address"},{"indexed":false,"internalType":"address","name":"sender","type":"address"},{"indexed":false,"internalType":"uint256","name":"result","type":"uint256"}],"name":"Evaluate","type":"event"},{"inputs":[{"internalType":"uint256","name":"_commitment","type":"uint256"}],"name":"agreement","outputs":[],"stateMutability":"payable","type":"function"},{"inputs":[{"internalType":"uint256","name":"","type":"uint256"}],"name":"commitments","outputs":[{"internalType":"bool","name":"","type":"bool"}],"stateMutability":"view","type":"function"},{"inputs":[],"name":"denomination","outputs":[{"internalType":"uint256","name":"","type":"uint256"}],"stateMutability":"view","type":"function"},{"inputs":[{"internalType":"uint256[2]","name":"_pA","type":"uint256[2]"},{"internalType":"uint256[2][2]","name":"_pB","type":"uint256[2][2]"},{"internalType":"uint256[2]","name":"_pC","type":"uint256[2]"},{"internalType":"uint256[5]","name":"_pubSignals","type":"uint256[5]"}],"name":"evaluate","outputs":[],"stateMutability":"payable","type":"function"},{"inputs":[],"name":"nextLeafIdx","outputs":[{"internalType":"uint256","name":"","type":"uint256"}],"stateMutability":"view","type":"function"},{"inputs":[{"internalType":"uint256","name":"","type":"uint256"}],"name":"nullifierHashes","outputs":[{"internalType":"bool","name":"","type":"bool"}],"stateMutability":"view","type":"function"},{"inputs":[{"internalType":"uint256","name":"","type":"uint256"}],"name":"roots","outputs":[{"internalType":"bool","name":"","type":"bool"}],"stateMutability":"view","type":"function"},{"inputs":[],"name":"treeLevel","outputs":[{"internalType":"uint256","name":"","type":"uint256"}],"stateMutability":"view","type":"function"},{"inputs":[{"internalType":"uint256","name":"value","type":"uint256"}],"name":"uintToAddress","outputs":[{"internalType":"address","name":"","type":"address"}],"stateMutability":"pure","type":"function"}],"evm":{"bytecode":{"linkReferences":{},"object":"600a6003819055670de0b6b3a764000060045560006005556101c06040527f8cfd904a1564f728bad463e11678c335bbe7bb55e73a07588b14f8bd04545c3d60809081527f3a362132ff01c0f19143e7526b28c6fdcabecaad0dfcdfdf6d8f23483b99438460a0527fcafc0f3216abfccb1134117a825ba2e17388c9b09877b1fee9873697c41de04460c0527f52d21251f1b6967a0505130ebea06b9d8e8cb000abe492df5259d6678b0e215360e0527f1548db067f3cf9a942c70c5ce0b6048806dd74e2b709f1d30e7a191548943a9d610100527f1ea1a9099c5691137f1d3d1830867cdd75c536dff279663aefb7b49f7798f4cb610120527f772dac99aed444be6218c8da12c933163e165b31f1099b7869f4ec29ba4da1c7610140527fc1c6314026af83a766e1ad18d985ac243fadcf9c07932757904500e6cff80b98610160527fa23d32762958399632e9e0b52d049042041484a30974a83254af4e50893ad991610180527f7ae8404bbd3493825346a185473e48d1015672145bef4cd06002212e65ed18ce6101a0526101989190816101fc565b503480156101a557600080fd5b5060405162000f0b38038062000f0b8339810160408190526101c69161026b565b6001600081905580546001600160a01b039384166001600160a01b0319918216179091556002805492909316911617905561029e565b82600a810192821561022a579160200282015b8281111561022a57825182559160200191906001019061020f565b5061023692915061023a565b5090565b5b80821115610236576000815560010161023b565b80516001600160a01b038116811461026657600080fd5b919050565b6000806040838503121561027e57600080fd5b6102878361024f565b91506102956020840161024f565b90509250929050565b610c5d80620002ae6000396000f3fe6080604052600436106100865760003560e01c806349ce89971161005957806349ce89971461013f5780638bca6d161461016f578063b8e7956414610185578063c2b40ae41461019b578063d5a7420d146101cb57600080fd5b80631f79a1e91461008b57806328cf5cba146100d0578063333d07a21461010657806345e0523f1461011b575b600080fd5b34801561009757600080fd5b506100bb6100a63660046108aa565b60086020526000908152604090205460ff1681565b60405190151581526020015b60405180910390f35b3480156100dc57600080fd5b506100ee6100eb3660046108aa565b90565b6040516001600160a01b0390911681526020016100c7565b6101196101143660046108da565b6101de565b005b34801561012757600080fd5b5061013160055481565b6040519081526020016100c7565b34801561014b57600080fd5b506100bb61015a3660046108aa565b60096020526000908152604090205460ff1681565b34801561017b57600080fd5b5061013160045481565b34801561019157600080fd5b5061013160035481565b3480156101a757600080fd5b506100bb6101b63660046108aa565b60066020526000908152604090205460ff1681565b6101196101d93660046108aa565b6104cb565b6101e6610814565b60208082013560008181526008909252604091829020548335928401359060608501359060808601359060ff16156102555760405162461bcd60e51b815260206004820152600d60248201526c185b1c9958591e4b5cdc195b9d609a1b60448201526064015b60405180910390fd5b60008581526006602052604090205460ff1661029e5760405162461bcd60e51b81526020600482015260086024820152671b9bdb8b5c9bdbdd60c21b604482015260640161024c565b6002546040805160a08101825287815260208101879052808201869052606081018590526080810184905290516000926001600160a01b0316916102eb918d918d918d9190602401610956565b60408051601f198184030181529181526020820180516001600160e01b03166334baeab960e01b1790525161032091906109c4565b6000604051808303816000865af19150503d806000811461035d576040519150601f19603f3d011682016040523d82523d6000602084013e610362565b606091505b50509050806103b35760405162461bcd60e51b815260206004820152601c60248201527f696e76616c6964207a65726f206b6e6f776c656467652070726f6f6600000000604482015260640161024c565b600085815260086020526040808220805460ff19166001179055600454905133929183918381818185875af1925050503d806000811461040f576040519150601f19603f3d011682016040523d82523d6000602084013e610414565b606091505b50509050806104565760405162461bcd60e51b815260206004820152600e60248201526d1c185e5b595b9d0b59985a5b195960921b604482015260640161024c565b60408051338152602081018990526001600160a01b038089168284015287166060820152608081018690529051879187917fd408c3f932caab677ba01c19fb215b088fa2e7a5786fb906b077ac53df5cf0409181900360a00190a1505050505050505050506104c56001600055565b50505050565b6104d3610814565b60008181526009602052604090205460ff16156105325760405162461bcd60e51b815260206004820152601960248201527f6475706c696361746520636f6d6d69746d656e74206861736800000000000000604482015260640161024c565b600354610540906002610aed565b600554106105835760405162461bcd60e51b815260206004820152601060248201526f1d1a19481d1c9959481a5cc8199d5b1b60821b604482015260640161024c565b600061058d61086d565b61059561086d565b600554846000806105a461088c565b60005b6003548160ff161015610770576105bf600287610b16565b60000361063e57849350600a8160ff16600a81106105df576105df610940565b01549250600a8160ff16600a81106105f9576105f9610940565b0154888260ff16600a811061061057610610610940565b602002015260008760ff8316600a811061062c5761062c610940565b60ff9092166020929092020152610694565b60ff8116600081815260076020526040902054945085935084908990600a811061066a5761066a610940565b602002015260018760ff8316600a811061068657610686610940565b60ff90921660209290920201525b60ff81166000908152600760205260408120869055849083906020020152828260016020020181815250506000600160009054906101000a90046001600160a01b03166001600160a01b031663d622e5a4620249f0858e6040518463ffffffff1660e01b8152600401610708929190610b2a565b6020604051808303818786fa158015610725573d6000803e3d6000fd5b50505050506040513d601f19601f8201168201806040525081019061074a9190610b62565b955085905061075a600288610b7b565b965050808061076890610b8f565b9150506105a7565b506000848152600660205260408120805460ff1916600190811790915560058054969a508a96919290916107a5908490610bae565b909155505060008981526009602052604090819020805460ff19166001179055517fbe4e22d3d7564a83a1240bc208430e93166c4bf27a6ed14c1078641746795cb3906107f7908a908a908a90610bc1565b60405180910390a150505050505050506108116001600055565b50565b6002600054036108665760405162461bcd60e51b815260206004820152601f60248201527f5265656e7472616e637947756172643a207265656e7472616e742063616c6c00604482015260640161024c565b6002600055565b604051806101400160405280600a906020820280368337509192915050565b60405180604001604052806002906020820280368337509192915050565b6000602082840312156108bc57600080fd5b5035919050565b80604081018310156108d457600080fd5b92915050565b6000806000806101a08086880312156108f257600080fd5b6108fc87876108c3565b945060c086018781111561090f57600080fd5b60408701945061091f88826108c3565b93505086818701111561093157600080fd5b50929591945092610100019150565b634e487b7160e01b600052603260045260246000fd5b6101a081016040808784378083018660005b600281101561098557838284379183019190830190600101610968565b505050808560c08501375061010082018360005b60058110156109b8578151835260209283019290910190600101610999565b50505095945050505050565b6000825160005b818110156109e557602081860181015185830152016109cb565b506000920191825250919050565b634e487b7160e01b600052601160045260246000fd5b600181815b80851115610a44578160001904821115610a2a57610a2a6109f3565b80851615610a3757918102915b93841c9390800290610a0e565b509250929050565b600082610a5b575060016108d4565b81610a68575060006108d4565b8160018114610a7e5760028114610a8857610aa4565b60019150506108d4565b60ff841115610a9957610a996109f3565b50506001821b6108d4565b5060208310610133831016604e8410600b8410161715610ac7575081810a6108d4565b610ad18383610a09565b8060001904821115610ae557610ae56109f3565b029392505050565b6000610af98383610a4c565b9392505050565b634e487b7160e01b600052601260045260246000fd5b600082610b2557610b25610b00565b500690565b60608101818460005b6002811015610b52578151835260209283019290910190600101610b33565b5050508260408301529392505050565b600060208284031215610b7457600080fd5b5051919050565b600082610b8a57610b8a610b00565b500490565b600060ff821660ff8103610ba557610ba56109f3565b60010192915050565b808201808211156108d4576108d46109f3565b8381526102a0810160208083018560005b600a811015610bef57815183529183019190830190600101610bd2565b50505061016083018460005b600a811015610c1b57815160ff1683529183019190830190600101610bfb565b5050505094935050505056fea2646970667358221220a0358547ef2e1a6fc4d541dbbb4c5086ac405daf0971c64c4342ee87e7ac92b064736f6c63430008110033","opcodes":"PUSH1 0xA PUSH1 0x3 DUP2 SWAP1 SSTORE PUSH8 0xDE0B6B3A7640000 PUSH1 0x4 SSTORE PUSH1 0x0 PUSH1 0x5 SSTORE PUSH2 0x1C0 PUSH1 0x40 MSTORE PUSH32 0x8CFD904A1564F728BAD463E11678C335BBE7BB55E73A07588B14F8BD04545C3D PUSH1 0x80 SWAP1 DUP2 MSTORE PUSH32 0x3A362132FF01C0F19143E7526B28C6FDCABECAAD0DFCDFDF6D8F23483B994384 PUSH1 0xA0 MSTORE PUSH32 0xCAFC0F3216ABFCCB1134117A825BA2E17388C9B09877B1FEE9873697C41DE044 PUSH1 0xC0 MSTORE PUSH32 0x52D21251F1B6967A0505130EBEA06B9D8E8CB000ABE492DF5259D6678B0E2153 PUSH1 0xE0 MSTORE PUSH32 0x1548DB067F3CF9A942C70C5CE0B6048806DD74E2B709F1D30E7A191548943A9D PUSH2 0x100 MSTORE PUSH32 0x1EA1A9099C5691137F1D3D1830867CDD75C536DFF279663AEFB7B49F7798F4CB PUSH2 0x120 MSTORE PUSH32 0x772DAC99AED444BE6218C8DA12C933163E165B31F1099B7869F4EC29BA4DA1C7 PUSH2 0x140 MSTORE PUSH32 0xC1C6314026AF83A766E1AD18D985AC243FADCF9C07932757904500E6CFF80B98 PUSH2 0x160 MSTORE PUSH32 0xA23D32762958399632E9E0B52D049042041484A30974A83254AF4E50893AD991 PUSH2 0x180 MSTORE PUSH32 0x7AE8404BBD3493825346A185473E48D1015672145BEF4CD06002212E65ED18CE PUSH2 0x1A0 MSTORE PUSH2 0x198 SWAP2 SWAP1 DUP2 PUSH2 0x1FC JUMP JUMPDEST POP CALLVALUE DUP1 ISZERO PUSH2 0x1A5 JUMPI PUSH1 0x0 DUP1 REVERT JUMPDEST POP PUSH1 0x40 MLOAD PUSH3 0xF0B CODESIZE SUB DUP1 PUSH3 0xF0B DUP4 CODECOPY DUP2 ADD PUSH1 0x40 DUP2 SWAP1 MSTORE PUSH2 0x1C6 SWAP2 PUSH2 0x26B JUMP JUMPDEST PUSH1 0x1 PUSH1 0x0 DUP2 SWAP1 SSTORE DUP1 SLOAD PUSH1 0x1 PUSH1 0x1 PUSH1 0xA0 SHL SUB SWAP4 DUP5 AND PUSH1 0x1 PUSH1 0x1 PUSH1 0xA0 SHL SUB NOT SWAP2 DUP3 AND OR SWAP1 SWAP2 SSTORE PUSH1 0x2 DUP1 SLOAD SWAP3 SWAP1 SWAP4 AND SWAP2 AND OR SWAP1 SSTORE PUSH2 0x29E JUMP JUMPDEST DUP3 PUSH1 0xA DUP2 ADD SWAP3 DUP3 ISZERO PUSH2 0x22A JUMPI SWAP2 PUSH1 0x20 MUL DUP3 ADD JUMPDEST DUP3 DUP2 GT ISZERO PUSH2 0x22A JUMPI DUP3 MLOAD DUP3 SSTORE SWAP2 PUSH1 0x20 ADD SWAP2 SWAP1 PUSH1 0x1 ADD SWAP1 PUSH2 0x20F JUMP JUMPDEST POP PUSH2 0x236 SWAP3 SWAP2 POP PUSH2 0x23A JUMP JUMPDEST POP SWAP1 JUMP JUMPDEST JUMPDEST DUP1 DUP3 GT ISZERO PUSH2 0x236 JUMPI PUSH1 0x0 DUP2 SSTORE PUSH1 0x1 ADD PUSH2 0x23B JUMP JUMPDEST DUP1 MLOAD PUSH1 0x1 PUSH1 0x1 PUSH1 0xA0 SHL SUB DUP2 AND DUP2 EQ PUSH2 0x266 JUMPI PUSH1 0x0 DUP1 REVERT JUMPDEST SWAP2 SWAP1 POP JUMP JUMPDEST PUSH1 0x0 DUP1 PUSH1 0x40 DUP4 DUP6 SUB SLT ISZERO PUSH2 0x27E JUMPI PUSH1 0x0 DUP1 REVERT JUMPDEST PUSH2 0x287 DUP4 PUSH2 0x24F JUMP JUMPDEST SWAP2 POP PUSH2 0x295 PUSH1 0x20 DUP5 ADD PUSH2 0x24F JUMP JUMPDEST SWAP1 POP SWAP3 POP SWAP3 SWAP1 POP JUMP JUMPDEST PUSH2 0xC5D DUP1 PUSH3 0x2AE PUSH1 0x0 CODECOPY PUSH1 0x0 RETURN INVALID PUSH1 0x80 PUSH1 0x40 MSTORE PUSH1 0x4 CALLDATASIZE LT PUSH2 0x86 JUMPI PUSH1 0x0 CALLDATALOAD PUSH1 0xE0 SHR DUP1 PUSH4 0x49CE8997 GT PUSH2 0x59 JUMPI DUP1 PUSH4 0x49CE8997 EQ PUSH2 0x13F JUMPI DUP1 PUSH4 0x8BCA6D16 EQ PUSH2 0x16F JUMPI DUP1 PUSH4 0xB8E79564 EQ PUSH2 0x185 JUMPI DUP1 PUSH4 0xC2B40AE4 EQ PUSH2 0x19B JUMPI DUP1 PUSH4 0xD5A7420D EQ PUSH2 0x1CB JUMPI PUSH1 0x0 DUP1 REVERT JUMPDEST DUP1 PUSH4 0x1F79A1E9 EQ PUSH2 0x8B JUMPI DUP1 PUSH4 0x28CF5CBA EQ PUSH2 0xD0 JUMPI DUP1 PUSH4 0x333D07A2 EQ PUSH2 0x106 JUMPI DUP1 PUSH4 0x45E0523F EQ PUSH2 0x11B JUMPI JUMPDEST PUSH1 0x0 DUP1 REVERT JUMPDEST CALLVALUE DUP1 ISZERO PUSH2 0x97 JUMPI PUSH1 0x0 DUP1 REVERT JUMPDEST POP PUSH2 0xBB PUSH2 0xA6 CALLDATASIZE PUSH1 0x4 PUSH2 0x8AA JUMP JUMPDEST PUSH1 0x8 PUSH1 0x20 MSTORE PUSH1 0x0 SWAP1 DUP2 MSTORE PUSH1 0x40 SWAP1 KECCAK256 SLOAD PUSH1 0xFF AND DUP2 JUMP JUMPDEST PUSH1 0x40 MLOAD SWAP1 ISZERO ISZERO DUP2 MSTORE PUSH1 0x20 ADD JUMPDEST PUSH1 0x40 MLOAD DUP1 SWAP2 SUB SWAP1 RETURN JUMPDEST CALLVALUE DUP1 ISZERO PUSH2 0xDC JUMPI PUSH1 0x0 DUP1 REVERT JUMPDEST POP PUSH2 0xEE PUSH2 0xEB CALLDATASIZE PUSH1 0x4 PUSH2 0x8AA JUMP JUMPDEST SWAP1 JUMP JUMPDEST PUSH1 0x40 MLOAD PUSH1 0x1 PUSH1 0x1 PUSH1 0xA0 SHL SUB SWAP1 SWAP2 AND DUP2 MSTORE PUSH1 0x20 ADD PUSH2 0xC7 JUMP JUMPDEST PUSH2 0x119 PUSH2 0x114 CALLDATASIZE PUSH1 0x4 PUSH2 0x8DA JUMP JUMPDEST PUSH2 0x1DE JUMP JUMPDEST STOP JUMPDEST CALLVALUE DUP1 ISZERO PUSH2 0x127 JUMPI PUSH1 0x0 DUP1 REVERT JUMPDEST POP PUSH2 0x131 PUSH1 0x5 SLOAD DUP2 JUMP JUMPDEST PUSH1 0x40 MLOAD SWAP1 DUP2 MSTORE PUSH1 0x20 ADD PUSH2 0xC7 JUMP JUMPDEST CALLVALUE DUP1 ISZERO PUSH2 0x14B JUMPI PUSH1 0x0 DUP1 REVERT JUMPDEST POP PUSH2 0xBB PUSH2 0x15A CALLDATASIZE PUSH1 0x4 PUSH2 0x8AA JUMP JUMPDEST PUSH1 0x9 PUSH1 0x20 MSTORE PUSH1 0x0 SWAP1 DUP2 MSTORE PUSH1 0x40 SWAP1 KECCAK256 SLOAD PUSH1 0xFF AND DUP2 JUMP JUMPDEST CALLVALUE DUP1 ISZERO PUSH2 0x17B JUMPI PUSH1 0x0 DUP1 REVERT JUMPDEST POP PUSH2 0x131 PUSH1 0x4 SLOAD DUP2 JUMP JUMPDEST CALLVALUE DUP1 ISZERO PUSH2 0x191 JUMPI PUSH1 0x0 DUP1 REVERT JUMPDEST POP PUSH2 0x131 PUSH1 0x3 SLOAD DUP2 JUMP JUMPDEST CALLVALUE DUP1 ISZERO PUSH2 0x1A7 JUMPI PUSH1 0x0 DUP1 REVERT JUMPDEST POP PUSH2 0xBB PUSH2 0x1B6 CALLDATASIZE PUSH1 0x4 PUSH2 0x8AA JUMP JUMPDEST PUSH1 0x6 PUSH1 0x20 MSTORE PUSH1 0x0 SWAP1 DUP2 MSTORE PUSH1 0x40 SWAP1 KECCAK256 SLOAD PUSH1 0xFF AND DUP2 JUMP JUMPDEST PUSH2 0x119 PUSH2 0x1D9 CALLDATASIZE PUSH1 0x4 PUSH2 0x8AA JUMP JUMPDEST PUSH2 0x4CB JUMP JUMPDEST PUSH2 0x1E6 PUSH2 0x814 JUMP JUMPDEST PUSH1 0x20 DUP1 DUP3 ADD CALLDATALOAD PUSH1 0x0 DUP2 DUP2 MSTORE PUSH1 0x8 SWAP1 SWAP3 MSTORE PUSH1 0x40 SWAP2 DUP3 SWAP1 KECCAK256 SLOAD DUP4 CALLDATALOAD SWAP3 DUP5 ADD CALLDATALOAD SWAP1 PUSH1 0x60 DUP6 ADD CALLDATALOAD SWAP1 PUSH1 0x80 DUP7 ADD CALLDATALOAD SWAP1 PUSH1 0xFF AND ISZERO PUSH2 0x255 JUMPI PUSH1 0x40 MLOAD PUSH3 0x461BCD PUSH1 0xE5 SHL DUP2 MSTORE PUSH1 0x20 PUSH1 0x4 DUP3 ADD MSTORE PUSH1 0xD PUSH1 0x24 DUP3 ADD MSTORE PUSH13 0x185B1C9958591E4B5CDC195B9D PUSH1 0x9A SHL PUSH1 0x44 DUP3 ADD MSTORE PUSH1 0x64 ADD JUMPDEST PUSH1 0x40 MLOAD DUP1 SWAP2 SUB SWAP1 REVERT JUMPDEST PUSH1 0x0 DUP6 DUP2 MSTORE PUSH1 0x6 PUSH1 0x20 MSTORE PUSH1 0x40 SWAP1 KECCAK256 SLOAD PUSH1 0xFF AND PUSH2 0x29E JUMPI PUSH1 0x40 MLOAD PUSH3 0x461BCD PUSH1 0xE5 SHL DUP2 MSTORE PUSH1 0x20 PUSH1 0x4 DUP3 ADD MSTORE PUSH1 0x8 PUSH1 0x24 DUP3 ADD MSTORE PUSH8 0x1B9BDB8B5C9BDBDD PUSH1 0xC2 SHL PUSH1 0x44 DUP3 ADD MSTORE PUSH1 0x64 ADD PUSH2 0x24C JUMP JUMPDEST PUSH1 0x2 SLOAD PUSH1 0x40 DUP1 MLOAD PUSH1 0xA0 DUP2 ADD DUP3 MSTORE DUP8 DUP2 MSTORE PUSH1 0x20 DUP2 ADD DUP8 SWAP1 MSTORE DUP1 DUP3 ADD DUP7 SWAP1 MSTORE PUSH1 0x60 DUP2 ADD DUP6 SWAP1 MSTORE PUSH1 0x80 DUP2 ADD DUP5 SWAP1 MSTORE SWAP1 MLOAD PUSH1 0x0 SWAP3 PUSH1 0x1 PUSH1 0x1 PUSH1 0xA0 SHL SUB AND SWAP2 PUSH2 0x2EB SWAP2 DUP14 SWAP2 DUP14 SWAP2 DUP14 SWAP2 SWAP1 PUSH1 0x24 ADD PUSH2 0x956 JUMP JUMPDEST PUSH1 0x40 DUP1 MLOAD PUSH1 0x1F NOT DUP2 DUP5 SUB ADD DUP2 MSTORE SWAP2 DUP2 MSTORE PUSH1 0x20 DUP3 ADD DUP1 MLOAD PUSH1 0x1 PUSH1 0x1 PUSH1 0xE0 SHL SUB AND PUSH4 0x34BAEAB9 PUSH1 0xE0 SHL OR SWAP1 MSTORE MLOAD PUSH2 0x320 SWAP2 SWAP1 PUSH2 0x9C4 JUMP JUMPDEST PUSH1 0x0 PUSH1 0x40 MLOAD DUP1 DUP4 SUB DUP2 PUSH1 0x0 DUP7 GAS CALL SWAP2 POP POP RETURNDATASIZE DUP1 PUSH1 0x0 DUP2 EQ PUSH2 0x35D JUMPI PUSH1 0x40 MLOAD SWAP2 POP PUSH1 0x1F NOT PUSH1 0x3F RETURNDATASIZE ADD AND DUP3 ADD PUSH1 0x40 MSTORE RETURNDATASIZE DUP3 MSTORE RETURNDATASIZE PUSH1 0x0 PUSH1 0x20 DUP5 ADD RETURNDATACOPY PUSH2 0x362 JUMP JUMPDEST PUSH1 0x60 SWAP2 POP JUMPDEST POP POP SWAP1 POP DUP1 PUSH2 0x3B3 JUMPI PUSH1 0x40 MLOAD PUSH3 0x461BCD PUSH1 0xE5 SHL DUP2 MSTORE PUSH1 0x20 PUSH1 0x4 DUP3 ADD MSTORE PUSH1 0x1C PUSH1 0x24 DUP3 ADD MSTORE PUSH32 0x696E76616C6964207A65726F206B6E6F776C656467652070726F6F6600000000 PUSH1 0x44 DUP3 ADD MSTORE PUSH1 0x64 ADD PUSH2 0x24C JUMP JUMPDEST PUSH1 0x0 DUP6 DUP2 MSTORE PUSH1 0x8 PUSH1 0x20 MSTORE PUSH1 0x40 DUP1 DUP3 KECCAK256 DUP1 SLOAD PUSH1 0xFF NOT AND PUSH1 0x1 OR SWAP1 SSTORE PUSH1 0x4 SLOAD SWAP1 MLOAD CALLER SWAP3 SWAP2 DUP4 SWAP2 DUP4 DUP2 DUP2 DUP2 DUP6 DUP8 GAS CALL SWAP3 POP POP POP RETURNDATASIZE DUP1 PUSH1 0x0 DUP2 EQ PUSH2 0x40F JUMPI PUSH1 0x40 MLOAD SWAP2 POP PUSH1 0x1F NOT PUSH1 0x3F RETURNDATASIZE ADD AND DUP3 ADD PUSH1 0x40 MSTORE RETURNDATASIZE DUP3 MSTORE RETURNDATASIZE PUSH1 0x0 PUSH1 0x20 DUP5 ADD RETURNDATACOPY PUSH2 0x414 JUMP JUMPDEST PUSH1 0x60 SWAP2 POP JUMPDEST POP POP SWAP1 POP DUP1 PUSH2 0x456 JUMPI PUSH1 0x40 MLOAD PUSH3 0x461BCD PUSH1 0xE5 SHL DUP2 MSTORE PUSH1 0x20 PUSH1 0x4 DUP3 ADD MSTORE PUSH1 0xE PUSH1 0x24 DUP3 ADD MSTORE PUSH14 0x1C185E5B595B9D0B59985A5B1959 PUSH1 0x92 SHL PUSH1 0x44 DUP3 ADD MSTORE PUSH1 0x64 ADD PUSH2 0x24C JUMP JUMPDEST PUSH1 0x40 DUP1 MLOAD CALLER DUP2 MSTORE PUSH1 0x20 DUP2 ADD DUP10 SWAP1 MSTORE PUSH1 0x1 PUSH1 0x1 PUSH1 0xA0 SHL SUB DUP1 DUP10 AND DUP3 DUP5 ADD MSTORE DUP8 AND PUSH1 0x60 DUP3 ADD MSTORE PUSH1 0x80 DUP2 ADD DUP7 SWAP1 MSTORE SWAP1 MLOAD DUP8 SWAP2 DUP8 SWAP2 PUSH32 0xD408C3F932CAAB677BA01C19FB215B088FA2E7A5786FB906B077AC53DF5CF040 SWAP2 DUP2 SWAP1 SUB PUSH1 0xA0 ADD SWAP1 LOG1 POP POP POP POP POP POP POP POP POP POP PUSH2 0x4C5 PUSH1 0x1 PUSH1 0x0 SSTORE JUMP JUMPDEST POP POP POP POP JUMP JUMPDEST PUSH2 0x4D3 PUSH2 0x814 JUMP JUMPDEST PUSH1 0x0 DUP2 DUP2 MSTORE PUSH1 0x9 PUSH1 0x20 MSTORE PUSH1 0x40 SWAP1 KECCAK256 SLOAD PUSH1 0xFF AND ISZERO PUSH2 0x532 JUMPI PUSH1 0x40 MLOAD PUSH3 0x461BCD PUSH1 0xE5 SHL DUP2 MSTORE PUSH1 0x20 PUSH1 0x4 DUP3 ADD MSTORE PUSH1 0x19 PUSH1 0x24 DUP3 ADD MSTORE PUSH32 0x6475706C696361746520636F6D6D69746D656E74206861736800000000000000 PUSH1 0x44 DUP3 ADD MSTORE PUSH1 0x64 ADD PUSH2 0x24C JUMP JUMPDEST PUSH1 0x3 SLOAD PUSH2 0x540 SWAP1 PUSH1 0x2 PUSH2 0xAED JUMP JUMPDEST PUSH1 0x5 SLOAD LT PUSH2 0x583 JUMPI PUSH1 0x40 MLOAD PUSH3 0x461BCD PUSH1 0xE5 SHL DUP2 MSTORE PUSH1 0x20 PUSH1 0x4 DUP3 ADD MSTORE PUSH1 0x10 PUSH1 0x24 DUP3 ADD MSTORE PUSH16 0x1D1A19481D1C9959481A5CC8199D5B1B PUSH1 0x82 SHL PUSH1 0x44 DUP3 ADD MSTORE PUSH1 0x64 ADD PUSH2 0x24C JUMP JUMPDEST PUSH1 0x0 PUSH2 0x58D PUSH2 0x86D JUMP JUMPDEST PUSH2 0x595 PUSH2 0x86D JUMP JUMPDEST PUSH1 0x5 SLOAD DUP5 PUSH1 0x0 DUP1 PUSH2 0x5A4 PUSH2 0x88C JUMP JUMPDEST PUSH1 0x0 JUMPDEST PUSH1 0x3 SLOAD DUP2 PUSH1 0xFF AND LT ISZERO PUSH2 0x770 JUMPI PUSH2 0x5BF PUSH1 0x2 DUP8 PUSH2 0xB16 JUMP JUMPDEST PUSH1 0x0 SUB PUSH2 0x63E JUMPI DUP5 SWAP4 POP PUSH1 0xA DUP2 PUSH1 0xFF AND PUSH1 0xA DUP2 LT PUSH2 0x5DF JUMPI PUSH2 0x5DF PUSH2 0x940 JUMP JUMPDEST ADD SLOAD SWAP3 POP PUSH1 0xA DUP2 PUSH1 0xFF AND PUSH1 0xA DUP2 LT PUSH2 0x5F9 JUMPI PUSH2 0x5F9 PUSH2 0x940 JUMP JUMPDEST ADD SLOAD DUP9 DUP3 PUSH1 0xFF AND PUSH1 0xA DUP2 LT PUSH2 0x610 JUMPI PUSH2 0x610 PUSH2 0x940 JUMP JUMPDEST PUSH1 0x20 MUL ADD MSTORE PUSH1 0x0 DUP8 PUSH1 0xFF DUP4 AND PUSH1 0xA DUP2 LT PUSH2 0x62C JUMPI PUSH2 0x62C PUSH2 0x940 JUMP JUMPDEST PUSH1 0xFF SWAP1 SWAP3 AND PUSH1 0x20 SWAP3 SWAP1 SWAP3 MUL ADD MSTORE PUSH2 0x694 JUMP JUMPDEST PUSH1 0xFF DUP2 AND PUSH1 0x0 DUP2 DUP2 MSTORE PUSH1 0x7 PUSH1 0x20 MSTORE PUSH1 0x40 SWAP1 KECCAK256 SLOAD SWAP5 POP DUP6 SWAP4 POP DUP5 SWAP1 DUP10 SWAP1 PUSH1 0xA DUP2 LT PUSH2 0x66A JUMPI PUSH2 0x66A PUSH2 0x940 JUMP JUMPDEST PUSH1 0x20 MUL ADD MSTORE PUSH1 0x1 DUP8 PUSH1 0xFF DUP4 AND PUSH1 0xA DUP2 LT PUSH2 0x686 JUMPI PUSH2 0x686 PUSH2 0x940 JUMP JUMPDEST PUSH1 0xFF SWAP1 SWAP3 AND PUSH1 0x20 SWAP3 SWAP1 SWAP3 MUL ADD MSTORE JUMPDEST PUSH1 0xFF DUP2 AND PUSH1 0x0 SWAP1 DUP2 MSTORE PUSH1 0x7 PUSH1 0x20 MSTORE PUSH1 0x40 DUP2 KECCAK256 DUP7 SWAP1 SSTORE DUP5 SWAP1 DUP4 SWAP1 PUSH1 0x20 MUL ADD MSTORE DUP3 DUP3 PUSH1 0x1 PUSH1 0x20 MUL ADD DUP2 DUP2 MSTORE POP POP PUSH1 0x0 PUSH1 0x1 PUSH1 0x0 SWAP1 SLOAD SWAP1 PUSH2 0x100 EXP SWAP1 DIV PUSH1 0x1 PUSH1 0x1 PUSH1 0xA0 SHL SUB AND PUSH1 0x1 PUSH1 0x1 PUSH1 0xA0 SHL SUB AND PUSH4 0xD622E5A4 PUSH3 0x249F0 DUP6 DUP15 PUSH1 0x40 MLOAD DUP5 PUSH4 0xFFFFFFFF AND PUSH1 0xE0 SHL DUP2 MSTORE PUSH1 0x4 ADD PUSH2 0x708 SWAP3 SWAP2 SWAP1 PUSH2 0xB2A JUMP JUMPDEST PUSH1 0x20 PUSH1 0x40 MLOAD DUP1 DUP4 SUB DUP2 DUP8 DUP7 STATICCALL ISZERO DUP1 ISZERO PUSH2 0x725 JUMPI RETURNDATASIZE PUSH1 0x0 DUP1 RETURNDATACOPY RETURNDATASIZE PUSH1 0x0 REVERT JUMPDEST POP POP POP POP POP PUSH1 0x40 MLOAD RETURNDATASIZE PUSH1 0x1F NOT PUSH1 0x1F DUP3 ADD AND DUP3 ADD DUP1 PUSH1 0x40 MSTORE POP DUP2 ADD SWAP1 PUSH2 0x74A SWAP2 SWAP1 PUSH2 0xB62 JUMP JUMPDEST SWAP6 POP DUP6 SWAP1 POP PUSH2 0x75A PUSH1 0x2 DUP9 PUSH2 0xB7B JUMP JUMPDEST SWAP7 POP POP DUP1 DUP1 PUSH2 0x768 SWAP1 PUSH2 0xB8F JUMP JUMPDEST SWAP2 POP POP PUSH2 0x5A7 JUMP JUMPDEST POP PUSH1 0x0 DUP5 DUP2 MSTORE PUSH1 0x6 PUSH1 0x20 MSTORE PUSH1 0x40 DUP2 KECCAK256 DUP1 SLOAD PUSH1 0xFF NOT AND PUSH1 0x1 SWAP1 DUP2 OR SWAP1 SWAP2 SSTORE PUSH1 0x5 DUP1 SLOAD SWAP7 SWAP11 POP DUP11 SWAP7 SWAP2 SWAP3 SWAP1 SWAP2 PUSH2 0x7A5 SWAP1 DUP5 SWAP1 PUSH2 0xBAE JUMP JUMPDEST SWAP1 SWAP2 SSTORE POP POP PUSH1 0x0 DUP10 DUP2 MSTORE PUSH1 0x9 PUSH1 0x20 MSTORE PUSH1 0x40 SWAP1 DUP2 SWAP1 KECCAK256 DUP1 SLOAD PUSH1 0xFF NOT AND PUSH1 0x1 OR SWAP1 SSTORE MLOAD PUSH32 0xBE4E22D3D7564A83A1240BC208430E93166C4BF27A6ED14C1078641746795CB3 SWAP1 PUSH2 0x7F7 SWAP1 DUP11 SWAP1 DUP11 SWAP1 DUP11 SWAP1 PUSH2 0xBC1 JUMP JUMPDEST PUSH1 0x40 MLOAD DUP1 SWAP2 SUB SWAP1 LOG1 POP POP POP POP POP POP POP POP PUSH2 0x811 PUSH1 0x1 PUSH1 0x0 SSTORE JUMP JUMPDEST POP JUMP JUMPDEST PUSH1 0x2 PUSH1 0x0 SLOAD SUB PUSH2 0x866 JUMPI PUSH1 0x40 MLOAD PUSH3 0x461BCD PUSH1 0xE5 SHL DUP2 MSTORE PUSH1 0x20 PUSH1 0x4 DUP3 ADD MSTORE PUSH1 0x1F PUSH1 0x24 DUP3 ADD MSTORE PUSH32 0x5265656E7472616E637947756172643A207265656E7472616E742063616C6C00 PUSH1 0x44 DUP3 ADD MSTORE PUSH1 0x64 ADD PUSH2 0x24C JUMP JUMPDEST PUSH1 0x2 PUSH1 0x0 SSTORE JUMP JUMPDEST PUSH1 0x40 MLOAD DUP1 PUSH2 0x140 ADD PUSH1 0x40 MSTORE DUP1 PUSH1 0xA SWAP1 PUSH1 0x20 DUP3 MUL DUP1 CALLDATASIZE DUP4 CALLDATACOPY POP SWAP2 SWAP3 SWAP2 POP POP JUMP JUMPDEST PUSH1 0x40 MLOAD DUP1 PUSH1 0x40 ADD PUSH1 0x40 MSTORE DUP1 PUSH1 0x2 SWAP1 PUSH1 0x20 DUP3 MUL DUP1 CALLDATASIZE DUP4 CALLDATACOPY POP SWAP2 SWAP3 SWAP2 POP POP JUMP JUMPDEST PUSH1 0x0 PUSH1 0x20 DUP3 DUP5 SUB SLT ISZERO PUSH2 0x8BC JUMPI PUSH1 0x0 DUP1 REVERT JUMPDEST POP CALLDATALOAD SWAP2 SWAP1 POP JUMP JUMPDEST DUP1 PUSH1 0x40 DUP2 ADD DUP4 LT ISZERO PUSH2 0x8D4 JUMPI PUSH1 0x0 DUP1 REVERT JUMPDEST SWAP3 SWAP2 POP POP JUMP JUMPDEST PUSH1 0x0 DUP1 PUSH1 0x0 DUP1 PUSH2 0x1A0 DUP1 DUP7 DUP9 SUB SLT ISZERO PUSH2 0x8F2 JUMPI PUSH1 0x0 DUP1 REVERT JUMPDEST PUSH2 0x8FC DUP8 DUP8 PUSH2 0x8C3 JUMP JUMPDEST SWAP5 POP PUSH1 0xC0 DUP7 ADD DUP8 DUP2 GT ISZERO PUSH2 0x90F JUMPI PUSH1 0x0 DUP1 REVERT JUMPDEST PUSH1 0x40 DUP8 ADD SWAP5 POP PUSH2 0x91F DUP9 DUP3 PUSH2 0x8C3 JUMP JUMPDEST SWAP4 POP POP DUP7 DUP2 DUP8 ADD GT ISZERO PUSH2 0x931 JUMPI PUSH1 0x0 DUP1 REVERT JUMPDEST POP SWAP3 SWAP6 SWAP2 SWAP5 POP SWAP3 PUSH2 0x100 ADD SWAP2 POP JUMP JUMPDEST PUSH4 0x4E487B71 PUSH1 0xE0 SHL PUSH1 0x0 MSTORE PUSH1 0x32 PUSH1 0x4 MSTORE PUSH1 0x24 PUSH1 0x0 REVERT JUMPDEST PUSH2 0x1A0 DUP2 ADD PUSH1 0x40 DUP1 DUP8 DUP5 CALLDATACOPY DUP1 DUP4 ADD DUP7 PUSH1 0x0 JUMPDEST PUSH1 0x2 DUP2 LT ISZERO PUSH2 0x985 JUMPI DUP4 DUP3 DUP5 CALLDATACOPY SWAP2 DUP4 ADD SWAP2 SWAP1 DUP4 ADD SWAP1 PUSH1 0x1 ADD PUSH2 0x968 JUMP JUMPDEST POP POP POP DUP1 DUP6 PUSH1 0xC0 DUP6 ADD CALLDATACOPY POP PUSH2 0x100 DUP3 ADD DUP4 PUSH1 0x0 JUMPDEST PUSH1 0x5 DUP2 LT ISZERO PUSH2 0x9B8 JUMPI DUP2 MLOAD DUP4 MSTORE PUSH1 0x20 SWAP3 DUP4 ADD SWAP3 SWAP1 SWAP2 ADD SWAP1 PUSH1 0x1 ADD PUSH2 0x999 JUMP JUMPDEST POP POP POP SWAP6 SWAP5 POP POP POP POP POP JUMP JUMPDEST PUSH1 0x0 DUP3 MLOAD PUSH1 0x0 JUMPDEST DUP2 DUP2 LT ISZERO PUSH2 0x9E5 JUMPI PUSH1 0x20 DUP2 DUP7 ADD DUP2 ADD MLOAD DUP6 DUP4 ADD MSTORE ADD PUSH2 0x9CB JUMP JUMPDEST POP PUSH1 0x0 SWAP3 ADD SWAP2 DUP3 MSTORE POP SWAP2 SWAP1 POP JUMP JUMPDEST PUSH4 0x4E487B71 PUSH1 0xE0 SHL PUSH1 0x0 MSTORE PUSH1 0x11 PUSH1 0x4 MSTORE PUSH1 0x24 PUSH1 0x0 REVERT JUMPDEST PUSH1 0x1 DUP2 DUP2 JUMPDEST DUP1 DUP6 GT ISZERO PUSH2 0xA44 JUMPI DUP2 PUSH1 0x0 NOT DIV DUP3 GT ISZERO PUSH2 0xA2A JUMPI PUSH2 0xA2A PUSH2 0x9F3 JUMP JUMPDEST DUP1 DUP6 AND ISZERO PUSH2 0xA37 JUMPI SWAP2 DUP2 MUL SWAP2 JUMPDEST SWAP4 DUP5 SHR SWAP4 SWAP1 DUP1 MUL SWAP1 PUSH2 0xA0E JUMP JUMPDEST POP SWAP3 POP SWAP3 SWAP1 POP JUMP JUMPDEST PUSH1 0x0 DUP3 PUSH2 0xA5B JUMPI POP PUSH1 0x1 PUSH2 0x8D4 JUMP JUMPDEST DUP2 PUSH2 0xA68 JUMPI POP PUSH1 0x0 PUSH2 0x8D4 JUMP JUMPDEST DUP2 PUSH1 0x1 DUP2 EQ PUSH2 0xA7E JUMPI PUSH1 0x2 DUP2 EQ PUSH2 0xA88 JUMPI PUSH2 0xAA4 JUMP JUMPDEST PUSH1 0x1 SWAP2 POP POP PUSH2 0x8D4 JUMP JUMPDEST PUSH1 0xFF DUP5 GT ISZERO PUSH2 0xA99 JUMPI PUSH2 0xA99 PUSH2 0x9F3 JUMP JUMPDEST POP POP PUSH1 0x1 DUP3 SHL PUSH2 0x8D4 JUMP JUMPDEST POP PUSH1 0x20 DUP4 LT PUSH2 0x133 DUP4 LT AND PUSH1 0x4E DUP5 LT PUSH1 0xB DUP5 LT AND OR ISZERO PUSH2 0xAC7 JUMPI POP DUP2 DUP2 EXP PUSH2 0x8D4 JUMP JUMPDEST PUSH2 0xAD1 DUP4 DUP4 PUSH2 0xA09 JUMP JUMPDEST DUP1 PUSH1 0x0 NOT DIV DUP3 GT ISZERO PUSH2 0xAE5 JUMPI PUSH2 0xAE5 PUSH2 0x9F3 JUMP JUMPDEST MUL SWAP4 SWAP3 POP POP POP JUMP JUMPDEST PUSH1 0x0 PUSH2 0xAF9 DUP4 DUP4 PUSH2 0xA4C JUMP JUMPDEST SWAP4 SWAP3 POP POP POP JUMP JUMPDEST PUSH4 0x4E487B71 PUSH1 0xE0 SHL PUSH1 0x0 MSTORE PUSH1 0x12 PUSH1 0x4 MSTORE PUSH1 0x24 PUSH1 0x0 REVERT JUMPDEST PUSH1 0x0 DUP3 PUSH2 0xB25 JUMPI PUSH2 0xB25 PUSH2 0xB00 JUMP JUMPDEST POP MOD SWAP1 JUMP JUMPDEST PUSH1 0x60 DUP2 ADD DUP2 DUP5 PUSH1 0x0 JUMPDEST PUSH1 0x2 DUP2 LT ISZERO PUSH2 0xB52 JUMPI DUP2 MLOAD DUP4 MSTORE PUSH1 0x20 SWAP3 DUP4 ADD SWAP3 SWAP1 SWAP2 ADD SWAP1 PUSH1 0x1 ADD PUSH2 0xB33 JUMP JUMPDEST POP POP POP DUP3 PUSH1 0x40 DUP4 ADD MSTORE SWAP4 SWAP3 POP POP POP JUMP JUMPDEST PUSH1 0x0 PUSH1 0x20 DUP3 DUP5 SUB SLT ISZERO PUSH2 0xB74 JUMPI PUSH1 0x0 DUP1 REVERT JUMPDEST POP MLOAD SWAP2 SWAP1 POP JUMP JUMPDEST PUSH1 0x0 DUP3 PUSH2 0xB8A JUMPI PUSH2 0xB8A PUSH2 0xB00 JUMP JUMPDEST POP DIV SWAP1 JUMP JUMPDEST PUSH1 0x0 PUSH1 0xFF DUP3 AND PUSH1 0xFF DUP2 SUB PUSH2 0xBA5 JUMPI PUSH2 0xBA5 PUSH2 0x9F3 JUMP JUMPDEST PUSH1 0x1 ADD SWAP3 SWAP2 POP POP JUMP JUMPDEST DUP1 DUP3 ADD DUP1 DUP3 GT ISZERO PUSH2 0x8D4 JUMPI PUSH2 0x8D4 PUSH2 0x9F3 JUMP JUMPDEST DUP4 DUP2 MSTORE PUSH2 0x2A0 DUP2 ADD PUSH1 0x20 DUP1 DUP4 ADD DUP6 PUSH1 0x0 JUMPDEST PUSH1 0xA DUP2 LT ISZERO PUSH2 0xBEF JUMPI DUP2 MLOAD DUP4 MSTORE SWAP2 DUP4 ADD SWAP2 SWAP1 DUP4 ADD SWAP1 PUSH1 0x1 ADD PUSH2 0xBD2 JUMP JUMPDEST POP POP POP PUSH2 0x160 DUP4 ADD DUP5 PUSH1 0x0 JUMPDEST PUSH1 0xA DUP2 LT ISZERO PUSH2 0xC1B JUMPI DUP2 MLOAD PUSH1 0xFF AND DUP4 MSTORE SWAP2 DUP4 ADD SWAP2 SWAP1 DUP4 ADD SWAP1 PUSH1 0x1 ADD PUSH2 0xBFB JUMP JUMPDEST POP POP POP POP SWAP5 SWAP4 POP POP POP POP JUMP INVALID LOG2 PUSH5 0x6970667358 0x22 SLT KECCAK256 LOG0 CALLDATALOAD DUP6 SELFBALANCE 0xEF 0x2E BYTE PUSH16 0xC4D541DBBB4C5086AC405DAF0971C64C NUMBER TIMESTAMP 0xEE DUP8 0xE7 0xAC SWAP3 0xB0 PUSH5 0x736F6C6343 STOP ADDMOD GT STOP CALLER "},"methodIdentifiers":{"agreement(uint256)":"d5a7420d","commitments(uint256)":"49ce8997","denomination()":"8bca6d16","evaluate(uint256[2],uint256[2][2],uint256[2],uint256[5])":"333d07a2","nextLeafIdx()":"45e0523f","nullifierHashes(uint256)":"1f79a1e9","roots(uint256)":"c2b40ae4","treeLevel()":"b8e79564","uintToAddress(uint256)":"28cf5cba"}}}}}