{"contracts/verifier.sol":{"Groth16Verifier":{"abi":[{"inputs":[{"internalType":"uint256[2]","name":"_pA","type":"uint256[2]"},{"internalType":"uint256[2][2]","name":"_pB","type":"uint256[2][2]"},{"internalType":"uint256[2]","name":"_pC","type":"uint256[2]"},{"internalType":"uint256[5]","name":"_pubSignals","type":"uint256[5]"}],"name":"verifyProof","outputs":[{"internalType":"bool","name":"","type":"bool"}],"stateMutability":"view","type":"function"}],"evm":{"bytecode":{"linkReferences":{},"object":"608060405234801561001057600080fd5b506106df806100206000396000f3fe608060405234801561001057600080fd5b506004361061002b5760003560e01c806334baeab914610030575b600080fd5b61004361003e366004610643565b610057565b604051901515815260200160405180910390f35b60006105ba565b7f30644e72e131a029b85045b68181585d2833e84879b9709143e1f593f0000001811061008f576000805260206000f35b50565b600060405183815284602082015285604082015260408160608360076107d05a03fa9150816100c5576000805260206000f35b825160408201526020830151606082015260408360808360066107d05a03fa915050806100f6576000805260206000f35b5050505050565b7f2b809f970df6f2a3e0810be9427aa639fb9f55e59a20afd2e08105a7abe7dc5785527f0c404b781ae14e2ecf3b8fab6df3dc98f251de5f72b96a200ad541339677379a60208601526000608086018661019a87357f09f2d99c03d41ae05c978b80da08fe32fe04a0a386127306b2c7823554e7ee717f14c4be3f1cc70c061490f69e5360d709c41659a69b5f51bd99e71a30a923e5d084610092565b6101ea60208801357f26677530a2dab1b63cfa3df4be46fa035393568cda65378704c6d8fa438c822f7f0d87783d75c13552397186427813b20494df2563d7c84439fc969867ae2694ee84610092565b61023a60408801357f29280ef9d169a92f19470c00ad0c022596067cb4b948a111cb131216848bfa1c7f0e7c3770ac509c9da7014734a1409f62316c192fcb40afdc77b6e31499733e7884610092565b61028a60608801357f0f3459d226a8683cb268607f2bf254211cc790c827fdf788a1196887c0f507f77f0c459432a7fee00cb0b7313bddf2f9f6e56a0c948d3bf0f023e94e010562a5c084610092565b6102da60808801357f2f5ded45838c2b8b7f031199ece4693cb8e3c48fc79bb7200e4d7705faa6ddfd7f232f45973013bde5d26065a0b089fc5021f4a0e46484e68d803712644dae5ecb84610092565b50823581527f30644e72e131a029b85045b68181585d97816a916871ca8d3c208c16d87cfd4760208401357f30644e72e131a029b85045b68181585d97816a916871ca8d3c208c16d87cfd4703066020820152833560408201526020840135606082015260408401356080820152606084013560a08201527f0115334e599a7dbeb4a668767594a2fec38dba54c8792079b8e9dda1ca0c754d60c08201527f135f504bfa1f77cdecafb3c9c8cd730ce1034c3b235d0e22e7ed161b7d3c491c60e08201527f2f0b3193a88cd67023d896217031df2278c31f52ab7768232a8239148b4e62126101008201527f0f290370d6d38f863bc49ba5854adaba8209c36c2444949247050717fdf1be5f6101208201527f29ff430cffc819674acf16aa75eb9ea0a04b431297d7b357cbca41e7978633f46101408201527f04cb606e83bc89cb2067e457e45fab5afc032cd3d28d6ab0cf9e8fef48a81d12610160820152600087015161018082015260206000018701516101a08201527f198e9393920d483a7260bfb731fb5d25f1aa493335a9e71297e485b7aef312c26101c08201527f1800deef121f1e76426a00665e5c4479674322d4f75edadd46debd5cd992f6ed6101e08201527f090689d0585ff075ec9e99ad690c3395bc4b313370b38ef355acdadcd122975b6102008201527f12c85ea5db8c6deb4aab71808dcb408fe3d1e7690c43d37b4ce6cc0166fa7daa610220820152843561024082015260208501356102608201527f159e45502cdd0e57384ab771771e910ebde68b4182248b69feaca3787aafffab6102808201527f10b65466625d90a9cd0f80df9a10c34f4db42284ef38db5cd67dfb0321ca4c916102a08201527f268781ef785750e69bef4550fecae201c2b65f245b7f776d7a885fd6f9775cc66102c08201527f07480a96847f45f8d2b1b36ee814ad29aa1d686c86b0df8de6e695242eed7e4e6102e08201526020816103008360086107d05a03fa9051169695505050505050565b60405161038081016040526105d2600084013561005e565b6105df602084013561005e565b6105ec604084013561005e565b6105f9606084013561005e565b610606608084013561005e565b61061360a084013561005e565b610620818486888a6100fd565b90508060005260206000f35b806040810183101561063d57600080fd5b92915050565b6000806000806101a080868803121561065b57600080fd5b610665878761062c565b945060c086018781111561067857600080fd5b604087019450610688888261062c565b93505086818701111561069a57600080fd5b5092959194509261010001915056fea26469706673582212201ba98cd1a37ae7cc800aba8eb1953487440aad0735c9c82fb4766b8d42690c8864736f6c63430008110033","opcodes":"PUSH1 0x80 PUSH1 0x40 MSTORE CALLVALUE DUP1 ISZERO PUSH2 0x10 JUMPI PUSH1 0x0 DUP1 REVERT JUMPDEST POP PUSH2 0x6DF DUP1 PUSH2 0x20 PUSH1 0x0 CODECOPY PUSH1 0x0 RETURN INVALID PUSH1 0x80 PUSH1 0x40 MSTORE CALLVALUE DUP1 ISZERO PUSH2 0x10 JUMPI PUSH1 0x0 DUP1 REVERT JUMPDEST POP PUSH1 0x4 CALLDATASIZE LT PUSH2 0x2B JUMPI PUSH1 0x0 CALLDATALOAD PUSH1 0xE0 SHR DUP1 PUSH4 0x34BAEAB9 EQ PUSH2 0x30 JUMPI JUMPDEST PUSH1 0x0 DUP1 REVERT JUMPDEST PUSH2 0x43 PUSH2 0x3E CALLDATASIZE PUSH1 0x4 PUSH2 0x643 JUMP JUMPDEST PUSH2 0x57 JUMP JUMPDEST PUSH1 0x40 MLOAD SWAP1 ISZERO ISZERO DUP2 MSTORE PUSH1 0x20 ADD PUSH1 0x40 MLOAD DUP1 SWAP2 SUB SWAP1 RETURN JUMPDEST PUSH1 0x0 PUSH2 0x5BA JUMP JUMPDEST PUSH32 0x30644E72E131A029B85045B68181585D2833E84879B9709143E1F593F0000001 DUP2 LT PUSH2 0x8F JUMPI PUSH1 0x0 DUP1 MSTORE PUSH1 0x20 PUSH1 0x0 RETURN JUMPDEST POP JUMP JUMPDEST PUSH1 0x0 PUSH1 0x40 MLOAD DUP4 DUP2 MSTORE DUP5 PUSH1 0x20 DUP3 ADD MSTORE DUP6 PUSH1 0x40 DUP3 ADD MSTORE PUSH1 0x40 DUP2 PUSH1 0x60 DUP4 PUSH1 0x7 PUSH2 0x7D0 GAS SUB STATICCALL SWAP2 POP DUP2 PUSH2 0xC5 JUMPI PUSH1 0x0 DUP1 MSTORE PUSH1 0x20 PUSH1 0x0 RETURN JUMPDEST DUP3 MLOAD PUSH1 0x40 DUP3 ADD MSTORE PUSH1 0x20 DUP4 ADD MLOAD PUSH1 0x60 DUP3 ADD MSTORE PUSH1 0x40 DUP4 PUSH1 0x80 DUP4 PUSH1 0x6 PUSH2 0x7D0 GAS SUB STATICCALL SWAP2 POP POP DUP1 PUSH2 0xF6 JUMPI PUSH1 0x0 DUP1 MSTORE PUSH1 0x20 PUSH1 0x0 RETURN JUMPDEST POP POP POP POP POP JUMP JUMPDEST PUSH32 0x2B809F970DF6F2A3E0810BE9427AA639FB9F55E59A20AFD2E08105A7ABE7DC57 DUP6 MSTORE PUSH32 0xC404B781AE14E2ECF3B8FAB6DF3DC98F251DE5F72B96A200AD541339677379A PUSH1 0x20 DUP7 ADD MSTORE PUSH1 0x0 PUSH1 0x80 DUP7 ADD DUP7 PUSH2 0x19A DUP8 CALLDATALOAD PUSH32 0x9F2D99C03D41AE05C978B80DA08FE32FE04A0A386127306B2C7823554E7EE71 PUSH32 0x14C4BE3F1CC70C061490F69E5360D709C41659A69B5F51BD99E71A30A923E5D0 DUP5 PUSH2 0x92 JUMP JUMPDEST PUSH2 0x1EA PUSH1 0x20 DUP9 ADD CALLDATALOAD PUSH32 0x26677530A2DAB1B63CFA3DF4BE46FA035393568CDA65378704C6D8FA438C822F PUSH32 0xD87783D75C13552397186427813B20494DF2563D7C84439FC969867AE2694EE DUP5 PUSH2 0x92 JUMP JUMPDEST PUSH2 0x23A PUSH1 0x40 DUP9 ADD CALLDATALOAD PUSH32 0x29280EF9D169A92F19470C00AD0C022596067CB4B948A111CB131216848BFA1C PUSH32 0xE7C3770AC509C9DA7014734A1409F62316C192FCB40AFDC77B6E31499733E78 DUP5 PUSH2 0x92 JUMP JUMPDEST PUSH2 0x28A PUSH1 0x60 DUP9 ADD CALLDATALOAD PUSH32 0xF3459D226A8683CB268607F2BF254211CC790C827FDF788A1196887C0F507F7 PUSH32 0xC459432A7FEE00CB0B7313BDDF2F9F6E56A0C948D3BF0F023E94E010562A5C0 DUP5 PUSH2 0x92 JUMP JUMPDEST PUSH2 0x2DA PUSH1 0x80 DUP9 ADD CALLDATALOAD PUSH32 0x2F5DED45838C2B8B7F031199ECE4693CB8E3C48FC79BB7200E4D7705FAA6DDFD PUSH32 0x232F45973013BDE5D26065A0B089FC5021F4A0E46484E68D803712644DAE5ECB DUP5 PUSH2 0x92 JUMP JUMPDEST POP DUP3 CALLDATALOAD DUP2 MSTORE PUSH32 0x30644E72E131A029B85045B68181585D97816A916871CA8D3C208C16D87CFD47 PUSH1 0x20 DUP5 ADD CALLDATALOAD PUSH32 0x30644E72E131A029B85045B68181585D97816A916871CA8D3C208C16D87CFD47 SUB MOD PUSH1 0x20 DUP3 ADD MSTORE DUP4 CALLDATALOAD PUSH1 0x40 DUP3 ADD MSTORE PUSH1 0x20 DUP5 ADD CALLDATALOAD PUSH1 0x60 DUP3 ADD MSTORE PUSH1 0x40 DUP5 ADD CALLDATALOAD PUSH1 0x80 DUP3 ADD MSTORE PUSH1 0x60 DUP5 ADD CALLDATALOAD PUSH1 0xA0 DUP3 ADD MSTORE PUSH32 0x115334E599A7DBEB4A668767594A2FEC38DBA54C8792079B8E9DDA1CA0C754D PUSH1 0xC0 DUP3 ADD MSTORE PUSH32 0x135F504BFA1F77CDECAFB3C9C8CD730CE1034C3B235D0E22E7ED161B7D3C491C PUSH1 0xE0 DUP3 ADD MSTORE PUSH32 0x2F0B3193A88CD67023D896217031DF2278C31F52AB7768232A8239148B4E6212 PUSH2 0x100 DUP3 ADD MSTORE PUSH32 0xF290370D6D38F863BC49BA5854ADABA8209C36C2444949247050717FDF1BE5F PUSH2 0x120 DUP3 ADD MSTORE PUSH32 0x29FF430CFFC819674ACF16AA75EB9EA0A04B431297D7B357CBCA41E7978633F4 PUSH2 0x140 DUP3 ADD MSTORE PUSH32 0x4CB606E83BC89CB2067E457E45FAB5AFC032CD3D28D6AB0CF9E8FEF48A81D12 PUSH2 0x160 DUP3 ADD MSTORE PUSH1 0x0 DUP8 ADD MLOAD PUSH2 0x180 DUP3 ADD MSTORE PUSH1 0x20 PUSH1 0x0 ADD DUP8 ADD MLOAD PUSH2 0x1A0 DUP3 ADD MSTORE PUSH32 0x198E9393920D483A7260BFB731FB5D25F1AA493335A9E71297E485B7AEF312C2 PUSH2 0x1C0 DUP3 ADD MSTORE PUSH32 0x1800DEEF121F1E76426A00665E5C4479674322D4F75EDADD46DEBD5CD992F6ED PUSH2 0x1E0 DUP3 ADD MSTORE PUSH32 0x90689D0585FF075EC9E99AD690C3395BC4B313370B38EF355ACDADCD122975B PUSH2 0x200 DUP3 ADD MSTORE PUSH32 0x12C85EA5DB8C6DEB4AAB71808DCB408FE3D1E7690C43D37B4CE6CC0166FA7DAA PUSH2 0x220 DUP3 ADD MSTORE DUP5 CALLDATALOAD PUSH2 0x240 DUP3 ADD MSTORE PUSH1 0x20 DUP6 ADD CALLDATALOAD PUSH2 0x260 DUP3 ADD MSTORE PUSH32 0x159E45502CDD0E57384AB771771E910EBDE68B4182248B69FEACA3787AAFFFAB PUSH2 0x280 DUP3 ADD MSTORE PUSH32 0x10B65466625D90A9CD0F80DF9A10C34F4DB42284EF38DB5CD67DFB0321CA4C91 PUSH2 0x2A0 DUP3 ADD MSTORE PUSH32 0x268781EF785750E69BEF4550FECAE201C2B65F245B7F776D7A885FD6F9775CC6 PUSH2 0x2C0 DUP3 ADD MSTORE PUSH32 0x7480A96847F45F8D2B1B36EE814AD29AA1D686C86B0DF8DE6E695242EED7E4E PUSH2 0x2E0 DUP3 ADD MSTORE PUSH1 0x20 DUP2 PUSH2 0x300 DUP4 PUSH1 0x8 PUSH2 0x7D0 GAS SUB STATICCALL SWAP1 MLOAD AND SWAP7 SWAP6 POP POP POP POP POP POP JUMP JUMPDEST PUSH1 0x40 MLOAD PUSH2 0x380 DUP2 ADD PUSH1 0x40 MSTORE PUSH2 0x5D2 PUSH1 0x0 DUP5 ADD CALLDATALOAD PUSH2 0x5E JUMP JUMPDEST PUSH2 0x5DF PUSH1 0x20 DUP5 ADD CALLDATALOAD PUSH2 0x5E JUMP JUMPDEST PUSH2 0x5EC PUSH1 0x40 DUP5 ADD CALLDATALOAD PUSH2 0x5E JUMP JUMPDEST PUSH2 0x5F9 PUSH1 0x60 DUP5 ADD CALLDATALOAD PUSH2 0x5E JUMP JUMPDEST PUSH2 0x606 PUSH1 0x80 DUP5 ADD CALLDATALOAD PUSH2 0x5E JUMP JUMPDEST PUSH2 0x613 PUSH1 0xA0 DUP5 ADD CALLDATALOAD PUSH2 0x5E JUMP JUMPDEST PUSH2 0x620 DUP2 DUP5 DUP7 DUP9 DUP11 PUSH2 0xFD JUMP JUMPDEST SWAP1 POP DUP1 PUSH1 0x0 MSTORE PUSH1 0x20 PUSH1 0x0 RETURN JUMPDEST DUP1 PUSH1 0x40 DUP2 ADD DUP4 LT ISZERO PUSH2 0x63D JUMPI PUSH1 0x0 DUP1 REVERT JUMPDEST SWAP3 SWAP2 POP POP JUMP JUMPDEST PUSH1 0x0 DUP1 PUSH1 0x0 DUP1 PUSH2 0x1A0 DUP1 DUP7 DUP9 SUB SLT ISZERO PUSH2 0x65B JUMPI PUSH1 0x0 DUP1 REVERT JUMPDEST PUSH2 0x665 DUP8 DUP8 PUSH2 0x62C JUMP JUMPDEST SWAP5 POP PUSH1 0xC0 DUP7 ADD DUP8 DUP2 GT ISZERO PUSH2 0x678 JUMPI PUSH1 0x0 DUP1 REVERT JUMPDEST PUSH1 0x40 DUP8 ADD SWAP5 POP PUSH2 0x688 DUP9 DUP3 PUSH2 0x62C JUMP JUMPDEST SWAP4 POP POP DUP7 DUP2 DUP8 ADD GT ISZERO PUSH2 0x69A JUMPI PUSH1 0x0 DUP1 REVERT JUMPDEST POP SWAP3 SWAP6 SWAP2 SWAP5 POP SWAP3 PUSH2 0x100 ADD SWAP2 POP JUMP INVALID LOG2 PUSH5 0x6970667358 0x22 SLT KECCAK256 SHL 0xA9 DUP13 0xD1 LOG3 PUSH27 0xE7CC800ABA8EB1953487440AAD0735C9C82FB4766B8D42690C8864 PUSH20 0x6F6C634300081100330000000000000000000000 "},"methodIdentifiers":{"verifyProof(uint256[2],uint256[2][2],uint256[2],uint256[5])":"34baeab9"}}}}}