{"contracts/zkAgreement.sol":{"zkAgreement":{"abi":[{"inputs":[{"internalType":"address","name":"_hasher","type":"address"},{"internalType":"address","name":"_groth16Verifier","type":"address"},{"internalType":"address","name":"_plonkVerifier","type":"address"}],"stateMutability":"nonpayable","type":"constructor"},{"anonymous":false,"inputs":[{"indexed":false,"internalType":"uint256","name":"root","type":"uint256"},{"indexed":false,"internalType":"uint256[10]","name":"hashPairings","type":"uint256[10]"},{"indexed":false,"internalType":"uint8[10]","name":"pairDirection","type":"uint8[10]"},{"indexed":false,"internalType":"uint256","name":"commitmentValue","type":"uint256"}],"name":"Agreement","type":"event"},{"anonymous":false,"inputs":[{"indexed":false,"internalType":"address","name":"evaluator","type":"address"},{"indexed":false,"internalType":"uint256","name":"nullifierHash","type":"uint256"},{"indexed":false,"internalType":"address","name":"sender","type":"address"},{"indexed":false,"internalType":"address","name":"recipient","type":"address"},{"indexed":false,"internalType":"uint256","name":"result","type":"uint256"}],"name":"Evaluate","type":"event"},{"inputs":[{"internalType":"uint256","name":"_commitment","type":"uint256"}],"name":"agreement","outputs":[],"stateMutability":"payable","type":"function"},{"inputs":[{"internalType":"uint256","name":"","type":"uint256"}],"name":"commitments","outputs":[{"internalType":"bool","name":"","type":"bool"}],"stateMutability":"view","type":"function"},{"inputs":[],"name":"denomination","outputs":[{"internalType":"uint256","name":"","type":"uint256"}],"stateMutability":"view","type":"function"},{"inputs":[{"internalType":"uint256[2]","name":"_pA","type":"uint256[2]"},{"internalType":"uint256[2][2]","name":"_pB","type":"uint256[2][2]"},{"internalType":"uint256[2]","name":"_pC","type":"uint256[2]"},{"internalType":"uint256[5]","name":"_pubSignals","type":"uint256[5]"},{"internalType":"uint256","name":"commitmentValue","type":"uint256"}],"name":"evaluateGroth16","outputs":[],"stateMutability":"payable","type":"function"},{"inputs":[{"internalType":"uint256[24]","name":"_proof","type":"uint256[24]"},{"internalType":"uint256[5]","name":"_pubSignals","type":"uint256[5]"},{"internalType":"uint256","name":"commitmentValue","type":"uint256"}],"name":"evaluatePlonk","outputs":[],"stateMutability":"payable","type":"function"},{"inputs":[],"name":"nextLeafIdx","outputs":[{"internalType":"uint256","name":"","type":"uint256"}],"stateMutability":"view","type":"function"},{"inputs":[{"internalType":"uint256","name":"","type":"uint256"}],"name":"nullifierHashes","outputs":[{"internalType":"bool","name":"","type":"bool"}],"stateMutability":"view","type":"function"},{"inputs":[{"internalType":"uint256","name":"","type":"uint256"}],"name":"roots","outputs":[{"internalType":"bool","name":"","type":"bool"}],"stateMutability":"view","type":"function"},{"inputs":[],"name":"treeLevel","outputs":[{"internalType":"uint256","name":"","type":"uint256"}],"stateMutability":"view","type":"function"},{"inputs":[{"internalType":"uint256","name":"value","type":"uint256"}],"name":"uintToAddress","outputs":[{"internalType":"address","name":"","type":"address"}],"stateMutability":"pure","type":"function"}],"evm":{"bytecode":{"linkReferences":{},"object":"600a600481905567016345785d8a000060055560006006556101c06040527f8cfd904a1564f728bad463e11678c335bbe7bb55e73a07588b14f8bd04545c3d60809081527f3a362132ff01c0f19143e7526b28c6fdcabecaad0dfcdfdf6d8f23483b99438460a0527fcafc0f3216abfccb1134117a825ba2e17388c9b09877b1fee9873697c41de04460c0527f52d21251f1b6967a0505130ebea06b9d8e8cb000abe492df5259d6678b0e215360e0527f1548db067f3cf9a942c70c5ce0b6048806dd74e2b709f1d30e7a191548943a9d610100527f1ea1a9099c5691137f1d3d1830867cdd75c536dff279663aefb7b49f7798f4cb610120527f772dac99aed444be6218c8da12c933163e165b31f1099b7869f4ec29ba4da1c7610140527fc1c6314026af83a766e1ad18d985ac243fadcf9c07932757904500e6cff80b98610160527fa23d32762958399632e9e0b52d049042041484a30974a83254af4e50893ad991610180527f7ae8404bbd3493825346a185473e48d1015672145bef4cd06002212e65ed18ce6101a0526200019c91600b919062000215565b50348015620001aa57600080fd5b50604051620014a4380380620014a4833981016040819052620001cd916200028c565b6001600081905580546001600160a01b039485166001600160a01b031991821617909155600280549385169382169390931790925560038054919093169116179055620002d6565b82600a810192821562000246579160200282015b828111156200024657825182559160200191906001019062000229565b506200025492915062000258565b5090565b5b8082111562000254576000815560010162000259565b80516001600160a01b03811681146200028757600080fd5b919050565b600080600060608486031215620002a257600080fd5b620002ad846200026f565b9250620002bd602085016200026f565b9150620002cd604085016200026f565b90509250925092565b6111be80620002e66000396000f3fe6080604052600436106100915760003560e01c8063b2673a3b11610059578063b2673a3b1461017b578063b8e7956414610190578063c2b40ae4146101a6578063d5a7420d146101d6578063dea4c9cf146101e957600080fd5b80631f79a1e91461009657806328cf5cba146100db57806345e0523f1461011157806349ce8997146101355780638bca6d1614610165575b600080fd5b3480156100a257600080fd5b506100c66100b1366004610d3b565b60096020526000908152604090205460ff1681565b60405190151581526020015b60405180910390f35b3480156100e757600080fd5b506100f96100f6366004610d3b565b90565b6040516001600160a01b0390911681526020016100d2565b34801561011d57600080fd5b5061012760065481565b6040519081526020016100d2565b34801561014157600080fd5b506100c6610150366004610d3b565b600a6020526000908152604090205460ff1681565b34801561017157600080fd5b5061012760055481565b61018e610189366004610d7c565b6101fc565b005b34801561019c57600080fd5b5061012760045481565b3480156101b257600080fd5b506100c66101c1366004610d3b565b60076020526000908152604090205460ff1681565b61018e6101e4366004610d3b565b6105d0565b61018e6101f7366004610de5565b61091b565b610204610ca5565b60208083013560008181526009909252604091829020548435928501359060608601359060808701359060ff16156102735760405162461bcd60e51b815260206004820152600d60248201526c185b1c9958591e4b5cdc195b9d609a1b60448201526064015b60405180910390fd5b60008581526007602052604090205460ff166102bc5760405162461bcd60e51b81526020600482015260086024820152671b9bdb8b5c9bdbdd60c21b604482015260640161026a565b6002546040805160a08101825287815260208101879052808201869052606081018590526080810184905290516000926001600160a01b031691610309918e918e918e9190602401610e6b565b60408051601f198184030181529181526020820180516001600160e01b03166334baeab960e01b1790525161033e9190610ebc565b6000604051808303816000865af19150503d806000811461037b576040519150601f19603f3d011682016040523d82523d6000602084013e610380565b606091505b50509050806103d15760405162461bcd60e51b815260206004820152601c60248201527f696e76616c6964207a65726f206b6e6f776c656467652070726f6f6600000000604482015260640161026a565b6000858152600960205260408120805460ff191660011790556103f18490565b9050846001849003610476576000826001600160a01b03168a60405160006040518083038185875af1925050503d806000811461044a576040519150601f19603f3d011682016040523d82523d6000602084013e61044f565b606091505b50509050806104705760405162461bcd60e51b815260040161026a90610eeb565b50610560565b83600003610521576000816001600160a01b03168a60405160006040518083038185875af1925050503d80600081146104cb576040519150601f19603f3d011682016040523d82523d6000602084013e6104d0565b606091505b50509050806104705760405162461bcd60e51b815260206004820152601e60248201527f4661696c656420746f2073656e6420457468657220746f2073656e6465720000604482015260640161026a565b60405162461bcd60e51b8152602060048201526014602482015273496e76616c696420726573756c742076616c756560601b604482015260640161026a565b60408051338152602081018990526001600160a01b0384811682840152831660608201526080810186905290517fd408c3f932caab677ba01c19fb215b088fa2e7a5786fb906b077ac53df5cf0409181900360a00190a150505050505050506105c96001600055565b5050505050565b6105d8610ca5565b6000818152600a602052604090205460ff16156106375760405162461bcd60e51b815260206004820152601960248201527f6475706c696361746520636f6d6d69746d656e74206861736800000000000000604482015260640161026a565b600454610645906002611026565b600654106106885760405162461bcd60e51b815260206004820152601060248201526f1d1a19481d1c9959481a5cc8199d5b1b60821b604482015260640161026a565b6000610692610cfe565b61069a610cfe565b600654846000806106a9610d1d565b60005b6004548160ff161015610875576106c460028761104f565b60000361074357849350600b8160ff16600a81106106e4576106e4610e2c565b01549250600b8160ff16600a81106106fe576106fe610e2c565b0154888260ff16600a811061071557610715610e2c565b602002015260008760ff8316600a811061073157610731610e2c565b60ff9092166020929092020152610799565b60ff8116600081815260086020526040902054945085935084908990600a811061076f5761076f610e2c565b602002015260018760ff8316600a811061078b5761078b610e2c565b60ff90921660209290920201525b60ff81166000908152600860205260408120869055849083906020020152828260016020020181815250506000600160009054906101000a90046001600160a01b03166001600160a01b031663d622e5a4620249f0858e6040518463ffffffff1660e01b815260040161080d929190611063565b6020604051808303818786fa15801561082a573d6000803e3d6000fd5b50505050506040513d601f19601f8201168201806040525081019061084f919061109b565b955085905061085f6002886110b4565b965050808061086d906110c8565b9150506106ac565b506000848152600760205260408120805460ff1916600190811790915560068054969a508a96919290916108aa9084906110e7565b90915550506000898152600a602052604090819020805460ff19166001179055517f4734e8c22de58d385b5e4a86e243c8eafd12682db6819fba758d04c369f8d096906108fe908a908a908a9034906110fa565b60405180910390a150505050505050506109186001600055565b50565b610923610ca5565b60208083013560008181526009909252604091829020548435928501359060608601359060808701359060ff161561098d5760405162461bcd60e51b815260206004820152600d60248201526c185b1c9958591e4b5cdc195b9d609a1b604482015260640161026a565b60008581526007602052604090205460ff166109d65760405162461bcd60e51b81526020600482015260086024820152671b9bdb8b5c9bdbdd60c21b604482015260640161026a565b6003546040805160a08101825287815260208101879052808201869052606081018590526080810184905290516000926001600160a01b031691610a1f918c9190602401611168565b60408051601f198184030181529181526020820180516001600160e01b03166327b5d55960e11b17905251610a549190610ebc565b6000604051808303816000865af19150503d8060008114610a91576040519150601f19603f3d011682016040523d82523d6000602084013e610a96565b606091505b5050905080610ae75760405162461bcd60e51b815260206004820152601c60248201527f696e76616c6964207a65726f206b6e6f776c656467652070726f6f6600000000604482015260640161026a565b6000858152600960205260408120805460ff19166001179055610b078490565b9050846001849003610b8c576000826001600160a01b03168a60405160006040518083038185875af1925050503d8060008114610b60576040519150601f19603f3d011682016040523d82523d6000602084013e610b65565b606091505b5050905080610b865760405162461bcd60e51b815260040161026a90610eeb565b50610c37565b83600003610521576000816001600160a01b03168a60405160006040518083038185875af1925050503d8060008114610be1576040519150601f19603f3d011682016040523d82523d6000602084013e610be6565b606091505b5050905080610b865760405162461bcd60e51b815260206004820152601e60248201527f4661696c656420746f2073656e6420457468657220746f2073656e6465720000604482015260640161026a565b60408051338152602081018990526001600160a01b0384811682840152831660608201526080810186905290517fd408c3f932caab677ba01c19fb215b088fa2e7a5786fb906b077ac53df5cf0409181900360a00190a15050505050505050610ca06001600055565b505050565b600260005403610cf75760405162461bcd60e51b815260206004820152601f60248201527f5265656e7472616e637947756172643a207265656e7472616e742063616c6c00604482015260640161026a565b6002600055565b604051806101400160405280600a906020820280368337509192915050565b60405180604001604052806002906020820280368337509192915050565b600060208284031215610d4d57600080fd5b5035919050565b8060408101831015610d6557600080fd5b92915050565b8060a08101831015610d6557600080fd5b60008060008060006101c08688031215610d9557600080fd5b610d9f8787610d54565b945060c0860187811115610db257600080fd5b604087019450610dc28882610d54565b935050610dd3876101008801610d6b565b949793965091946101a0013592915050565b60008060006103c08486031215610dfb57600080fd5b610300840185811115610e0d57600080fd5b849350610e1a8682610d6b565b9250506103a084013590509250925092565b634e487b7160e01b600052603260045260246000fd5b8060005b6005811015610e65578151845260209384019390910190600101610e46565b50505050565b6101a081016040808784378083018660005b6002811015610e9a57838284379183019190830190600101610e7d565b505050808560c085013750610eb3610100830184610e42565b95945050505050565b6000825160005b81811015610edd5760208186018101518583015201610ec3565b506000920191825250919050565b60208082526021908201527f4661696c656420746f2073656e6420457468657220746f20726563697069656e6040820152601d60fa1b606082015260800190565b634e487b7160e01b600052601160045260246000fd5b600181815b80851115610f7d578160001904821115610f6357610f63610f2c565b80851615610f7057918102915b93841c9390800290610f47565b509250929050565b600082610f9457506001610d65565b81610fa157506000610d65565b8160018114610fb75760028114610fc157610fdd565b6001915050610d65565b60ff841115610fd257610fd2610f2c565b50506001821b610d65565b5060208310610133831016604e8410600b8410161715611000575081810a610d65565b61100a8383610f42565b806000190482111561101e5761101e610f2c565b029392505050565b60006110328383610f85565b9392505050565b634e487b7160e01b600052601260045260246000fd5b60008261105e5761105e611039565b500690565b60608101818460005b600281101561108b57815183526020928301929091019060010161106c565b5050508260408301529392505050565b6000602082840312156110ad57600080fd5b5051919050565b6000826110c3576110c3611039565b500490565b600060ff821660ff81036110de576110de610f2c565b60010192915050565b80820180821115610d6557610d65610f2c565b8481526102c0810160208083018660005b600a8110156111285781518352918301919083019060010161110b565b50505061016083018560005b600a81101561115457815160ff1683529183019190830190600101611134565b50505050826102a083015295945050505050565b6103a081016103008085843761118081840185610e42565b50939250505056fea264697066735822122015fdce9af1fbd241f174a3ce75a0f42f747d88c35b61f1c61552c7e08cb0dc6764736f6c63430008110033","opcodes":"PUSH1 0xA PUSH1 0x4 DUP2 SWAP1 SSTORE PUSH8 0x16345785D8A0000 PUSH1 0x5 SSTORE PUSH1 0x0 PUSH1 0x6 SSTORE PUSH2 0x1C0 PUSH1 0x40 MSTORE PUSH32 0x8CFD904A1564F728BAD463E11678C335BBE7BB55E73A07588B14F8BD04545C3D PUSH1 0x80 SWAP1 DUP2 MSTORE PUSH32 0x3A362132FF01C0F19143E7526B28C6FDCABECAAD0DFCDFDF6D8F23483B994384 PUSH1 0xA0 MSTORE PUSH32 0xCAFC0F3216ABFCCB1134117A825BA2E17388C9B09877B1FEE9873697C41DE044 PUSH1 0xC0 MSTORE PUSH32 0x52D21251F1B6967A0505130EBEA06B9D8E8CB000ABE492DF5259D6678B0E2153 PUSH1 0xE0 MSTORE PUSH32 0x1548DB067F3CF9A942C70C5CE0B6048806DD74E2B709F1D30E7A191548943A9D PUSH2 0x100 MSTORE PUSH32 0x1EA1A9099C5691137F1D3D1830867CDD75C536DFF279663AEFB7B49F7798F4CB PUSH2 0x120 MSTORE PUSH32 0x772DAC99AED444BE6218C8DA12C933163E165B31F1099B7869F4EC29BA4DA1C7 PUSH2 0x140 MSTORE PUSH32 0xC1C6314026AF83A766E1AD18D985AC243FADCF9C07932757904500E6CFF80B98 PUSH2 0x160 MSTORE PUSH32 0xA23D32762958399632E9E0B52D049042041484A30974A83254AF4E50893AD991 PUSH2 0x180 MSTORE PUSH32 0x7AE8404BBD3493825346A185473E48D1015672145BEF4CD06002212E65ED18CE PUSH2 0x1A0 MSTORE PUSH3 0x19C SWAP2 PUSH1 0xB SWAP2 SWAP1 PUSH3 0x215 JUMP JUMPDEST POP CALLVALUE DUP1 ISZERO PUSH3 0x1AA JUMPI PUSH1 0x0 DUP1 REVERT JUMPDEST POP PUSH1 0x40 MLOAD PUSH3 0x14A4 CODESIZE SUB DUP1 PUSH3 0x14A4 DUP4 CODECOPY DUP2 ADD PUSH1 0x40 DUP2 SWAP1 MSTORE PUSH3 0x1CD SWAP2 PUSH3 0x28C JUMP JUMPDEST PUSH1 0x1 PUSH1 0x0 DUP2 SWAP1 SSTORE DUP1 SLOAD PUSH1 0x1 PUSH1 0x1 PUSH1 0xA0 SHL SUB SWAP5 DUP6 AND PUSH1 0x1 PUSH1 0x1 PUSH1 0xA0 SHL SUB NOT SWAP2 DUP3 AND OR SWAP1 SWAP2 SSTORE PUSH1 0x2 DUP1 SLOAD SWAP4 DUP6 AND SWAP4 DUP3 AND SWAP4 SWAP1 SWAP4 OR SWAP1 SWAP3 SSTORE PUSH1 0x3 DUP1 SLOAD SWAP2 SWAP1 SWAP4 AND SWAP2 AND OR SWAP1 SSTORE PUSH3 0x2D6 JUMP JUMPDEST DUP3 PUSH1 0xA DUP2 ADD SWAP3 DUP3 ISZERO PUSH3 0x246 JUMPI SWAP2 PUSH1 0x20 MUL DUP3 ADD JUMPDEST DUP3 DUP2 GT ISZERO PUSH3 0x246 JUMPI DUP3 MLOAD DUP3 SSTORE SWAP2 PUSH1 0x20 ADD SWAP2 SWAP1 PUSH1 0x1 ADD SWAP1 PUSH3 0x229 JUMP JUMPDEST POP PUSH3 0x254 SWAP3 SWAP2 POP PUSH3 0x258 JUMP JUMPDEST POP SWAP1 JUMP JUMPDEST JUMPDEST DUP1 DUP3 GT ISZERO PUSH3 0x254 JUMPI PUSH1 0x0 DUP2 SSTORE PUSH1 0x1 ADD PUSH3 0x259 JUMP JUMPDEST DUP1 MLOAD PUSH1 0x1 PUSH1 0x1 PUSH1 0xA0 SHL SUB DUP2 AND DUP2 EQ PUSH3 0x287 JUMPI PUSH1 0x0 DUP1 REVERT JUMPDEST SWAP2 SWAP1 POP JUMP JUMPDEST PUSH1 0x0 DUP1 PUSH1 0x0 PUSH1 0x60 DUP5 DUP7 SUB SLT ISZERO PUSH3 0x2A2 JUMPI PUSH1 0x0 DUP1 REVERT JUMPDEST PUSH3 0x2AD DUP5 PUSH3 0x26F JUMP JUMPDEST SWAP3 POP PUSH3 0x2BD PUSH1 0x20 DUP6 ADD PUSH3 0x26F JUMP JUMPDEST SWAP2 POP PUSH3 0x2CD PUSH1 0x40 DUP6 ADD PUSH3 0x26F JUMP JUMPDEST SWAP1 POP SWAP3 POP SWAP3 POP SWAP3 JUMP JUMPDEST PUSH2 0x11BE DUP1 PUSH3 0x2E6 PUSH1 0x0 CODECOPY PUSH1 0x0 RETURN INVALID PUSH1 0x80 PUSH1 0x40 MSTORE PUSH1 0x4 CALLDATASIZE LT PUSH2 0x91 JUMPI PUSH1 0x0 CALLDATALOAD PUSH1 0xE0 SHR DUP1 PUSH4 0xB2673A3B GT PUSH2 0x59 JUMPI DUP1 PUSH4 0xB2673A3B EQ PUSH2 0x17B JUMPI DUP1 PUSH4 0xB8E79564 EQ PUSH2 0x190 JUMPI DUP1 PUSH4 0xC2B40AE4 EQ PUSH2 0x1A6 JUMPI DUP1 PUSH4 0xD5A7420D EQ PUSH2 0x1D6 JUMPI DUP1 PUSH4 0xDEA4C9CF EQ PUSH2 0x1E9 JUMPI PUSH1 0x0 DUP1 REVERT JUMPDEST DUP1 PUSH4 0x1F79A1E9 EQ PUSH2 0x96 JUMPI DUP1 PUSH4 0x28CF5CBA EQ PUSH2 0xDB JUMPI DUP1 PUSH4 0x45E0523F EQ PUSH2 0x111 JUMPI DUP1 PUSH4 0x49CE8997 EQ PUSH2 0x135 JUMPI DUP1 PUSH4 0x8BCA6D16 EQ PUSH2 0x165 JUMPI JUMPDEST PUSH1 0x0 DUP1 REVERT JUMPDEST CALLVALUE DUP1 ISZERO PUSH2 0xA2 JUMPI PUSH1 0x0 DUP1 REVERT JUMPDEST POP PUSH2 0xC6 PUSH2 0xB1 CALLDATASIZE PUSH1 0x4 PUSH2 0xD3B JUMP JUMPDEST PUSH1 0x9 PUSH1 0x20 MSTORE PUSH1 0x0 SWAP1 DUP2 MSTORE PUSH1 0x40 SWAP1 KECCAK256 SLOAD PUSH1 0xFF AND DUP2 JUMP JUMPDEST PUSH1 0x40 MLOAD SWAP1 ISZERO ISZERO DUP2 MSTORE PUSH1 0x20 ADD JUMPDEST PUSH1 0x40 MLOAD DUP1 SWAP2 SUB SWAP1 RETURN JUMPDEST CALLVALUE DUP1 ISZERO PUSH2 0xE7 JUMPI PUSH1 0x0 DUP1 REVERT JUMPDEST POP PUSH2 0xF9 PUSH2 0xF6 CALLDATASIZE PUSH1 0x4 PUSH2 0xD3B JUMP JUMPDEST SWAP1 JUMP JUMPDEST PUSH1 0x40 MLOAD PUSH1 0x1 PUSH1 0x1 PUSH1 0xA0 SHL SUB SWAP1 SWAP2 AND DUP2 MSTORE PUSH1 0x20 ADD PUSH2 0xD2 JUMP JUMPDEST CALLVALUE DUP1 ISZERO PUSH2 0x11D JUMPI PUSH1 0x0 DUP1 REVERT JUMPDEST POP PUSH2 0x127 PUSH1 0x6 SLOAD DUP2 JUMP JUMPDEST PUSH1 0x40 MLOAD SWAP1 DUP2 MSTORE PUSH1 0x20 ADD PUSH2 0xD2 JUMP JUMPDEST CALLVALUE DUP1 ISZERO PUSH2 0x141 JUMPI PUSH1 0x0 DUP1 REVERT JUMPDEST POP PUSH2 0xC6 PUSH2 0x150 CALLDATASIZE PUSH1 0x4 PUSH2 0xD3B JUMP JUMPDEST PUSH1 0xA PUSH1 0x20 MSTORE PUSH1 0x0 SWAP1 DUP2 MSTORE PUSH1 0x40 SWAP1 KECCAK256 SLOAD PUSH1 0xFF AND DUP2 JUMP JUMPDEST CALLVALUE DUP1 ISZERO PUSH2 0x171 JUMPI PUSH1 0x0 DUP1 REVERT JUMPDEST POP PUSH2 0x127 PUSH1 0x5 SLOAD DUP2 JUMP JUMPDEST PUSH2 0x18E PUSH2 0x189 CALLDATASIZE PUSH1 0x4 PUSH2 0xD7C JUMP JUMPDEST PUSH2 0x1FC JUMP JUMPDEST STOP JUMPDEST CALLVALUE DUP1 ISZERO PUSH2 0x19C JUMPI PUSH1 0x0 DUP1 REVERT JUMPDEST POP PUSH2 0x127 PUSH1 0x4 SLOAD DUP2 JUMP JUMPDEST CALLVALUE DUP1 ISZERO PUSH2 0x1B2 JUMPI PUSH1 0x0 DUP1 REVERT JUMPDEST POP PUSH2 0xC6 PUSH2 0x1C1 CALLDATASIZE PUSH1 0x4 PUSH2 0xD3B JUMP JUMPDEST PUSH1 0x7 PUSH1 0x20 MSTORE PUSH1 0x0 SWAP1 DUP2 MSTORE PUSH1 0x40 SWAP1 KECCAK256 SLOAD PUSH1 0xFF AND DUP2 JUMP JUMPDEST PUSH2 0x18E PUSH2 0x1E4 CALLDATASIZE PUSH1 0x4 PUSH2 0xD3B JUMP JUMPDEST PUSH2 0x5D0 JUMP JUMPDEST PUSH2 0x18E PUSH2 0x1F7 CALLDATASIZE PUSH1 0x4 PUSH2 0xDE5 JUMP JUMPDEST PUSH2 0x91B JUMP JUMPDEST PUSH2 0x204 PUSH2 0xCA5 JUMP JUMPDEST PUSH1 0x20 DUP1 DUP4 ADD CALLDATALOAD PUSH1 0x0 DUP2 DUP2 MSTORE PUSH1 0x9 SWAP1 SWAP3 MSTORE PUSH1 0x40 SWAP2 DUP3 SWAP1 KECCAK256 SLOAD DUP5 CALLDATALOAD SWAP3 DUP6 ADD CALLDATALOAD SWAP1 PUSH1 0x60 DUP7 ADD CALLDATALOAD SWAP1 PUSH1 0x80 DUP8 ADD CALLDATALOAD SWAP1 PUSH1 0xFF AND ISZERO PUSH2 0x273 JUMPI PUSH1 0x40 MLOAD PUSH3 0x461BCD PUSH1 0xE5 SHL DUP2 MSTORE PUSH1 0x20 PUSH1 0x4 DUP3 ADD MSTORE PUSH1 0xD PUSH1 0x24 DUP3 ADD MSTORE PUSH13 0x185B1C9958591E4B5CDC195B9D PUSH1 0x9A SHL PUSH1 0x44 DUP3 ADD MSTORE PUSH1 0x64 ADD JUMPDEST PUSH1 0x40 MLOAD DUP1 SWAP2 SUB SWAP1 REVERT JUMPDEST PUSH1 0x0 DUP6 DUP2 MSTORE PUSH1 0x7 PUSH1 0x20 MSTORE PUSH1 0x40 SWAP1 KECCAK256 SLOAD PUSH1 0xFF AND PUSH2 0x2BC JUMPI PUSH1 0x40 MLOAD PUSH3 0x461BCD PUSH1 0xE5 SHL DUP2 MSTORE PUSH1 0x20 PUSH1 0x4 DUP3 ADD MSTORE PUSH1 0x8 PUSH1 0x24 DUP3 ADD MSTORE PUSH8 0x1B9BDB8B5C9BDBDD PUSH1 0xC2 SHL PUSH1 0x44 DUP3 ADD MSTORE PUSH1 0x64 ADD PUSH2 0x26A JUMP JUMPDEST PUSH1 0x2 SLOAD PUSH1 0x40 DUP1 MLOAD PUSH1 0xA0 DUP2 ADD DUP3 MSTORE DUP8 DUP2 MSTORE PUSH1 0x20 DUP2 ADD DUP8 SWAP1 MSTORE DUP1 DUP3 ADD DUP7 SWAP1 MSTORE PUSH1 0x60 DUP2 ADD DUP6 SWAP1 MSTORE PUSH1 0x80 DUP2 ADD DUP5 SWAP1 MSTORE SWAP1 MLOAD PUSH1 0x0 SWAP3 PUSH1 0x1 PUSH1 0x1 PUSH1 0xA0 SHL SUB AND SWAP2 PUSH2 0x309 SWAP2 DUP15 SWAP2 DUP15 SWAP2 DUP15 SWAP2 SWAP1 PUSH1 0x24 ADD PUSH2 0xE6B JUMP JUMPDEST PUSH1 0x40 DUP1 MLOAD PUSH1 0x1F NOT DUP2 DUP5 SUB ADD DUP2 MSTORE SWAP2 DUP2 MSTORE PUSH1 0x20 DUP3 ADD DUP1 MLOAD PUSH1 0x1 PUSH1 0x1 PUSH1 0xE0 SHL SUB AND PUSH4 0x34BAEAB9 PUSH1 0xE0 SHL OR SWAP1 MSTORE MLOAD PUSH2 0x33E SWAP2 SWAP1 PUSH2 0xEBC JUMP JUMPDEST PUSH1 0x0 PUSH1 0x40 MLOAD DUP1 DUP4 SUB DUP2 PUSH1 0x0 DUP7 GAS CALL SWAP2 POP POP RETURNDATASIZE DUP1 PUSH1 0x0 DUP2 EQ PUSH2 0x37B JUMPI PUSH1 0x40 MLOAD SWAP2 POP PUSH1 0x1F NOT PUSH1 0x3F RETURNDATASIZE ADD AND DUP3 ADD PUSH1 0x40 MSTORE RETURNDATASIZE DUP3 MSTORE RETURNDATASIZE PUSH1 0x0 PUSH1 0x20 DUP5 ADD RETURNDATACOPY PUSH2 0x380 JUMP JUMPDEST PUSH1 0x60 SWAP2 POP JUMPDEST POP POP SWAP1 POP DUP1 PUSH2 0x3D1 JUMPI PUSH1 0x40 MLOAD PUSH3 0x461BCD PUSH1 0xE5 SHL DUP2 MSTORE PUSH1 0x20 PUSH1 0x4 DUP3 ADD MSTORE PUSH1 0x1C PUSH1 0x24 DUP3 ADD MSTORE PUSH32 0x696E76616C6964207A65726F206B6E6F776C656467652070726F6F6600000000 PUSH1 0x44 DUP3 ADD MSTORE PUSH1 0x64 ADD PUSH2 0x26A JUMP JUMPDEST PUSH1 0x0 DUP6 DUP2 MSTORE PUSH1 0x9 PUSH1 0x20 MSTORE PUSH1 0x40 DUP2 KECCAK256 DUP1 SLOAD PUSH1 0xFF NOT AND PUSH1 0x1 OR SWAP1 SSTORE PUSH2 0x3F1 DUP5 SWAP1 JUMP JUMPDEST SWAP1 POP DUP5 PUSH1 0x1 DUP5 SWAP1 SUB PUSH2 0x476 JUMPI PUSH1 0x0 DUP3 PUSH1 0x1 PUSH1 0x1 PUSH1 0xA0 SHL SUB AND DUP11 PUSH1 0x40 MLOAD PUSH1 0x0 PUSH1 0x40 MLOAD DUP1 DUP4 SUB DUP2 DUP6 DUP8 GAS CALL SWAP3 POP POP POP RETURNDATASIZE DUP1 PUSH1 0x0 DUP2 EQ PUSH2 0x44A JUMPI PUSH1 0x40 MLOAD SWAP2 POP PUSH1 0x1F NOT PUSH1 0x3F RETURNDATASIZE ADD AND DUP3 ADD PUSH1 0x40 MSTORE RETURNDATASIZE DUP3 MSTORE RETURNDATASIZE PUSH1 0x0 PUSH1 0x20 DUP5 ADD RETURNDATACOPY PUSH2 0x44F JUMP JUMPDEST PUSH1 0x60 SWAP2 POP JUMPDEST POP POP SWAP1 POP DUP1 PUSH2 0x470 JUMPI PUSH1 0x40 MLOAD PUSH3 0x461BCD PUSH1 0xE5 SHL DUP2 MSTORE PUSH1 0x4 ADD PUSH2 0x26A SWAP1 PUSH2 0xEEB JUMP JUMPDEST POP PUSH2 0x560 JUMP JUMPDEST DUP4 PUSH1 0x0 SUB PUSH2 0x521 JUMPI PUSH1 0x0 DUP2 PUSH1 0x1 PUSH1 0x1 PUSH1 0xA0 SHL SUB AND DUP11 PUSH1 0x40 MLOAD PUSH1 0x0 PUSH1 0x40 MLOAD DUP1 DUP4 SUB DUP2 DUP6 DUP8 GAS CALL SWAP3 POP POP POP RETURNDATASIZE DUP1 PUSH1 0x0 DUP2 EQ PUSH2 0x4CB JUMPI PUSH1 0x40 MLOAD SWAP2 POP PUSH1 0x1F NOT PUSH1 0x3F RETURNDATASIZE ADD AND DUP3 ADD PUSH1 0x40 MSTORE RETURNDATASIZE DUP3 MSTORE RETURNDATASIZE PUSH1 0x0 PUSH1 0x20 DUP5 ADD RETURNDATACOPY PUSH2 0x4D0 JUMP JUMPDEST PUSH1 0x60 SWAP2 POP JUMPDEST POP POP SWAP1 POP DUP1 PUSH2 0x470 JUMPI PUSH1 0x40 MLOAD PUSH3 0x461BCD PUSH1 0xE5 SHL DUP2 MSTORE PUSH1 0x20 PUSH1 0x4 DUP3 ADD MSTORE PUSH1 0x1E PUSH1 0x24 DUP3 ADD MSTORE PUSH32 0x4661696C656420746F2073656E6420457468657220746F2073656E6465720000 PUSH1 0x44 DUP3 ADD MSTORE PUSH1 0x64 ADD PUSH2 0x26A JUMP JUMPDEST PUSH1 0x40 MLOAD PUSH3 0x461BCD PUSH1 0xE5 SHL DUP2 MSTORE PUSH1 0x20 PUSH1 0x4 DUP3 ADD MSTORE PUSH1 0x14 PUSH1 0x24 DUP3 ADD MSTORE PUSH20 0x496E76616C696420726573756C742076616C7565 PUSH1 0x60 SHL PUSH1 0x44 DUP3 ADD MSTORE PUSH1 0x64 ADD PUSH2 0x26A JUMP JUMPDEST PUSH1 0x40 DUP1 MLOAD CALLER DUP2 MSTORE PUSH1 0x20 DUP2 ADD DUP10 SWAP1 MSTORE PUSH1 0x1 PUSH1 0x1 PUSH1 0xA0 SHL SUB DUP5 DUP2 AND DUP3 DUP5 ADD MSTORE DUP4 AND PUSH1 0x60 DUP3 ADD MSTORE PUSH1 0x80 DUP2 ADD DUP7 SWAP1 MSTORE SWAP1 MLOAD PUSH32 0xD408C3F932CAAB677BA01C19FB215B088FA2E7A5786FB906B077AC53DF5CF040 SWAP2 DUP2 SWAP1 SUB PUSH1 0xA0 ADD SWAP1 LOG1 POP POP POP POP POP POP POP POP PUSH2 0x5C9 PUSH1 0x1 PUSH1 0x0 SSTORE JUMP JUMPDEST POP POP POP POP POP JUMP JUMPDEST PUSH2 0x5D8 PUSH2 0xCA5 JUMP JUMPDEST PUSH1 0x0 DUP2 DUP2 MSTORE PUSH1 0xA PUSH1 0x20 MSTORE PUSH1 0x40 SWAP1 KECCAK256 SLOAD PUSH1 0xFF AND ISZERO PUSH2 0x637 JUMPI PUSH1 0x40 MLOAD PUSH3 0x461BCD PUSH1 0xE5 SHL DUP2 MSTORE PUSH1 0x20 PUSH1 0x4 DUP3 ADD MSTORE PUSH1 0x19 PUSH1 0x24 DUP3 ADD MSTORE PUSH32 0x6475706C696361746520636F6D6D69746D656E74206861736800000000000000 PUSH1 0x44 DUP3 ADD MSTORE PUSH1 0x64 ADD PUSH2 0x26A JUMP JUMPDEST PUSH1 0x4 SLOAD PUSH2 0x645 SWAP1 PUSH1 0x2 PUSH2 0x1026 JUMP JUMPDEST PUSH1 0x6 SLOAD LT PUSH2 0x688 JUMPI PUSH1 0x40 MLOAD PUSH3 0x461BCD PUSH1 0xE5 SHL DUP2 MSTORE PUSH1 0x20 PUSH1 0x4 DUP3 ADD MSTORE PUSH1 0x10 PUSH1 0x24 DUP3 ADD MSTORE PUSH16 0x1D1A19481D1C9959481A5CC8199D5B1B PUSH1 0x82 SHL PUSH1 0x44 DUP3 ADD MSTORE PUSH1 0x64 ADD PUSH2 0x26A JUMP JUMPDEST PUSH1 0x0 PUSH2 0x692 PUSH2 0xCFE JUMP JUMPDEST PUSH2 0x69A PUSH2 0xCFE JUMP JUMPDEST PUSH1 0x6 SLOAD DUP5 PUSH1 0x0 DUP1 PUSH2 0x6A9 PUSH2 0xD1D JUMP JUMPDEST PUSH1 0x0 JUMPDEST PUSH1 0x4 SLOAD DUP2 PUSH1 0xFF AND LT ISZERO PUSH2 0x875 JUMPI PUSH2 0x6C4 PUSH1 0x2 DUP8 PUSH2 0x104F JUMP JUMPDEST PUSH1 0x0 SUB PUSH2 0x743 JUMPI DUP5 SWAP4 POP PUSH1 0xB DUP2 PUSH1 0xFF AND PUSH1 0xA DUP2 LT PUSH2 0x6E4 JUMPI PUSH2 0x6E4 PUSH2 0xE2C JUMP JUMPDEST ADD SLOAD SWAP3 POP PUSH1 0xB DUP2 PUSH1 0xFF AND PUSH1 0xA DUP2 LT PUSH2 0x6FE JUMPI PUSH2 0x6FE PUSH2 0xE2C JUMP JUMPDEST ADD SLOAD DUP9 DUP3 PUSH1 0xFF AND PUSH1 0xA DUP2 LT PUSH2 0x715 JUMPI PUSH2 0x715 PUSH2 0xE2C JUMP JUMPDEST PUSH1 0x20 MUL ADD MSTORE PUSH1 0x0 DUP8 PUSH1 0xFF DUP4 AND PUSH1 0xA DUP2 LT PUSH2 0x731 JUMPI PUSH2 0x731 PUSH2 0xE2C JUMP JUMPDEST PUSH1 0xFF SWAP1 SWAP3 AND PUSH1 0x20 SWAP3 SWAP1 SWAP3 MUL ADD MSTORE PUSH2 0x799 JUMP JUMPDEST PUSH1 0xFF DUP2 AND PUSH1 0x0 DUP2 DUP2 MSTORE PUSH1 0x8 PUSH1 0x20 MSTORE PUSH1 0x40 SWAP1 KECCAK256 SLOAD SWAP5 POP DUP6 SWAP4 POP DUP5 SWAP1 DUP10 SWAP1 PUSH1 0xA DUP2 LT PUSH2 0x76F JUMPI PUSH2 0x76F PUSH2 0xE2C JUMP JUMPDEST PUSH1 0x20 MUL ADD MSTORE PUSH1 0x1 DUP8 PUSH1 0xFF DUP4 AND PUSH1 0xA DUP2 LT PUSH2 0x78B JUMPI PUSH2 0x78B PUSH2 0xE2C JUMP JUMPDEST PUSH1 0xFF SWAP1 SWAP3 AND PUSH1 0x20 SWAP3 SWAP1 SWAP3 MUL ADD MSTORE JUMPDEST PUSH1 0xFF DUP2 AND PUSH1 0x0 SWAP1 DUP2 MSTORE PUSH1 0x8 PUSH1 0x20 MSTORE PUSH1 0x40 DUP2 KECCAK256 DUP7 SWAP1 SSTORE DUP5 SWAP1 DUP4 SWAP1 PUSH1 0x20 MUL ADD MSTORE DUP3 DUP3 PUSH1 0x1 PUSH1 0x20 MUL ADD DUP2 DUP2 MSTORE POP POP PUSH1 0x0 PUSH1 0x1 PUSH1 0x0 SWAP1 SLOAD SWAP1 PUSH2 0x100 EXP SWAP1 DIV PUSH1 0x1 PUSH1 0x1 PUSH1 0xA0 SHL SUB AND PUSH1 0x1 PUSH1 0x1 PUSH1 0xA0 SHL SUB AND PUSH4 0xD622E5A4 PUSH3 0x249F0 DUP6 DUP15 PUSH1 0x40 MLOAD DUP5 PUSH4 0xFFFFFFFF AND PUSH1 0xE0 SHL DUP2 MSTORE PUSH1 0x4 ADD PUSH2 0x80D SWAP3 SWAP2 SWAP1 PUSH2 0x1063 JUMP JUMPDEST PUSH1 0x20 PUSH1 0x40 MLOAD DUP1 DUP4 SUB DUP2 DUP8 DUP7 STATICCALL ISZERO DUP1 ISZERO PUSH2 0x82A JUMPI RETURNDATASIZE PUSH1 0x0 DUP1 RETURNDATACOPY RETURNDATASIZE PUSH1 0x0 REVERT JUMPDEST POP POP POP POP POP PUSH1 0x40 MLOAD RETURNDATASIZE PUSH1 0x1F NOT PUSH1 0x1F DUP3 ADD AND DUP3 ADD DUP1 PUSH1 0x40 MSTORE POP DUP2 ADD SWAP1 PUSH2 0x84F SWAP2 SWAP1 PUSH2 0x109B JUMP JUMPDEST SWAP6 POP DUP6 SWAP1 POP PUSH2 0x85F PUSH1 0x2 DUP9 PUSH2 0x10B4 JUMP JUMPDEST SWAP7 POP POP DUP1 DUP1 PUSH2 0x86D SWAP1 PUSH2 0x10C8 JUMP JUMPDEST SWAP2 POP POP PUSH2 0x6AC JUMP JUMPDEST POP PUSH1 0x0 DUP5 DUP2 MSTORE PUSH1 0x7 PUSH1 0x20 MSTORE PUSH1 0x40 DUP2 KECCAK256 DUP1 SLOAD PUSH1 0xFF NOT AND PUSH1 0x1 SWAP1 DUP2 OR SWAP1 SWAP2 SSTORE PUSH1 0x6 DUP1 SLOAD SWAP7 SWAP11 POP DUP11 SWAP7 SWAP2 SWAP3 SWAP1 SWAP2 PUSH2 0x8AA SWAP1 DUP5 SWAP1 PUSH2 0x10E7 JUMP JUMPDEST SWAP1 SWAP2 SSTORE POP POP PUSH1 0x0 DUP10 DUP2 MSTORE PUSH1 0xA PUSH1 0x20 MSTORE PUSH1 0x40 SWAP1 DUP2 SWAP1 KECCAK256 DUP1 SLOAD PUSH1 0xFF NOT AND PUSH1 0x1 OR SWAP1 SSTORE MLOAD PUSH32 0x4734E8C22DE58D385B5E4A86E243C8EAFD12682DB6819FBA758D04C369F8D096 SWAP1 PUSH2 0x8FE SWAP1 DUP11 SWAP1 DUP11 SWAP1 DUP11 SWAP1 CALLVALUE SWAP1 PUSH2 0x10FA JUMP JUMPDEST PUSH1 0x40 MLOAD DUP1 SWAP2 SUB SWAP1 LOG1 POP POP POP POP POP POP POP POP PUSH2 0x918 PUSH1 0x1 PUSH1 0x0 SSTORE JUMP JUMPDEST POP JUMP JUMPDEST PUSH2 0x923 PUSH2 0xCA5 JUMP JUMPDEST PUSH1 0x20 DUP1 DUP4 ADD CALLDATALOAD PUSH1 0x0 DUP2 DUP2 MSTORE PUSH1 0x9 SWAP1 SWAP3 MSTORE PUSH1 0x40 SWAP2 DUP3 SWAP1 KECCAK256 SLOAD DUP5 CALLDATALOAD SWAP3 DUP6 ADD CALLDATALOAD SWAP1 PUSH1 0x60 DUP7 ADD CALLDATALOAD SWAP1 PUSH1 0x80 DUP8 ADD CALLDATALOAD SWAP1 PUSH1 0xFF AND ISZERO PUSH2 0x98D JUMPI PUSH1 0x40 MLOAD PUSH3 0x461BCD PUSH1 0xE5 SHL DUP2 MSTORE PUSH1 0x20 PUSH1 0x4 DUP3 ADD MSTORE PUSH1 0xD PUSH1 0x24 DUP3 ADD MSTORE PUSH13 0x185B1C9958591E4B5CDC195B9D PUSH1 0x9A SHL PUSH1 0x44 DUP3 ADD MSTORE PUSH1 0x64 ADD PUSH2 0x26A JUMP JUMPDEST PUSH1 0x0 DUP6 DUP2 MSTORE PUSH1 0x7 PUSH1 0x20 MSTORE PUSH1 0x40 SWAP1 KECCAK256 SLOAD PUSH1 0xFF AND PUSH2 0x9D6 JUMPI PUSH1 0x40 MLOAD PUSH3 0x461BCD PUSH1 0xE5 SHL DUP2 MSTORE PUSH1 0x20 PUSH1 0x4 DUP3 ADD MSTORE PUSH1 0x8 PUSH1 0x24 DUP3 ADD MSTORE PUSH8 0x1B9BDB8B5C9BDBDD PUSH1 0xC2 SHL PUSH1 0x44 DUP3 ADD MSTORE PUSH1 0x64 ADD PUSH2 0x26A JUMP JUMPDEST PUSH1 0x3 SLOAD PUSH1 0x40 DUP1 MLOAD PUSH1 0xA0 DUP2 ADD DUP3 MSTORE DUP8 DUP2 MSTORE PUSH1 0x20 DUP2 ADD DUP8 SWAP1 MSTORE DUP1 DUP3 ADD DUP7 SWAP1 MSTORE PUSH1 0x60 DUP2 ADD DUP6 SWAP1 MSTORE PUSH1 0x80 DUP2 ADD DUP5 SWAP1 MSTORE SWAP1 MLOAD PUSH1 0x0 SWAP3 PUSH1 0x1 PUSH1 0x1 PUSH1 0xA0 SHL SUB AND SWAP2 PUSH2 0xA1F SWAP2 DUP13 SWAP2 SWAP1 PUSH1 0x24 ADD PUSH2 0x1168 JUMP JUMPDEST PUSH1 0x40 DUP1 MLOAD PUSH1 0x1F NOT DUP2 DUP5 SUB ADD DUP2 MSTORE SWAP2 DUP2 MSTORE PUSH1 0x20 DUP3 ADD DUP1 MLOAD PUSH1 0x1 PUSH1 0x1 PUSH1 0xE0 SHL SUB AND PUSH4 0x27B5D559 PUSH1 0xE1 SHL OR SWAP1 MSTORE MLOAD PUSH2 0xA54 SWAP2 SWAP1 PUSH2 0xEBC JUMP JUMPDEST PUSH1 0x0 PUSH1 0x40 MLOAD DUP1 DUP4 SUB DUP2 PUSH1 0x0 DUP7 GAS CALL SWAP2 POP POP RETURNDATASIZE DUP1 PUSH1 0x0 DUP2 EQ PUSH2 0xA91 JUMPI PUSH1 0x40 MLOAD SWAP2 POP PUSH1 0x1F NOT PUSH1 0x3F RETURNDATASIZE ADD AND DUP3 ADD PUSH1 0x40 MSTORE RETURNDATASIZE DUP3 MSTORE RETURNDATASIZE PUSH1 0x0 PUSH1 0x20 DUP5 ADD RETURNDATACOPY PUSH2 0xA96 JUMP JUMPDEST PUSH1 0x60 SWAP2 POP JUMPDEST POP POP SWAP1 POP DUP1 PUSH2 0xAE7 JUMPI PUSH1 0x40 MLOAD PUSH3 0x461BCD PUSH1 0xE5 SHL DUP2 MSTORE PUSH1 0x20 PUSH1 0x4 DUP3 ADD MSTORE PUSH1 0x1C PUSH1 0x24 DUP3 ADD MSTORE PUSH32 0x696E76616C6964207A65726F206B6E6F776C656467652070726F6F6600000000 PUSH1 0x44 DUP3 ADD MSTORE PUSH1 0x64 ADD PUSH2 0x26A JUMP JUMPDEST PUSH1 0x0 DUP6 DUP2 MSTORE PUSH1 0x9 PUSH1 0x20 MSTORE PUSH1 0x40 DUP2 KECCAK256 DUP1 SLOAD PUSH1 0xFF NOT AND PUSH1 0x1 OR SWAP1 SSTORE PUSH2 0xB07 DUP5 SWAP1 JUMP JUMPDEST SWAP1 POP DUP5 PUSH1 0x1 DUP5 SWAP1 SUB PUSH2 0xB8C JUMPI PUSH1 0x0 DUP3 PUSH1 0x1 PUSH1 0x1 PUSH1 0xA0 SHL SUB AND DUP11 PUSH1 0x40 MLOAD PUSH1 0x0 PUSH1 0x40 MLOAD DUP1 DUP4 SUB DUP2 DUP6 DUP8 GAS CALL SWAP3 POP POP POP RETURNDATASIZE DUP1 PUSH1 0x0 DUP2 EQ PUSH2 0xB60 JUMPI PUSH1 0x40 MLOAD SWAP2 POP PUSH1 0x1F NOT PUSH1 0x3F RETURNDATASIZE ADD AND DUP3 ADD PUSH1 0x40 MSTORE RETURNDATASIZE DUP3 MSTORE RETURNDATASIZE PUSH1 0x0 PUSH1 0x20 DUP5 ADD RETURNDATACOPY PUSH2 0xB65 JUMP JUMPDEST PUSH1 0x60 SWAP2 POP JUMPDEST POP POP SWAP1 POP DUP1 PUSH2 0xB86 JUMPI PUSH1 0x40 MLOAD PUSH3 0x461BCD PUSH1 0xE5 SHL DUP2 MSTORE PUSH1 0x4 ADD PUSH2 0x26A SWAP1 PUSH2 0xEEB JUMP JUMPDEST POP PUSH2 0xC37 JUMP JUMPDEST DUP4 PUSH1 0x0 SUB PUSH2 0x521 JUMPI PUSH1 0x0 DUP2 PUSH1 0x1 PUSH1 0x1 PUSH1 0xA0 SHL SUB AND DUP11 PUSH1 0x40 MLOAD PUSH1 0x0 PUSH1 0x40 MLOAD DUP1 DUP4 SUB DUP2 DUP6 DUP8 GAS CALL SWAP3 POP POP POP RETURNDATASIZE DUP1 PUSH1 0x0 DUP2 EQ PUSH2 0xBE1 JUMPI PUSH1 0x40 MLOAD SWAP2 POP PUSH1 0x1F NOT PUSH1 0x3F RETURNDATASIZE ADD AND DUP3 ADD PUSH1 0x40 MSTORE RETURNDATASIZE DUP3 MSTORE RETURNDATASIZE PUSH1 0x0 PUSH1 0x20 DUP5 ADD RETURNDATACOPY PUSH2 0xBE6 JUMP JUMPDEST PUSH1 0x60 SWAP2 POP JUMPDEST POP POP SWAP1 POP DUP1 PUSH2 0xB86 JUMPI PUSH1 0x40 MLOAD PUSH3 0x461BCD PUSH1 0xE5 SHL DUP2 MSTORE PUSH1 0x20 PUSH1 0x4 DUP3 ADD MSTORE PUSH1 0x1E PUSH1 0x24 DUP3 ADD MSTORE PUSH32 0x4661696C656420746F2073656E6420457468657220746F2073656E6465720000 PUSH1 0x44 DUP3 ADD MSTORE PUSH1 0x64 ADD PUSH2 0x26A JUMP JUMPDEST PUSH1 0x40 DUP1 MLOAD CALLER DUP2 MSTORE PUSH1 0x20 DUP2 ADD DUP10 SWAP1 MSTORE PUSH1 0x1 PUSH1 0x1 PUSH1 0xA0 SHL SUB DUP5 DUP2 AND DUP3 DUP5 ADD MSTORE DUP4 AND PUSH1 0x60 DUP3 ADD MSTORE PUSH1 0x80 DUP2 ADD DUP7 SWAP1 MSTORE SWAP1 MLOAD PUSH32 0xD408C3F932CAAB677BA01C19FB215B088FA2E7A5786FB906B077AC53DF5CF040 SWAP2 DUP2 SWAP1 SUB PUSH1 0xA0 ADD SWAP1 LOG1 POP POP POP POP POP POP POP POP PUSH2 0xCA0 PUSH1 0x1 PUSH1 0x0 SSTORE JUMP JUMPDEST POP POP POP JUMP JUMPDEST PUSH1 0x2 PUSH1 0x0 SLOAD SUB PUSH2 0xCF7 JUMPI PUSH1 0x40 MLOAD PUSH3 0x461BCD PUSH1 0xE5 SHL DUP2 MSTORE PUSH1 0x20 PUSH1 0x4 DUP3 ADD MSTORE PUSH1 0x1F PUSH1 0x24 DUP3 ADD MSTORE PUSH32 0x5265656E7472616E637947756172643A207265656E7472616E742063616C6C00 PUSH1 0x44 DUP3 ADD MSTORE PUSH1 0x64 ADD PUSH2 0x26A JUMP JUMPDEST PUSH1 0x2 PUSH1 0x0 SSTORE JUMP JUMPDEST PUSH1 0x40 MLOAD DUP1 PUSH2 0x140 ADD PUSH1 0x40 MSTORE DUP1 PUSH1 0xA SWAP1 PUSH1 0x20 DUP3 MUL DUP1 CALLDATASIZE DUP4 CALLDATACOPY POP SWAP2 SWAP3 SWAP2 POP POP JUMP JUMPDEST PUSH1 0x40 MLOAD DUP1 PUSH1 0x40 ADD PUSH1 0x40 MSTORE DUP1 PUSH1 0x2 SWAP1 PUSH1 0x20 DUP3 MUL DUP1 CALLDATASIZE DUP4 CALLDATACOPY POP SWAP2 SWAP3 SWAP2 POP POP JUMP JUMPDEST PUSH1 0x0 PUSH1 0x20 DUP3 DUP5 SUB SLT ISZERO PUSH2 0xD4D JUMPI PUSH1 0x0 DUP1 REVERT JUMPDEST POP CALLDATALOAD SWAP2 SWAP1 POP JUMP JUMPDEST DUP1 PUSH1 0x40 DUP2 ADD DUP4 LT ISZERO PUSH2 0xD65 JUMPI PUSH1 0x0 DUP1 REVERT JUMPDEST SWAP3 SWAP2 POP POP JUMP JUMPDEST DUP1 PUSH1 0xA0 DUP2 ADD DUP4 LT ISZERO PUSH2 0xD65 JUMPI PUSH1 0x0 DUP1 REVERT JUMPDEST PUSH1 0x0 DUP1 PUSH1 0x0 DUP1 PUSH1 0x0 PUSH2 0x1C0 DUP7 DUP9 SUB SLT ISZERO PUSH2 0xD95 JUMPI PUSH1 0x0 DUP1 REVERT JUMPDEST PUSH2 0xD9F DUP8 DUP8 PUSH2 0xD54 JUMP JUMPDEST SWAP5 POP PUSH1 0xC0 DUP7 ADD DUP8 DUP2 GT ISZERO PUSH2 0xDB2 JUMPI PUSH1 0x0 DUP1 REVERT JUMPDEST PUSH1 0x40 DUP8 ADD SWAP5 POP PUSH2 0xDC2 DUP9 DUP3 PUSH2 0xD54 JUMP JUMPDEST SWAP4 POP POP PUSH2 0xDD3 DUP8 PUSH2 0x100 DUP9 ADD PUSH2 0xD6B JUMP JUMPDEST SWAP5 SWAP8 SWAP4 SWAP7 POP SWAP2 SWAP5 PUSH2 0x1A0 ADD CALLDATALOAD SWAP3 SWAP2 POP POP JUMP JUMPDEST PUSH1 0x0 DUP1 PUSH1 0x0 PUSH2 0x3C0 DUP5 DUP7 SUB SLT ISZERO PUSH2 0xDFB JUMPI PUSH1 0x0 DUP1 REVERT JUMPDEST PUSH2 0x300 DUP5 ADD DUP6 DUP2 GT ISZERO PUSH2 0xE0D JUMPI PUSH1 0x0 DUP1 REVERT JUMPDEST DUP5 SWAP4 POP PUSH2 0xE1A DUP7 DUP3 PUSH2 0xD6B JUMP JUMPDEST SWAP3 POP POP PUSH2 0x3A0 DUP5 ADD CALLDATALOAD SWAP1 POP SWAP3 POP SWAP3 POP SWAP3 JUMP JUMPDEST PUSH4 0x4E487B71 PUSH1 0xE0 SHL PUSH1 0x0 MSTORE PUSH1 0x32 PUSH1 0x4 MSTORE PUSH1 0x24 PUSH1 0x0 REVERT JUMPDEST DUP1 PUSH1 0x0 JUMPDEST PUSH1 0x5 DUP2 LT ISZERO PUSH2 0xE65 JUMPI DUP2 MLOAD DUP5 MSTORE PUSH1 0x20 SWAP4 DUP5 ADD SWAP4 SWAP1 SWAP2 ADD SWAP1 PUSH1 0x1 ADD PUSH2 0xE46 JUMP JUMPDEST POP POP POP POP JUMP JUMPDEST PUSH2 0x1A0 DUP2 ADD PUSH1 0x40 DUP1 DUP8 DUP5 CALLDATACOPY DUP1 DUP4 ADD DUP7 PUSH1 0x0 JUMPDEST PUSH1 0x2 DUP2 LT ISZERO PUSH2 0xE9A JUMPI DUP4 DUP3 DUP5 CALLDATACOPY SWAP2 DUP4 ADD SWAP2 SWAP1 DUP4 ADD SWAP1 PUSH1 0x1 ADD PUSH2 0xE7D JUMP JUMPDEST POP POP POP DUP1 DUP6 PUSH1 0xC0 DUP6 ADD CALLDATACOPY POP PUSH2 0xEB3 PUSH2 0x100 DUP4 ADD DUP5 PUSH2 0xE42 JUMP JUMPDEST SWAP6 SWAP5 POP POP POP POP POP JUMP JUMPDEST PUSH1 0x0 DUP3 MLOAD PUSH1 0x0 JUMPDEST DUP2 DUP2 LT ISZERO PUSH2 0xEDD JUMPI PUSH1 0x20 DUP2 DUP7 ADD DUP2 ADD MLOAD DUP6 DUP4 ADD MSTORE ADD PUSH2 0xEC3 JUMP JUMPDEST POP PUSH1 0x0 SWAP3 ADD SWAP2 DUP3 MSTORE POP SWAP2 SWAP1 POP JUMP JUMPDEST PUSH1 0x20 DUP1 DUP3 MSTORE PUSH1 0x21 SWAP1 DUP3 ADD MSTORE PUSH32 0x4661696C656420746F2073656E6420457468657220746F20726563697069656E PUSH1 0x40 DUP3 ADD MSTORE PUSH1 0x1D PUSH1 0xFA SHL PUSH1 0x60 DUP3 ADD MSTORE PUSH1 0x80 ADD SWAP1 JUMP JUMPDEST PUSH4 0x4E487B71 PUSH1 0xE0 SHL PUSH1 0x0 MSTORE PUSH1 0x11 PUSH1 0x4 MSTORE PUSH1 0x24 PUSH1 0x0 REVERT JUMPDEST PUSH1 0x1 DUP2 DUP2 JUMPDEST DUP1 DUP6 GT ISZERO PUSH2 0xF7D JUMPI DUP2 PUSH1 0x0 NOT DIV DUP3 GT ISZERO PUSH2 0xF63 JUMPI PUSH2 0xF63 PUSH2 0xF2C JUMP JUMPDEST DUP1 DUP6 AND ISZERO PUSH2 0xF70 JUMPI SWAP2 DUP2 MUL SWAP2 JUMPDEST SWAP4 DUP5 SHR SWAP4 SWAP1 DUP1 MUL SWAP1 PUSH2 0xF47 JUMP JUMPDEST POP SWAP3 POP SWAP3 SWAP1 POP JUMP JUMPDEST PUSH1 0x0 DUP3 PUSH2 0xF94 JUMPI POP PUSH1 0x1 PUSH2 0xD65 JUMP JUMPDEST DUP2 PUSH2 0xFA1 JUMPI POP PUSH1 0x0 PUSH2 0xD65 JUMP JUMPDEST DUP2 PUSH1 0x1 DUP2 EQ PUSH2 0xFB7 JUMPI PUSH1 0x2 DUP2 EQ PUSH2 0xFC1 JUMPI PUSH2 0xFDD JUMP JUMPDEST PUSH1 0x1 SWAP2 POP POP PUSH2 0xD65 JUMP JUMPDEST PUSH1 0xFF DUP5 GT ISZERO PUSH2 0xFD2 JUMPI PUSH2 0xFD2 PUSH2 0xF2C JUMP JUMPDEST POP POP PUSH1 0x1 DUP3 SHL PUSH2 0xD65 JUMP JUMPDEST POP PUSH1 0x20 DUP4 LT PUSH2 0x133 DUP4 LT AND PUSH1 0x4E DUP5 LT PUSH1 0xB DUP5 LT AND OR ISZERO PUSH2 0x1000 JUMPI POP DUP2 DUP2 EXP PUSH2 0xD65 JUMP JUMPDEST PUSH2 0x100A DUP4 DUP4 PUSH2 0xF42 JUMP JUMPDEST DUP1 PUSH1 0x0 NOT DIV DUP3 GT ISZERO PUSH2 0x101E JUMPI PUSH2 0x101E PUSH2 0xF2C JUMP JUMPDEST MUL SWAP4 SWAP3 POP POP POP JUMP JUMPDEST PUSH1 0x0 PUSH2 0x1032 DUP4 DUP4 PUSH2 0xF85 JUMP JUMPDEST SWAP4 SWAP3 POP POP POP JUMP JUMPDEST PUSH4 0x4E487B71 PUSH1 0xE0 SHL PUSH1 0x0 MSTORE PUSH1 0x12 PUSH1 0x4 MSTORE PUSH1 0x24 PUSH1 0x0 REVERT JUMPDEST PUSH1 0x0 DUP3 PUSH2 0x105E JUMPI PUSH2 0x105E PUSH2 0x1039 JUMP JUMPDEST POP MOD SWAP1 JUMP JUMPDEST PUSH1 0x60 DUP2 ADD DUP2 DUP5 PUSH1 0x0 JUMPDEST PUSH1 0x2 DUP2 LT ISZERO PUSH2 0x108B JUMPI DUP2 MLOAD DUP4 MSTORE PUSH1 0x20 SWAP3 DUP4 ADD SWAP3 SWAP1 SWAP2 ADD SWAP1 PUSH1 0x1 ADD PUSH2 0x106C JUMP JUMPDEST POP POP POP DUP3 PUSH1 0x40 DUP4 ADD MSTORE SWAP4 SWAP3 POP POP POP JUMP JUMPDEST PUSH1 0x0 PUSH1 0x20 DUP3 DUP5 SUB SLT ISZERO PUSH2 0x10AD JUMPI PUSH1 0x0 DUP1 REVERT JUMPDEST POP MLOAD SWAP2 SWAP1 POP JUMP JUMPDEST PUSH1 0x0 DUP3 PUSH2 0x10C3 JUMPI PUSH2 0x10C3 PUSH2 0x1039 JUMP JUMPDEST POP DIV SWAP1 JUMP JUMPDEST PUSH1 0x0 PUSH1 0xFF DUP3 AND PUSH1 0xFF DUP2 SUB PUSH2 0x10DE JUMPI PUSH2 0x10DE PUSH2 0xF2C JUMP JUMPDEST PUSH1 0x1 ADD SWAP3 SWAP2 POP POP JUMP JUMPDEST DUP1 DUP3 ADD DUP1 DUP3 GT ISZERO PUSH2 0xD65 JUMPI PUSH2 0xD65 PUSH2 0xF2C JUMP JUMPDEST DUP5 DUP2 MSTORE PUSH2 0x2C0 DUP2 ADD PUSH1 0x20 DUP1 DUP4 ADD DUP7 PUSH1 0x0 JUMPDEST PUSH1 0xA DUP2 LT ISZERO PUSH2 0x1128 JUMPI DUP2 MLOAD DUP4 MSTORE SWAP2 DUP4 ADD SWAP2 SWAP1 DUP4 ADD SWAP1 PUSH1 0x1 ADD PUSH2 0x110B JUMP JUMPDEST POP POP POP PUSH2 0x160 DUP4 ADD DUP6 PUSH1 0x0 JUMPDEST PUSH1 0xA DUP2 LT ISZERO PUSH2 0x1154 JUMPI DUP2 MLOAD PUSH1 0xFF AND DUP4 MSTORE SWAP2 DUP4 ADD SWAP2 SWAP1 DUP4 ADD SWAP1 PUSH1 0x1 ADD PUSH2 0x1134 JUMP JUMPDEST POP POP POP POP DUP3 PUSH2 0x2A0 DUP4 ADD MSTORE SWAP6 SWAP5 POP POP POP POP POP JUMP JUMPDEST PUSH2 0x3A0 DUP2 ADD PUSH2 0x300 DUP1 DUP6 DUP5 CALLDATACOPY PUSH2 0x1180 DUP2 DUP5 ADD DUP6 PUSH2 0xE42 JUMP JUMPDEST POP SWAP4 SWAP3 POP POP POP JUMP INVALID LOG2 PUSH5 0x6970667358 0x22 SLT KECCAK256 ISZERO REVERT 0xCE SWAP11 CALL 0xFB 0xD2 COINBASE CALL PUSH21 0xA3CE75A0F42F747D88C35B61F1C61552C7E08CB0DC PUSH8 0x64736F6C63430008 GT STOP CALLER "},"methodIdentifiers":{"agreement(uint256)":"d5a7420d","commitments(uint256)":"49ce8997","denomination()":"8bca6d16","evaluateGroth16(uint256[2],uint256[2][2],uint256[2],uint256[5],uint256)":"b2673a3b","evaluatePlonk(uint256[24],uint256[5],uint256)":"dea4c9cf","nextLeafIdx()":"45e0523f","nullifierHashes(uint256)":"1f79a1e9","roots(uint256)":"c2b40ae4","treeLevel()":"b8e79564","uintToAddress(uint256)":"28cf5cba"}}}}}