{"contracts/PlonkVerifier.sol":{"PlonkVerifier":{"abi":[{"inputs":[{"internalType":"uint256[24]","name":"_proof","type":"uint256[24]"},{"internalType":"uint256[5]","name":"_pubSignals","type":"uint256[5]"}],"name":"verifyProof","outputs":[{"internalType":"bool","name":"","type":"bool"}],"stateMutability":"view","type":"function"}],"evm":{"bytecode":{"linkReferences":{},"object":"608060405234801561001057600080fd5b5061183e806100206000396000f3fe608060405234801561001057600080fd5b506004361061002b5760003560e01c80634f6baab214610030575b600080fd5b61004361003e366004611763565b610057565b604051901515815260200160405180910390f35b60006116f4565b600080600184846000805b821561008b575092938183058581029091039350909181830290039081610069565b505050600181111561009c57600080fd5b505060008112156100aa5783015b9392505050565b60405181602084028301815160208301925060005b828410156100f7578185526000805160206117c98339815191528451830991506020850194506020840193506100c6565b61010f6000805160206117c98339815191528361005e565b91506020850394506020840393508592505b82841115610166576000805160206117c98339815191528551830990506000805160206117c983398151915284518309818552601f1995860195909401939150610121565b5090915250505050565b6000805160206117c9833981519152811061018f576000805260206000f35b50565b61019e61024435610170565b6101aa61026435610170565b6101b661028435610170565b6101c26102a435610170565b6101ce6102c435610170565b6101da6102e435610170565b565b604080517f18d9e33e2032ebdb28916b3b6678cbed5f9aced5344d41bd41e7f41e08ac73cc81527f0795f2589bd4808f0e0329ab2c56a6f58acf10ddcbecc750fefa4e044888e78b60208083019182527f2b285a6145694457a99c7a39d0112d022949f5632b193f8d8484d7b2597187188385019081527f066ba1c3252f39eab44d8c305ca3365da94ebe5f32cd053cef0307a390dd619e60608086019182527f0bda53f136f579cd2fbe0725cca9cc8b3b0ab97897c57e198c8e94866b1dc7296080808801919091527f177bc5ab3cbae0357a7f18dd2bb407cdb49ca8a116bc95ab07ad9284d4cbb34b60a08801527f2ba23beef6a2cabf1dda49b6eec6c83c11b32540b80e81f41775db0da5031b8f60c08801527f15d510a27b23ab67ea5b131e9f9f9f07c2a1ae171deb2b861c614fa881852c7360e08801527f093750f846566080741ec04df784b0cb89fd5d9b9228dec83ba418b5c076e8f96101008801527f2413bae5569840f846ec51114ad93281b13ab6768defc0592081f726dc49ff5b6101208801527f2b0bacdbdbd2712f89c309ccb87d88f80843d811ce2c762ee1d68ed1a8629adf6101408801527f14ebe97446e09c184ec09ae628405bbaefebebd403c579df716413e9cbcb45b86101608801527f252e014584ba766c745eee9d60245d656a32742acf2e38881ac907bf45f643706101808801527f1414968417bf4e34d6658b659968bbb34b92ec09566cb184d2b5392dc8e21d826101a08801527f1b57b7b5c831d6c0fa2e099a1646c1ef236e6857976ede99e0208de1b31f0a926101c08801527f0d90d393e049966a21e3adc92030dc5a105f5f0491c0d3ee1b9afe5ccff10c196101e08801528935610200880152898501356102208801528988013561024088015290890135610260870152888101356102808701526004356102a08701526024356102c08701526044356102e087015260643561030087015260843561032087015260a43561034087015261036086206000805160206117c98339815191529081900689860181815295909520819006978901978852848752965190945260c43590915260e435905290822083900680855290929091908280096102c08501528181526101043560208201526020610104013560408201526101443560608201526020610144013560808201526101843560a08201526020610184013560c08201526000805160206117c983398151915260e082200691508160608501528181526102443560208201526102643560408201526102843560608201526102a43560808201526102c43560a08201526102e43560c08201526000805160206117c983398151915260e08220068060c08601526000805160206117c983398151915283850960a08601526000805160206117c983398151915283840992506000805160206117c983398151915283840992506000805160206117c983398151915283840992506000805160206117c983398151915283840992506000805160206117c983398151915283840992506000805160206117c983398151915283840992506000805160206117c983398151915283840992506000805160206117c983398151915283840992506000805160206117c983398151915283840992506000805160206117c983398151915283840992506000805160206117c983398151915283840992506000805160206117c983398151915283840992508260808601526000805160206117c9833981519152806001850301069250826102e0860152826103008601526000805160206117c983398151915281820992508260e08601526000805160206117c98339815191528184099250826101008601526000805160206117c98339815191528184099250826101208601526000805160206117c9833981519152818409610140860152506101c43581526101e4356020820152610204356040820152610224356060820152608090206000805160206117c9833981519152900661016090930192909252505050565b60016000805160206117c9833981519152806000805160206117c9833981519152836060860151030106611000096103208301526000805160206117c98339815191526000805160206117e9833981519152820990506000805160206117c9833981519152806000805160206117c9833981519152836060860151030106611000096103408301526000805160206117c98339815191526000805160206117e9833981519152820990506000805160206117c9833981519152806000805160206117c9833981519152836060860151030106611000096103608301526000805160206117c98339815191526000805160206117e9833981519152820990506000805160206117c9833981519152806000805160206117c9833981519152836060860151030106611000096103808301526000805160206117c98339815191526000805160206117e9833981519152820990506000805160206117c9833981519152806000805160206117c9833981519152836060860151030106611000096103a0830152610930600661030084016100b1565b6102e0820151600191506000805160206117c983398151915281610320850151096103208401526000805160206117c98339815191526000805160206117e9833981519152830991506000805160206117c983398151915280826103408601510983096103408401526000805160206117c98339815191526000805160206117e9833981519152830991506000805160206117c983398151915280826103608601510983096103608401526000805160206117c98339815191526000805160206117e9833981519152830991506000805160206117c983398151915280826103808601510983096103808401526000805160206117c98339815191526000805160206117e9833981519152830991506000805160206117c983398151915280826103a08601510983096103a0840152505050565b60006000805160206117c9833981519152806000805160206117c98339815191526000860135610320860151098303010690506000805160206117c9833981519152806000805160206117c98339815191526020860135610340860151098303010690506000805160206117c9833981519152806000805160206117c98339815191526040860135610360860151098303010690506000805160206117c9833981519152806000805160206117c98339815191526060860135610380860151098303010690506000805160206117c9833981519152806000805160206117c983398151915260808601356103a08601510983030106905080610180830152505050565b6101808101516000805160206117c98339815191526102c0830151610320840151096000805160206117c9833981519152806102a43560208601510961024435086000805160206117c98339815191526040850151820890506000805160206117c9833981519152806102c43560208701510961026435086000805160206117c98339815191526040860151820890506000805160206117c9833981519152604086015161028435086000805160206117c9833981519152816000805160206117c983398151915284860909925050506000805160206117c98339815191526102e435820990506000805160206117c98339815191526000850151820990506000805160206117c983398151915280836000805160206117c98339815191520306840892506000805160206117c983398151915280826000805160206117c98339815191520306840892505050806101a08301525050565b6040518151815260208201516020820152825160408201526020830151606082015260408260808360066107d05a03fa905080610d00576000805260206000f35b505050565b50505050565b600060405183815284602082015285604082015260408160608360076107d05a03fa915081610d3e576000805260206000f35b825160408201526020830151606082015260408360808360066107d05a03fa91505080610d6f576000805260206000f35b5050505050565b600060405183815284602082015285604082015260408360608360076107d05a03fa91505080610d6f576000805260206000f35b610d00836020840151845184610d76565b6101c0810160408201516040516101008101604052610e1f7f2413bae5569840f846ec51114ad93281b13ab6768defc0592081f726dc49ff5b7f093750f846566080741ec04df784b0cb89fd5d9b9228dec83ba418b5c076e8f98590815260200152565b610e826000805160206117c98339815191526102643561024435097f0795f2589bd4808f0e0329ab2c56a6f58acf10ddcbecc750fefa4e044888e78b7f18d9e33e2032ebdb28916b3b6678cbed5f9aced5344d41bd41e7f41e08ac73cc86610d0b565b610ed1610244357f066ba1c3252f39eab44d8c305ca3365da94ebe5f32cd053cef0307a390dd619e7f2b285a6145694457a99c7a39d0112d022949f5632b193f8d8484d7b25971871886610d0b565b610f20610264357f177bc5ab3cbae0357a7f18dd2bb407cdb49ca8a116bc95ab07ad9284d4cbb34b7f0bda53f136f579cd2fbe0725cca9cc8b3b0ab97897c57e198c8e94866b1dc72986610d0b565b610f6f610284357f15d510a27b23ab67ea5b131e9f9f9f07c2a1ae171deb2b861c614fa881852c737f2ba23beef6a2cabf1dda49b6eec6c83c11b32540b80e81f41775db0da5031b8f86610d0b565b60a08401516000805160206117c9833981519152836000805160206117c9833981519152836102443508086000805160206117c9833981519152846000805160206117c983398151915280600286096102643508086000805160206117c9833981519152856000805160206117c9833981519152806003870961028435080892506000805160206117c983398151915260008801516000805160206117c9833981519152856000805160206117c983398151915285870909096000805160206117c98339815191526102c08901516103208a01510960c43560c087015260e43560e08701526110896000805160206117c98339815191526101608b01516000805160206117c98339815191528486080860c0880188610daa565b50506000805160206117c9833981519152856000805160206117c9833981519152806102a43560208c01510961024435080891506000805160206117c9833981519152856000805160206117c9833981519152806102c43560208c01510961026435080890506000805160206117c98339815191526102e4356000805160206117c983398151915260208a015160008b0151090992506111906000805160206117c9833981519152846000805160206117c9833981519152848609097f0d90d393e049966a21e3adc92030dc5a105f5f0491c0d3ee1b9afe5ccff10c197f1b57b7b5c831d6c0fa2e099a1646c1ef236e6857976ede99e0208de1b31f0a9260408801610d76565b5050506101043560808201526101243560a08201526111c16080850151602061014401356101443560808501610d0b565b60808401516000805160206117c983398151915290800991506111ef826101a4356101843560808501610d0b565b61120b6102e085015160a0830151608084015160808501610d76565b6000805160206117a983398151915260206040830101516000805160206117a9833981519152030660206040830101526000805160206117a983398151915260a08201516000805160206117a9833981519152030660a082015261126f8184610cbf565b61127c6040820184610cbf565b610d056080820184610cbf565b6101c081015161020082019081526101e082015161022083015260c08201516112b89060243560043584610d0b565b60e08201516112cd9060643560443584610d0b565b6101008201516112e39060a43560843584610d0b565b6113346101208301517f14ebe97446e09c184ec09ae628405bbaefebebd403c579df716413e9cbcb45b87f2b0bacdbdbd2712f89c309ccb87d88f80843d811ce2c762ee1d68ed1a8629adf84610d0b565b6113856101408301517f1414968417bf4e34d6658b659968bbb34b92ec09566cb184d2b5392dc8e21d827f252e014584ba766c745eee9d60245d656a32742acf2e38881ac907bf45f6437084610d0b565b5050565b6000805160206117c98339815191526101a08201516000805160206117c983398151915203066000805160206117c98339815191528060c08401516102443509820890506000805160206117c98339815191528060e08401516102643509820890506000805160206117c9833981519152806101008401516102843509820890506000805160206117c9833981519152806101208401516102a43509820890506000805160206117c9833981519152806101408401516102c43509820890506000805160206117c9833981519152806101608401516102e435098208905061138581600260016102408601610d76565b6000604051610240810160405261018081016101c0820161020083016114ab6101c48481358152602091820135910152565b6102043582526102243560208301526114ca6101608701518386610daa565b6114d48385610cbf565b6000805160206117a983398151915260208501516000805160206117a9833981519152030660208501527f032b79c3ba6d3bd9aaeda06dcc794220c484a170413f0dc477d00dcf2f27e4da60408501527f04866a3b9eae9200aa8ff34bdb79b7e3dac246323b4d5eef9c46ecd15a525a9560608501527f09440dd7450f86073c2ea1e0f6f98e11ac9fc2cd8dc50990ba90db7d57b9347a60808501527f023d1b923229caf782531a3e3935d2ebe1311645cbdfabb6045881412bca92f960a08501526115a860608701518460c08701610daa565b6000805160206117c983398151915260608701516101608801510992506000805160206117c98339815191526000805160206117e9833981519152840992506115f2838383610daa565b6115ff8160c08601610cbf565b505050611613610200840160c08301610cbf565b610260830180516000805160206117a9833981519152908103069052611640610240840160c08301610cbf565b7f198e9393920d483a7260bfb731fb5d25f1aa493335a9e71297e485b7aef312c26101008201527f1800deef121f1e76426a00665e5c4479674322d4f75edadd46debd5cd992f6ed6101208201527f090689d0585ff075ec9e99ad690c3395bc4b313370b38ef355acdadcd122975b6101408201527f12c85ea5db8c6deb4aab71808dcb408fe3d1e7690c43d37b4ce6cc0166fa7daa6101608201526020816101808360086107d05a03fa90511692915050565b6040516103c08101604052611707610192565b61171183826101dc565b61171a8161079d565b6117248382610a64565b61172d81610b67565b61173681610dbb565b61173f81611289565b61174881611389565b61175181611479565b6103c082036040528060005260206000f35b6000806103a080848603121561177857600080fd5b61030084018581111561178a57600080fd5b84935085828601111561179c57600080fd5b8092505050925092905056fe30644e72e131a029b85045b68181585d97816a916871ca8d3c208c16d87cfd4730644e72e131a029b85045b68181585d2833e84879b9709143e1f593f00000010931d596de2fd10f01ddd073fd5a90a976f169c76f039bb91c4775720042d43aa2646970667358221220a4f10a6c496170f543ef22adc489687f33b38f122c795b6907a728a4e2298f2464736f6c63430008110033","opcodes":"PUSH1 0x80 PUSH1 0x40 MSTORE CALLVALUE DUP1 ISZERO PUSH2 0x10 JUMPI PUSH1 0x0 DUP1 REVERT JUMPDEST POP PUSH2 0x183E DUP1 PUSH2 0x20 PUSH1 0x0 CODECOPY PUSH1 0x0 RETURN INVALID PUSH1 0x80 PUSH1 0x40 MSTORE CALLVALUE DUP1 ISZERO PUSH2 0x10 JUMPI PUSH1 0x0 DUP1 REVERT JUMPDEST POP PUSH1 0x4 CALLDATASIZE LT PUSH2 0x2B JUMPI PUSH1 0x0 CALLDATALOAD PUSH1 0xE0 SHR DUP1 PUSH4 0x4F6BAAB2 EQ PUSH2 0x30 JUMPI JUMPDEST PUSH1 0x0 DUP1 REVERT JUMPDEST PUSH2 0x43 PUSH2 0x3E CALLDATASIZE PUSH1 0x4 PUSH2 0x1763 JUMP JUMPDEST PUSH2 0x57 JUMP JUMPDEST PUSH1 0x40 MLOAD SWAP1 ISZERO ISZERO DUP2 MSTORE PUSH1 0x20 ADD PUSH1 0x40 MLOAD DUP1 SWAP2 SUB SWAP1 RETURN JUMPDEST PUSH1 0x0 PUSH2 0x16F4 JUMP JUMPDEST PUSH1 0x0 DUP1 PUSH1 0x1 DUP5 DUP5 PUSH1 0x0 DUP1 JUMPDEST DUP3 ISZERO PUSH2 0x8B JUMPI POP SWAP3 SWAP4 DUP2 DUP4 SDIV DUP6 DUP2 MUL SWAP1 SWAP2 SUB SWAP4 POP SWAP1 SWAP2 DUP2 DUP4 MUL SWAP1 SUB SWAP1 DUP2 PUSH2 0x69 JUMP JUMPDEST POP POP POP PUSH1 0x1 DUP2 GT ISZERO PUSH2 0x9C JUMPI PUSH1 0x0 DUP1 REVERT JUMPDEST POP POP PUSH1 0x0 DUP2 SLT ISZERO PUSH2 0xAA JUMPI DUP4 ADD JUMPDEST SWAP4 SWAP3 POP POP POP JUMP JUMPDEST PUSH1 0x40 MLOAD DUP2 PUSH1 0x20 DUP5 MUL DUP4 ADD DUP2 MLOAD PUSH1 0x20 DUP4 ADD SWAP3 POP PUSH1 0x0 JUMPDEST DUP3 DUP5 LT ISZERO PUSH2 0xF7 JUMPI DUP2 DUP6 MSTORE PUSH1 0x0 DUP1 MLOAD PUSH1 0x20 PUSH2 0x17C9 DUP4 CODECOPY DUP2 MLOAD SWAP2 MSTORE DUP5 MLOAD DUP4 MULMOD SWAP2 POP PUSH1 0x20 DUP6 ADD SWAP5 POP PUSH1 0x20 DUP5 ADD SWAP4 POP PUSH2 0xC6 JUMP JUMPDEST PUSH2 0x10F PUSH1 0x0 DUP1 MLOAD PUSH1 0x20 PUSH2 0x17C9 DUP4 CODECOPY DUP2 MLOAD SWAP2 MSTORE DUP4 PUSH2 0x5E JUMP JUMPDEST SWAP2 POP PUSH1 0x20 DUP6 SUB SWAP5 POP PUSH1 0x20 DUP5 SUB SWAP4 POP DUP6 SWAP3 POP JUMPDEST DUP3 DUP5 GT ISZERO PUSH2 0x166 JUMPI PUSH1 0x0 DUP1 MLOAD PUSH1 0x20 PUSH2 0x17C9 DUP4 CODECOPY DUP2 MLOAD SWAP2 MSTORE DUP6 MLOAD DUP4 MULMOD SWAP1 POP PUSH1 0x0 DUP1 MLOAD PUSH1 0x20 PUSH2 0x17C9 DUP4 CODECOPY DUP2 MLOAD SWAP2 MSTORE DUP5 MLOAD DUP4 MULMOD DUP2 DUP6 MSTORE PUSH1 0x1F NOT SWAP6 DUP7 ADD SWAP6 SWAP1 SWAP5 ADD SWAP4 SWAP2 POP PUSH2 0x121 JUMP JUMPDEST POP SWAP1 SWAP2 MSTORE POP POP POP POP JUMP JUMPDEST PUSH1 0x0 DUP1 MLOAD PUSH1 0x20 PUSH2 0x17C9 DUP4 CODECOPY DUP2 MLOAD SWAP2 MSTORE DUP2 LT PUSH2 0x18F JUMPI PUSH1 0x0 DUP1 MSTORE PUSH1 0x20 PUSH1 0x0 RETURN JUMPDEST POP JUMP JUMPDEST PUSH2 0x19E PUSH2 0x244 CALLDATALOAD PUSH2 0x170 JUMP JUMPDEST PUSH2 0x1AA PUSH2 0x264 CALLDATALOAD PUSH2 0x170 JUMP JUMPDEST PUSH2 0x1B6 PUSH2 0x284 CALLDATALOAD PUSH2 0x170 JUMP JUMPDEST PUSH2 0x1C2 PUSH2 0x2A4 CALLDATALOAD PUSH2 0x170 JUMP JUMPDEST PUSH2 0x1CE PUSH2 0x2C4 CALLDATALOAD PUSH2 0x170 JUMP JUMPDEST PUSH2 0x1DA PUSH2 0x2E4 CALLDATALOAD PUSH2 0x170 JUMP JUMPDEST JUMP JUMPDEST PUSH1 0x40 DUP1 MLOAD PUSH32 0x18D9E33E2032EBDB28916B3B6678CBED5F9ACED5344D41BD41E7F41E08AC73CC DUP2 MSTORE PUSH32 0x795F2589BD4808F0E0329AB2C56A6F58ACF10DDCBECC750FEFA4E044888E78B PUSH1 0x20 DUP1 DUP4 ADD SWAP2 DUP3 MSTORE PUSH32 0x2B285A6145694457A99C7A39D0112D022949F5632B193F8D8484D7B259718718 DUP4 DUP6 ADD SWAP1 DUP2 MSTORE PUSH32 0x66BA1C3252F39EAB44D8C305CA3365DA94EBE5F32CD053CEF0307A390DD619E PUSH1 0x60 DUP1 DUP7 ADD SWAP2 DUP3 MSTORE PUSH32 0xBDA53F136F579CD2FBE0725CCA9CC8B3B0AB97897C57E198C8E94866B1DC729 PUSH1 0x80 DUP1 DUP9 ADD SWAP2 SWAP1 SWAP2 MSTORE PUSH32 0x177BC5AB3CBAE0357A7F18DD2BB407CDB49CA8A116BC95AB07AD9284D4CBB34B PUSH1 0xA0 DUP9 ADD MSTORE PUSH32 0x2BA23BEEF6A2CABF1DDA49B6EEC6C83C11B32540B80E81F41775DB0DA5031B8F PUSH1 0xC0 DUP9 ADD MSTORE PUSH32 0x15D510A27B23AB67EA5B131E9F9F9F07C2A1AE171DEB2B861C614FA881852C73 PUSH1 0xE0 DUP9 ADD MSTORE PUSH32 0x93750F846566080741EC04DF784B0CB89FD5D9B9228DEC83BA418B5C076E8F9 PUSH2 0x100 DUP9 ADD MSTORE PUSH32 0x2413BAE5569840F846EC51114AD93281B13AB6768DEFC0592081F726DC49FF5B PUSH2 0x120 DUP9 ADD MSTORE PUSH32 0x2B0BACDBDBD2712F89C309CCB87D88F80843D811CE2C762EE1D68ED1A8629ADF PUSH2 0x140 DUP9 ADD MSTORE PUSH32 0x14EBE97446E09C184EC09AE628405BBAEFEBEBD403C579DF716413E9CBCB45B8 PUSH2 0x160 DUP9 ADD MSTORE PUSH32 0x252E014584BA766C745EEE9D60245D656A32742ACF2E38881AC907BF45F64370 PUSH2 0x180 DUP9 ADD MSTORE PUSH32 0x1414968417BF4E34D6658B659968BBB34B92EC09566CB184D2B5392DC8E21D82 PUSH2 0x1A0 DUP9 ADD MSTORE PUSH32 0x1B57B7B5C831D6C0FA2E099A1646C1EF236E6857976EDE99E0208DE1B31F0A92 PUSH2 0x1C0 DUP9 ADD MSTORE PUSH32 0xD90D393E049966A21E3ADC92030DC5A105F5F0491C0D3EE1B9AFE5CCFF10C19 PUSH2 0x1E0 DUP9 ADD MSTORE DUP10 CALLDATALOAD PUSH2 0x200 DUP9 ADD MSTORE DUP10 DUP6 ADD CALLDATALOAD PUSH2 0x220 DUP9 ADD MSTORE DUP10 DUP9 ADD CALLDATALOAD PUSH2 0x240 DUP9 ADD MSTORE SWAP1 DUP10 ADD CALLDATALOAD PUSH2 0x260 DUP8 ADD MSTORE DUP9 DUP2 ADD CALLDATALOAD PUSH2 0x280 DUP8 ADD MSTORE PUSH1 0x4 CALLDATALOAD PUSH2 0x2A0 DUP8 ADD MSTORE PUSH1 0x24 CALLDATALOAD PUSH2 0x2C0 DUP8 ADD MSTORE PUSH1 0x44 CALLDATALOAD PUSH2 0x2E0 DUP8 ADD MSTORE PUSH1 0x64 CALLDATALOAD PUSH2 0x300 DUP8 ADD MSTORE PUSH1 0x84 CALLDATALOAD PUSH2 0x320 DUP8 ADD MSTORE PUSH1 0xA4 CALLDATALOAD PUSH2 0x340 DUP8 ADD MSTORE PUSH2 0x360 DUP7 KECCAK256 PUSH1 0x0 DUP1 MLOAD PUSH1 0x20 PUSH2 0x17C9 DUP4 CODECOPY DUP2 MLOAD SWAP2 MSTORE SWAP1 DUP2 SWAP1 MOD DUP10 DUP7 ADD DUP2 DUP2 MSTORE SWAP6 SWAP1 SWAP6 KECCAK256 DUP2 SWAP1 MOD SWAP8 DUP10 ADD SWAP8 DUP9 MSTORE DUP5 DUP8 MSTORE SWAP7 MLOAD SWAP1 SWAP5 MSTORE PUSH1 0xC4 CALLDATALOAD SWAP1 SWAP2 MSTORE PUSH1 0xE4 CALLDATALOAD SWAP1 MSTORE SWAP1 DUP3 KECCAK256 DUP4 SWAP1 MOD DUP1 DUP6 MSTORE SWAP1 SWAP3 SWAP1 SWAP2 SWAP1 DUP3 DUP1 MULMOD PUSH2 0x2C0 DUP6 ADD MSTORE DUP2 DUP2 MSTORE PUSH2 0x104 CALLDATALOAD PUSH1 0x20 DUP3 ADD MSTORE PUSH1 0x20 PUSH2 0x104 ADD CALLDATALOAD PUSH1 0x40 DUP3 ADD MSTORE PUSH2 0x144 CALLDATALOAD PUSH1 0x60 DUP3 ADD MSTORE PUSH1 0x20 PUSH2 0x144 ADD CALLDATALOAD PUSH1 0x80 DUP3 ADD MSTORE PUSH2 0x184 CALLDATALOAD PUSH1 0xA0 DUP3 ADD MSTORE PUSH1 0x20 PUSH2 0x184 ADD CALLDATALOAD PUSH1 0xC0 DUP3 ADD MSTORE PUSH1 0x0 DUP1 MLOAD PUSH1 0x20 PUSH2 0x17C9 DUP4 CODECOPY DUP2 MLOAD SWAP2 MSTORE PUSH1 0xE0 DUP3 KECCAK256 MOD SWAP2 POP DUP2 PUSH1 0x60 DUP6 ADD MSTORE DUP2 DUP2 MSTORE PUSH2 0x244 CALLDATALOAD PUSH1 0x20 DUP3 ADD MSTORE PUSH2 0x264 CALLDATALOAD PUSH1 0x40 DUP3 ADD MSTORE PUSH2 0x284 CALLDATALOAD PUSH1 0x60 DUP3 ADD MSTORE PUSH2 0x2A4 CALLDATALOAD PUSH1 0x80 DUP3 ADD MSTORE PUSH2 0x2C4 CALLDATALOAD PUSH1 0xA0 DUP3 ADD MSTORE PUSH2 0x2E4 CALLDATALOAD PUSH1 0xC0 DUP3 ADD MSTORE PUSH1 0x0 DUP1 MLOAD PUSH1 0x20 PUSH2 0x17C9 DUP4 CODECOPY DUP2 MLOAD SWAP2 MSTORE PUSH1 0xE0 DUP3 KECCAK256 MOD DUP1 PUSH1 0xC0 DUP7 ADD MSTORE PUSH1 0x0 DUP1 MLOAD PUSH1 0x20 PUSH2 0x17C9 DUP4 CODECOPY DUP2 MLOAD SWAP2 MSTORE DUP4 DUP6 MULMOD PUSH1 0xA0 DUP7 ADD MSTORE PUSH1 0x0 DUP1 MLOAD PUSH1 0x20 PUSH2 0x17C9 DUP4 CODECOPY DUP2 MLOAD SWAP2 MSTORE DUP4 DUP5 MULMOD SWAP3 POP PUSH1 0x0 DUP1 MLOAD PUSH1 0x20 PUSH2 0x17C9 DUP4 CODECOPY DUP2 MLOAD SWAP2 MSTORE DUP4 DUP5 MULMOD SWAP3 POP PUSH1 0x0 DUP1 MLOAD PUSH1 0x20 PUSH2 0x17C9 DUP4 CODECOPY DUP2 MLOAD SWAP2 MSTORE DUP4 DUP5 MULMOD SWAP3 POP PUSH1 0x0 DUP1 MLOAD PUSH1 0x20 PUSH2 0x17C9 DUP4 CODECOPY DUP2 MLOAD SWAP2 MSTORE DUP4 DUP5 MULMOD SWAP3 POP PUSH1 0x0 DUP1 MLOAD PUSH1 0x20 PUSH2 0x17C9 DUP4 CODECOPY DUP2 MLOAD SWAP2 MSTORE DUP4 DUP5 MULMOD SWAP3 POP PUSH1 0x0 DUP1 MLOAD PUSH1 0x20 PUSH2 0x17C9 DUP4 CODECOPY DUP2 MLOAD SWAP2 MSTORE DUP4 DUP5 MULMOD SWAP3 POP PUSH1 0x0 DUP1 MLOAD PUSH1 0x20 PUSH2 0x17C9 DUP4 CODECOPY DUP2 MLOAD SWAP2 MSTORE DUP4 DUP5 MULMOD SWAP3 POP PUSH1 0x0 DUP1 MLOAD PUSH1 0x20 PUSH2 0x17C9 DUP4 CODECOPY DUP2 MLOAD SWAP2 MSTORE DUP4 DUP5 MULMOD SWAP3 POP PUSH1 0x0 DUP1 MLOAD PUSH1 0x20 PUSH2 0x17C9 DUP4 CODECOPY DUP2 MLOAD SWAP2 MSTORE DUP4 DUP5 MULMOD SWAP3 POP PUSH1 0x0 DUP1 MLOAD PUSH1 0x20 PUSH2 0x17C9 DUP4 CODECOPY DUP2 MLOAD SWAP2 MSTORE DUP4 DUP5 MULMOD SWAP3 POP PUSH1 0x0 DUP1 MLOAD PUSH1 0x20 PUSH2 0x17C9 DUP4 CODECOPY DUP2 MLOAD SWAP2 MSTORE DUP4 DUP5 MULMOD SWAP3 POP PUSH1 0x0 DUP1 MLOAD PUSH1 0x20 PUSH2 0x17C9 DUP4 CODECOPY DUP2 MLOAD SWAP2 MSTORE DUP4 DUP5 MULMOD SWAP3 POP DUP3 PUSH1 0x80 DUP7 ADD MSTORE PUSH1 0x0 DUP1 MLOAD PUSH1 0x20 PUSH2 0x17C9 DUP4 CODECOPY DUP2 MLOAD SWAP2 MSTORE DUP1 PUSH1 0x1 DUP6 SUB ADD MOD SWAP3 POP DUP3 PUSH2 0x2E0 DUP7 ADD MSTORE DUP3 PUSH2 0x300 DUP7 ADD MSTORE PUSH1 0x0 DUP1 MLOAD PUSH1 0x20 PUSH2 0x17C9 DUP4 CODECOPY DUP2 MLOAD SWAP2 MSTORE DUP2 DUP3 MULMOD SWAP3 POP DUP3 PUSH1 0xE0 DUP7 ADD MSTORE PUSH1 0x0 DUP1 MLOAD PUSH1 0x20 PUSH2 0x17C9 DUP4 CODECOPY DUP2 MLOAD SWAP2 MSTORE DUP2 DUP5 MULMOD SWAP3 POP DUP3 PUSH2 0x100 DUP7 ADD MSTORE PUSH1 0x0 DUP1 MLOAD PUSH1 0x20 PUSH2 0x17C9 DUP4 CODECOPY DUP2 MLOAD SWAP2 MSTORE DUP2 DUP5 MULMOD SWAP3 POP DUP3 PUSH2 0x120 DUP7 ADD MSTORE PUSH1 0x0 DUP1 MLOAD PUSH1 0x20 PUSH2 0x17C9 DUP4 CODECOPY DUP2 MLOAD SWAP2 MSTORE DUP2 DUP5 MULMOD PUSH2 0x140 DUP7 ADD MSTORE POP PUSH2 0x1C4 CALLDATALOAD DUP2 MSTORE PUSH2 0x1E4 CALLDATALOAD PUSH1 0x20 DUP3 ADD MSTORE PUSH2 0x204 CALLDATALOAD PUSH1 0x40 DUP3 ADD MSTORE PUSH2 0x224 CALLDATALOAD PUSH1 0x60 DUP3 ADD MSTORE PUSH1 0x80 SWAP1 KECCAK256 PUSH1 0x0 DUP1 MLOAD PUSH1 0x20 PUSH2 0x17C9 DUP4 CODECOPY DUP2 MLOAD SWAP2 MSTORE SWAP1 MOD PUSH2 0x160 SWAP1 SWAP4 ADD SWAP3 SWAP1 SWAP3 MSTORE POP POP POP JUMP JUMPDEST PUSH1 0x1 PUSH1 0x0 DUP1 MLOAD PUSH1 0x20 PUSH2 0x17C9 DUP4 CODECOPY DUP2 MLOAD SWAP2 MSTORE DUP1 PUSH1 0x0 DUP1 MLOAD PUSH1 0x20 PUSH2 0x17C9 DUP4 CODECOPY DUP2 MLOAD SWAP2 MSTORE DUP4 PUSH1 0x60 DUP7 ADD MLOAD SUB ADD MOD PUSH2 0x1000 MULMOD PUSH2 0x320 DUP4 ADD MSTORE PUSH1 0x0 DUP1 MLOAD PUSH1 0x20 PUSH2 0x17C9 DUP4 CODECOPY DUP2 MLOAD SWAP2 MSTORE PUSH1 0x0 DUP1 MLOAD PUSH1 0x20 PUSH2 0x17E9 DUP4 CODECOPY DUP2 MLOAD SWAP2 MSTORE DUP3 MULMOD SWAP1 POP PUSH1 0x0 DUP1 MLOAD PUSH1 0x20 PUSH2 0x17C9 DUP4 CODECOPY DUP2 MLOAD SWAP2 MSTORE DUP1 PUSH1 0x0 DUP1 MLOAD PUSH1 0x20 PUSH2 0x17C9 DUP4 CODECOPY DUP2 MLOAD SWAP2 MSTORE DUP4 PUSH1 0x60 DUP7 ADD MLOAD SUB ADD MOD PUSH2 0x1000 MULMOD PUSH2 0x340 DUP4 ADD MSTORE PUSH1 0x0 DUP1 MLOAD PUSH1 0x20 PUSH2 0x17C9 DUP4 CODECOPY DUP2 MLOAD SWAP2 MSTORE PUSH1 0x0 DUP1 MLOAD PUSH1 0x20 PUSH2 0x17E9 DUP4 CODECOPY DUP2 MLOAD SWAP2 MSTORE DUP3 MULMOD SWAP1 POP PUSH1 0x0 DUP1 MLOAD PUSH1 0x20 PUSH2 0x17C9 DUP4 CODECOPY DUP2 MLOAD SWAP2 MSTORE DUP1 PUSH1 0x0 DUP1 MLOAD PUSH1 0x20 PUSH2 0x17C9 DUP4 CODECOPY DUP2 MLOAD SWAP2 MSTORE DUP4 PUSH1 0x60 DUP7 ADD MLOAD SUB ADD MOD PUSH2 0x1000 MULMOD PUSH2 0x360 DUP4 ADD MSTORE PUSH1 0x0 DUP1 MLOAD PUSH1 0x20 PUSH2 0x17C9 DUP4 CODECOPY DUP2 MLOAD SWAP2 MSTORE PUSH1 0x0 DUP1 MLOAD PUSH1 0x20 PUSH2 0x17E9 DUP4 CODECOPY DUP2 MLOAD SWAP2 MSTORE DUP3 MULMOD SWAP1 POP PUSH1 0x0 DUP1 MLOAD PUSH1 0x20 PUSH2 0x17C9 DUP4 CODECOPY DUP2 MLOAD SWAP2 MSTORE DUP1 PUSH1 0x0 DUP1 MLOAD PUSH1 0x20 PUSH2 0x17C9 DUP4 CODECOPY DUP2 MLOAD SWAP2 MSTORE DUP4 PUSH1 0x60 DUP7 ADD MLOAD SUB ADD MOD PUSH2 0x1000 MULMOD PUSH2 0x380 DUP4 ADD MSTORE PUSH1 0x0 DUP1 MLOAD PUSH1 0x20 PUSH2 0x17C9 DUP4 CODECOPY DUP2 MLOAD SWAP2 MSTORE PUSH1 0x0 DUP1 MLOAD PUSH1 0x20 PUSH2 0x17E9 DUP4 CODECOPY DUP2 MLOAD SWAP2 MSTORE DUP3 MULMOD SWAP1 POP PUSH1 0x0 DUP1 MLOAD PUSH1 0x20 PUSH2 0x17C9 DUP4 CODECOPY DUP2 MLOAD SWAP2 MSTORE DUP1 PUSH1 0x0 DUP1 MLOAD PUSH1 0x20 PUSH2 0x17C9 DUP4 CODECOPY DUP2 MLOAD SWAP2 MSTORE DUP4 PUSH1 0x60 DUP7 ADD MLOAD SUB ADD MOD PUSH2 0x1000 MULMOD PUSH2 0x3A0 DUP4 ADD MSTORE PUSH2 0x930 PUSH1 0x6 PUSH2 0x300 DUP5 ADD PUSH2 0xB1 JUMP JUMPDEST PUSH2 0x2E0 DUP3 ADD MLOAD PUSH1 0x1 SWAP2 POP PUSH1 0x0 DUP1 MLOAD PUSH1 0x20 PUSH2 0x17C9 DUP4 CODECOPY DUP2 MLOAD SWAP2 MSTORE DUP2 PUSH2 0x320 DUP6 ADD MLOAD MULMOD PUSH2 0x320 DUP5 ADD MSTORE PUSH1 0x0 DUP1 MLOAD PUSH1 0x20 PUSH2 0x17C9 DUP4 CODECOPY DUP2 MLOAD SWAP2 MSTORE PUSH1 0x0 DUP1 MLOAD PUSH1 0x20 PUSH2 0x17E9 DUP4 CODECOPY DUP2 MLOAD SWAP2 MSTORE DUP4 MULMOD SWAP2 POP PUSH1 0x0 DUP1 MLOAD PUSH1 0x20 PUSH2 0x17C9 DUP4 CODECOPY DUP2 MLOAD SWAP2 MSTORE DUP1 DUP3 PUSH2 0x340 DUP7 ADD MLOAD MULMOD DUP4 MULMOD PUSH2 0x340 DUP5 ADD MSTORE PUSH1 0x0 DUP1 MLOAD PUSH1 0x20 PUSH2 0x17C9 DUP4 CODECOPY DUP2 MLOAD SWAP2 MSTORE PUSH1 0x0 DUP1 MLOAD PUSH1 0x20 PUSH2 0x17E9 DUP4 CODECOPY DUP2 MLOAD SWAP2 MSTORE DUP4 MULMOD SWAP2 POP PUSH1 0x0 DUP1 MLOAD PUSH1 0x20 PUSH2 0x17C9 DUP4 CODECOPY DUP2 MLOAD SWAP2 MSTORE DUP1 DUP3 PUSH2 0x360 DUP7 ADD MLOAD MULMOD DUP4 MULMOD PUSH2 0x360 DUP5 ADD MSTORE PUSH1 0x0 DUP1 MLOAD PUSH1 0x20 PUSH2 0x17C9 DUP4 CODECOPY DUP2 MLOAD SWAP2 MSTORE PUSH1 0x0 DUP1 MLOAD PUSH1 0x20 PUSH2 0x17E9 DUP4 CODECOPY DUP2 MLOAD SWAP2 MSTORE DUP4 MULMOD SWAP2 POP PUSH1 0x0 DUP1 MLOAD PUSH1 0x20 PUSH2 0x17C9 DUP4 CODECOPY DUP2 MLOAD SWAP2 MSTORE DUP1 DUP3 PUSH2 0x380 DUP7 ADD MLOAD MULMOD DUP4 MULMOD PUSH2 0x380 DUP5 ADD MSTORE PUSH1 0x0 DUP1 MLOAD PUSH1 0x20 PUSH2 0x17C9 DUP4 CODECOPY DUP2 MLOAD SWAP2 MSTORE PUSH1 0x0 DUP1 MLOAD PUSH1 0x20 PUSH2 0x17E9 DUP4 CODECOPY DUP2 MLOAD SWAP2 MSTORE DUP4 MULMOD SWAP2 POP PUSH1 0x0 DUP1 MLOAD PUSH1 0x20 PUSH2 0x17C9 DUP4 CODECOPY DUP2 MLOAD SWAP2 MSTORE DUP1 DUP3 PUSH2 0x3A0 DUP7 ADD MLOAD MULMOD DUP4 MULMOD PUSH2 0x3A0 DUP5 ADD MSTORE POP POP POP JUMP JUMPDEST PUSH1 0x0 PUSH1 0x0 DUP1 MLOAD PUSH1 0x20 PUSH2 0x17C9 DUP4 CODECOPY DUP2 MLOAD SWAP2 MSTORE DUP1 PUSH1 0x0 DUP1 MLOAD PUSH1 0x20 PUSH2 0x17C9 DUP4 CODECOPY DUP2 MLOAD SWAP2 MSTORE PUSH1 0x0 DUP7 ADD CALLDATALOAD PUSH2 0x320 DUP7 ADD MLOAD MULMOD DUP4 SUB ADD MOD SWAP1 POP PUSH1 0x0 DUP1 MLOAD PUSH1 0x20 PUSH2 0x17C9 DUP4 CODECOPY DUP2 MLOAD SWAP2 MSTORE DUP1 PUSH1 0x0 DUP1 MLOAD PUSH1 0x20 PUSH2 0x17C9 DUP4 CODECOPY DUP2 MLOAD SWAP2 MSTORE PUSH1 0x20 DUP7 ADD CALLDATALOAD PUSH2 0x340 DUP7 ADD MLOAD MULMOD DUP4 SUB ADD MOD SWAP1 POP PUSH1 0x0 DUP1 MLOAD PUSH1 0x20 PUSH2 0x17C9 DUP4 CODECOPY DUP2 MLOAD SWAP2 MSTORE DUP1 PUSH1 0x0 DUP1 MLOAD PUSH1 0x20 PUSH2 0x17C9 DUP4 CODECOPY DUP2 MLOAD SWAP2 MSTORE PUSH1 0x40 DUP7 ADD CALLDATALOAD PUSH2 0x360 DUP7 ADD MLOAD MULMOD DUP4 SUB ADD MOD SWAP1 POP PUSH1 0x0 DUP1 MLOAD PUSH1 0x20 PUSH2 0x17C9 DUP4 CODECOPY DUP2 MLOAD SWAP2 MSTORE DUP1 PUSH1 0x0 DUP1 MLOAD PUSH1 0x20 PUSH2 0x17C9 DUP4 CODECOPY DUP2 MLOAD SWAP2 MSTORE PUSH1 0x60 DUP7 ADD CALLDATALOAD PUSH2 0x380 DUP7 ADD MLOAD MULMOD DUP4 SUB ADD MOD SWAP1 POP PUSH1 0x0 DUP1 MLOAD PUSH1 0x20 PUSH2 0x17C9 DUP4 CODECOPY DUP2 MLOAD SWAP2 MSTORE DUP1 PUSH1 0x0 DUP1 MLOAD PUSH1 0x20 PUSH2 0x17C9 DUP4 CODECOPY DUP2 MLOAD SWAP2 MSTORE PUSH1 0x80 DUP7 ADD CALLDATALOAD PUSH2 0x3A0 DUP7 ADD MLOAD MULMOD DUP4 SUB ADD MOD SWAP1 POP DUP1 PUSH2 0x180 DUP4 ADD MSTORE POP POP POP JUMP JUMPDEST PUSH2 0x180 DUP2 ADD MLOAD PUSH1 0x0 DUP1 MLOAD PUSH1 0x20 PUSH2 0x17C9 DUP4 CODECOPY DUP2 MLOAD SWAP2 MSTORE PUSH2 0x2C0 DUP4 ADD MLOAD PUSH2 0x320 DUP5 ADD MLOAD MULMOD PUSH1 0x0 DUP1 MLOAD PUSH1 0x20 PUSH2 0x17C9 DUP4 CODECOPY DUP2 MLOAD SWAP2 MSTORE DUP1 PUSH2 0x2A4 CALLDATALOAD PUSH1 0x20 DUP7 ADD MLOAD MULMOD PUSH2 0x244 CALLDATALOAD ADDMOD PUSH1 0x0 DUP1 MLOAD PUSH1 0x20 PUSH2 0x17C9 DUP4 CODECOPY DUP2 MLOAD SWAP2 MSTORE PUSH1 0x40 DUP6 ADD MLOAD DUP3 ADDMOD SWAP1 POP PUSH1 0x0 DUP1 MLOAD PUSH1 0x20 PUSH2 0x17C9 DUP4 CODECOPY DUP2 MLOAD SWAP2 MSTORE DUP1 PUSH2 0x2C4 CALLDATALOAD PUSH1 0x20 DUP8 ADD MLOAD MULMOD PUSH2 0x264 CALLDATALOAD ADDMOD PUSH1 0x0 DUP1 MLOAD PUSH1 0x20 PUSH2 0x17C9 DUP4 CODECOPY DUP2 MLOAD SWAP2 MSTORE PUSH1 0x40 DUP7 ADD MLOAD DUP3 ADDMOD SWAP1 POP PUSH1 0x0 DUP1 MLOAD PUSH1 0x20 PUSH2 0x17C9 DUP4 CODECOPY DUP2 MLOAD SWAP2 MSTORE PUSH1 0x40 DUP7 ADD MLOAD PUSH2 0x284 CALLDATALOAD ADDMOD PUSH1 0x0 DUP1 MLOAD PUSH1 0x20 PUSH2 0x17C9 DUP4 CODECOPY DUP2 MLOAD SWAP2 MSTORE DUP2 PUSH1 0x0 DUP1 MLOAD PUSH1 0x20 PUSH2 0x17C9 DUP4 CODECOPY DUP2 MLOAD SWAP2 MSTORE DUP5 DUP7 MULMOD MULMOD SWAP3 POP POP POP PUSH1 0x0 DUP1 MLOAD PUSH1 0x20 PUSH2 0x17C9 DUP4 CODECOPY DUP2 MLOAD SWAP2 MSTORE PUSH2 0x2E4 CALLDATALOAD DUP3 MULMOD SWAP1 POP PUSH1 0x0 DUP1 MLOAD PUSH1 0x20 PUSH2 0x17C9 DUP4 CODECOPY DUP2 MLOAD SWAP2 MSTORE PUSH1 0x0 DUP6 ADD MLOAD DUP3 MULMOD SWAP1 POP PUSH1 0x0 DUP1 MLOAD PUSH1 0x20 PUSH2 0x17C9 DUP4 CODECOPY DUP2 MLOAD SWAP2 MSTORE DUP1 DUP4 PUSH1 0x0 DUP1 MLOAD PUSH1 0x20 PUSH2 0x17C9 DUP4 CODECOPY DUP2 MLOAD SWAP2 MSTORE SUB MOD DUP5 ADDMOD SWAP3 POP PUSH1 0x0 DUP1 MLOAD PUSH1 0x20 PUSH2 0x17C9 DUP4 CODECOPY DUP2 MLOAD SWAP2 MSTORE DUP1 DUP3 PUSH1 0x0 DUP1 MLOAD PUSH1 0x20 PUSH2 0x17C9 DUP4 CODECOPY DUP2 MLOAD SWAP2 MSTORE SUB MOD DUP5 ADDMOD SWAP3 POP POP POP DUP1 PUSH2 0x1A0 DUP4 ADD MSTORE POP POP JUMP JUMPDEST PUSH1 0x40 MLOAD DUP2 MLOAD DUP2 MSTORE PUSH1 0x20 DUP3 ADD MLOAD PUSH1 0x20 DUP3 ADD MSTORE DUP3 MLOAD PUSH1 0x40 DUP3 ADD MSTORE PUSH1 0x20 DUP4 ADD MLOAD PUSH1 0x60 DUP3 ADD MSTORE PUSH1 0x40 DUP3 PUSH1 0x80 DUP4 PUSH1 0x6 PUSH2 0x7D0 GAS SUB STATICCALL SWAP1 POP DUP1 PUSH2 0xD00 JUMPI PUSH1 0x0 DUP1 MSTORE PUSH1 0x20 PUSH1 0x0 RETURN JUMPDEST POP POP POP JUMP JUMPDEST POP POP POP POP JUMP JUMPDEST PUSH1 0x0 PUSH1 0x40 MLOAD DUP4 DUP2 MSTORE DUP5 PUSH1 0x20 DUP3 ADD MSTORE DUP6 PUSH1 0x40 DUP3 ADD MSTORE PUSH1 0x40 DUP2 PUSH1 0x60 DUP4 PUSH1 0x7 PUSH2 0x7D0 GAS SUB STATICCALL SWAP2 POP DUP2 PUSH2 0xD3E JUMPI PUSH1 0x0 DUP1 MSTORE PUSH1 0x20 PUSH1 0x0 RETURN JUMPDEST DUP3 MLOAD PUSH1 0x40 DUP3 ADD MSTORE PUSH1 0x20 DUP4 ADD MLOAD PUSH1 0x60 DUP3 ADD MSTORE PUSH1 0x40 DUP4 PUSH1 0x80 DUP4 PUSH1 0x6 PUSH2 0x7D0 GAS SUB STATICCALL SWAP2 POP POP DUP1 PUSH2 0xD6F JUMPI PUSH1 0x0 DUP1 MSTORE PUSH1 0x20 PUSH1 0x0 RETURN JUMPDEST POP POP POP POP POP JUMP JUMPDEST PUSH1 0x0 PUSH1 0x40 MLOAD DUP4 DUP2 MSTORE DUP5 PUSH1 0x20 DUP3 ADD MSTORE DUP6 PUSH1 0x40 DUP3 ADD MSTORE PUSH1 0x40 DUP4 PUSH1 0x60 DUP4 PUSH1 0x7 PUSH2 0x7D0 GAS SUB STATICCALL SWAP2 POP POP DUP1 PUSH2 0xD6F JUMPI PUSH1 0x0 DUP1 MSTORE PUSH1 0x20 PUSH1 0x0 RETURN JUMPDEST PUSH2 0xD00 DUP4 PUSH1 0x20 DUP5 ADD MLOAD DUP5 MLOAD DUP5 PUSH2 0xD76 JUMP JUMPDEST PUSH2 0x1C0 DUP2 ADD PUSH1 0x40 DUP3 ADD MLOAD PUSH1 0x40 MLOAD PUSH2 0x100 DUP2 ADD PUSH1 0x40 MSTORE PUSH2 0xE1F PUSH32 0x2413BAE5569840F846EC51114AD93281B13AB6768DEFC0592081F726DC49FF5B PUSH32 0x93750F846566080741EC04DF784B0CB89FD5D9B9228DEC83BA418B5C076E8F9 DUP6 SWAP1 DUP2 MSTORE PUSH1 0x20 ADD MSTORE JUMP JUMPDEST PUSH2 0xE82 PUSH1 0x0 DUP1 MLOAD PUSH1 0x20 PUSH2 0x17C9 DUP4 CODECOPY DUP2 MLOAD SWAP2 MSTORE PUSH2 0x264 CALLDATALOAD PUSH2 0x244 CALLDATALOAD MULMOD PUSH32 0x795F2589BD4808F0E0329AB2C56A6F58ACF10DDCBECC750FEFA4E044888E78B PUSH32 0x18D9E33E2032EBDB28916B3B6678CBED5F9ACED5344D41BD41E7F41E08AC73CC DUP7 PUSH2 0xD0B JUMP JUMPDEST PUSH2 0xED1 PUSH2 0x244 CALLDATALOAD PUSH32 0x66BA1C3252F39EAB44D8C305CA3365DA94EBE5F32CD053CEF0307A390DD619E PUSH32 0x2B285A6145694457A99C7A39D0112D022949F5632B193F8D8484D7B259718718 DUP7 PUSH2 0xD0B JUMP JUMPDEST PUSH2 0xF20 PUSH2 0x264 CALLDATALOAD PUSH32 0x177BC5AB3CBAE0357A7F18DD2BB407CDB49CA8A116BC95AB07AD9284D4CBB34B PUSH32 0xBDA53F136F579CD2FBE0725CCA9CC8B3B0AB97897C57E198C8E94866B1DC729 DUP7 PUSH2 0xD0B JUMP JUMPDEST PUSH2 0xF6F PUSH2 0x284 CALLDATALOAD PUSH32 0x15D510A27B23AB67EA5B131E9F9F9F07C2A1AE171DEB2B861C614FA881852C73 PUSH32 0x2BA23BEEF6A2CABF1DDA49B6EEC6C83C11B32540B80E81F41775DB0DA5031B8F DUP7 PUSH2 0xD0B JUMP JUMPDEST PUSH1 0xA0 DUP5 ADD MLOAD PUSH1 0x0 DUP1 MLOAD PUSH1 0x20 PUSH2 0x17C9 DUP4 CODECOPY DUP2 MLOAD SWAP2 MSTORE DUP4 PUSH1 0x0 DUP1 MLOAD PUSH1 0x20 PUSH2 0x17C9 DUP4 CODECOPY DUP2 MLOAD SWAP2 MSTORE DUP4 PUSH2 0x244 CALLDATALOAD ADDMOD ADDMOD PUSH1 0x0 DUP1 MLOAD PUSH1 0x20 PUSH2 0x17C9 DUP4 CODECOPY DUP2 MLOAD SWAP2 MSTORE DUP5 PUSH1 0x0 DUP1 MLOAD PUSH1 0x20 PUSH2 0x17C9 DUP4 CODECOPY DUP2 MLOAD SWAP2 MSTORE DUP1 PUSH1 0x2 DUP7 MULMOD PUSH2 0x264 CALLDATALOAD ADDMOD ADDMOD PUSH1 0x0 DUP1 MLOAD PUSH1 0x20 PUSH2 0x17C9 DUP4 CODECOPY DUP2 MLOAD SWAP2 MSTORE DUP6 PUSH1 0x0 DUP1 MLOAD PUSH1 0x20 PUSH2 0x17C9 DUP4 CODECOPY DUP2 MLOAD SWAP2 MSTORE DUP1 PUSH1 0x3 DUP8 MULMOD PUSH2 0x284 CALLDATALOAD ADDMOD ADDMOD SWAP3 POP PUSH1 0x0 DUP1 MLOAD PUSH1 0x20 PUSH2 0x17C9 DUP4 CODECOPY DUP2 MLOAD SWAP2 MSTORE PUSH1 0x0 DUP9 ADD MLOAD PUSH1 0x0 DUP1 MLOAD PUSH1 0x20 PUSH2 0x17C9 DUP4 CODECOPY DUP2 MLOAD SWAP2 MSTORE DUP6 PUSH1 0x0 DUP1 MLOAD PUSH1 0x20 PUSH2 0x17C9 DUP4 CODECOPY DUP2 MLOAD SWAP2 MSTORE DUP6 DUP8 MULMOD MULMOD MULMOD PUSH1 0x0 DUP1 MLOAD PUSH1 0x20 PUSH2 0x17C9 DUP4 CODECOPY DUP2 MLOAD SWAP2 MSTORE PUSH2 0x2C0 DUP10 ADD MLOAD PUSH2 0x320 DUP11 ADD MLOAD MULMOD PUSH1 0xC4 CALLDATALOAD PUSH1 0xC0 DUP8 ADD MSTORE PUSH1 0xE4 CALLDATALOAD PUSH1 0xE0 DUP8 ADD MSTORE PUSH2 0x1089 PUSH1 0x0 DUP1 MLOAD PUSH1 0x20 PUSH2 0x17C9 DUP4 CODECOPY DUP2 MLOAD SWAP2 MSTORE PUSH2 0x160 DUP12 ADD MLOAD PUSH1 0x0 DUP1 MLOAD PUSH1 0x20 PUSH2 0x17C9 DUP4 CODECOPY DUP2 MLOAD SWAP2 MSTORE DUP5 DUP7 ADDMOD ADDMOD PUSH1 0xC0 DUP9 ADD DUP9 PUSH2 0xDAA JUMP JUMPDEST POP POP PUSH1 0x0 DUP1 MLOAD PUSH1 0x20 PUSH2 0x17C9 DUP4 CODECOPY DUP2 MLOAD SWAP2 MSTORE DUP6 PUSH1 0x0 DUP1 MLOAD PUSH1 0x20 PUSH2 0x17C9 DUP4 CODECOPY DUP2 MLOAD SWAP2 MSTORE DUP1 PUSH2 0x2A4 CALLDATALOAD PUSH1 0x20 DUP13 ADD MLOAD MULMOD PUSH2 0x244 CALLDATALOAD ADDMOD ADDMOD SWAP2 POP PUSH1 0x0 DUP1 MLOAD PUSH1 0x20 PUSH2 0x17C9 DUP4 CODECOPY DUP2 MLOAD SWAP2 MSTORE DUP6 PUSH1 0x0 DUP1 MLOAD PUSH1 0x20 PUSH2 0x17C9 DUP4 CODECOPY DUP2 MLOAD SWAP2 MSTORE DUP1 PUSH2 0x2C4 CALLDATALOAD PUSH1 0x20 DUP13 ADD MLOAD MULMOD PUSH2 0x264 CALLDATALOAD ADDMOD ADDMOD SWAP1 POP PUSH1 0x0 DUP1 MLOAD PUSH1 0x20 PUSH2 0x17C9 DUP4 CODECOPY DUP2 MLOAD SWAP2 MSTORE PUSH2 0x2E4 CALLDATALOAD PUSH1 0x0 DUP1 MLOAD PUSH1 0x20 PUSH2 0x17C9 DUP4 CODECOPY DUP2 MLOAD SWAP2 MSTORE PUSH1 0x20 DUP11 ADD MLOAD PUSH1 0x0 DUP12 ADD MLOAD MULMOD MULMOD SWAP3 POP PUSH2 0x1190 PUSH1 0x0 DUP1 MLOAD PUSH1 0x20 PUSH2 0x17C9 DUP4 CODECOPY DUP2 MLOAD SWAP2 MSTORE DUP5 PUSH1 0x0 DUP1 MLOAD PUSH1 0x20 PUSH2 0x17C9 DUP4 CODECOPY DUP2 MLOAD SWAP2 MSTORE DUP5 DUP7 MULMOD MULMOD PUSH32 0xD90D393E049966A21E3ADC92030DC5A105F5F0491C0D3EE1B9AFE5CCFF10C19 PUSH32 0x1B57B7B5C831D6C0FA2E099A1646C1EF236E6857976EDE99E0208DE1B31F0A92 PUSH1 0x40 DUP9 ADD PUSH2 0xD76 JUMP JUMPDEST POP POP POP PUSH2 0x104 CALLDATALOAD PUSH1 0x80 DUP3 ADD MSTORE PUSH2 0x124 CALLDATALOAD PUSH1 0xA0 DUP3 ADD MSTORE PUSH2 0x11C1 PUSH1 0x80 DUP6 ADD MLOAD PUSH1 0x20 PUSH2 0x144 ADD CALLDATALOAD PUSH2 0x144 CALLDATALOAD PUSH1 0x80 DUP6 ADD PUSH2 0xD0B JUMP JUMPDEST PUSH1 0x80 DUP5 ADD MLOAD PUSH1 0x0 DUP1 MLOAD PUSH1 0x20 PUSH2 0x17C9 DUP4 CODECOPY DUP2 MLOAD SWAP2 MSTORE SWAP1 DUP1 MULMOD SWAP2 POP PUSH2 0x11EF DUP3 PUSH2 0x1A4 CALLDATALOAD PUSH2 0x184 CALLDATALOAD PUSH1 0x80 DUP6 ADD PUSH2 0xD0B JUMP JUMPDEST PUSH2 0x120B PUSH2 0x2E0 DUP6 ADD MLOAD PUSH1 0xA0 DUP4 ADD MLOAD PUSH1 0x80 DUP5 ADD MLOAD PUSH1 0x80 DUP6 ADD PUSH2 0xD76 JUMP JUMPDEST PUSH1 0x0 DUP1 MLOAD PUSH1 0x20 PUSH2 0x17A9 DUP4 CODECOPY DUP2 MLOAD SWAP2 MSTORE PUSH1 0x20 PUSH1 0x40 DUP4 ADD ADD MLOAD PUSH1 0x0 DUP1 MLOAD PUSH1 0x20 PUSH2 0x17A9 DUP4 CODECOPY DUP2 MLOAD SWAP2 MSTORE SUB MOD PUSH1 0x20 PUSH1 0x40 DUP4 ADD ADD MSTORE PUSH1 0x0 DUP1 MLOAD PUSH1 0x20 PUSH2 0x17A9 DUP4 CODECOPY DUP2 MLOAD SWAP2 MSTORE PUSH1 0xA0 DUP3 ADD MLOAD PUSH1 0x0 DUP1 MLOAD PUSH1 0x20 PUSH2 0x17A9 DUP4 CODECOPY DUP2 MLOAD SWAP2 MSTORE SUB MOD PUSH1 0xA0 DUP3 ADD MSTORE PUSH2 0x126F DUP2 DUP5 PUSH2 0xCBF JUMP JUMPDEST PUSH2 0x127C PUSH1 0x40 DUP3 ADD DUP5 PUSH2 0xCBF JUMP JUMPDEST PUSH2 0xD05 PUSH1 0x80 DUP3 ADD DUP5 PUSH2 0xCBF JUMP JUMPDEST PUSH2 0x1C0 DUP2 ADD MLOAD PUSH2 0x200 DUP3 ADD SWAP1 DUP2 MSTORE PUSH2 0x1E0 DUP3 ADD MLOAD PUSH2 0x220 DUP4 ADD MSTORE PUSH1 0xC0 DUP3 ADD MLOAD PUSH2 0x12B8 SWAP1 PUSH1 0x24 CALLDATALOAD PUSH1 0x4 CALLDATALOAD DUP5 PUSH2 0xD0B JUMP JUMPDEST PUSH1 0xE0 DUP3 ADD MLOAD PUSH2 0x12CD SWAP1 PUSH1 0x64 CALLDATALOAD PUSH1 0x44 CALLDATALOAD DUP5 PUSH2 0xD0B JUMP JUMPDEST PUSH2 0x100 DUP3 ADD MLOAD PUSH2 0x12E3 SWAP1 PUSH1 0xA4 CALLDATALOAD PUSH1 0x84 CALLDATALOAD DUP5 PUSH2 0xD0B JUMP JUMPDEST PUSH2 0x1334 PUSH2 0x120 DUP4 ADD MLOAD PUSH32 0x14EBE97446E09C184EC09AE628405BBAEFEBEBD403C579DF716413E9CBCB45B8 PUSH32 0x2B0BACDBDBD2712F89C309CCB87D88F80843D811CE2C762EE1D68ED1A8629ADF DUP5 PUSH2 0xD0B JUMP JUMPDEST PUSH2 0x1385 PUSH2 0x140 DUP4 ADD MLOAD PUSH32 0x1414968417BF4E34D6658B659968BBB34B92EC09566CB184D2B5392DC8E21D82 PUSH32 0x252E014584BA766C745EEE9D60245D656A32742ACF2E38881AC907BF45F64370 DUP5 PUSH2 0xD0B JUMP JUMPDEST POP POP JUMP JUMPDEST PUSH1 0x0 DUP1 MLOAD PUSH1 0x20 PUSH2 0x17C9 DUP4 CODECOPY DUP2 MLOAD SWAP2 MSTORE PUSH2 0x1A0 DUP3 ADD MLOAD PUSH1 0x0 DUP1 MLOAD PUSH1 0x20 PUSH2 0x17C9 DUP4 CODECOPY DUP2 MLOAD SWAP2 MSTORE SUB MOD PUSH1 0x0 DUP1 MLOAD PUSH1 0x20 PUSH2 0x17C9 DUP4 CODECOPY DUP2 MLOAD SWAP2 MSTORE DUP1 PUSH1 0xC0 DUP5 ADD MLOAD PUSH2 0x244 CALLDATALOAD MULMOD DUP3 ADDMOD SWAP1 POP PUSH1 0x0 DUP1 MLOAD PUSH1 0x20 PUSH2 0x17C9 DUP4 CODECOPY DUP2 MLOAD SWAP2 MSTORE DUP1 PUSH1 0xE0 DUP5 ADD MLOAD PUSH2 0x264 CALLDATALOAD MULMOD DUP3 ADDMOD SWAP1 POP PUSH1 0x0 DUP1 MLOAD PUSH1 0x20 PUSH2 0x17C9 DUP4 CODECOPY DUP2 MLOAD SWAP2 MSTORE DUP1 PUSH2 0x100 DUP5 ADD MLOAD PUSH2 0x284 CALLDATALOAD MULMOD DUP3 ADDMOD SWAP1 POP PUSH1 0x0 DUP1 MLOAD PUSH1 0x20 PUSH2 0x17C9 DUP4 CODECOPY DUP2 MLOAD SWAP2 MSTORE DUP1 PUSH2 0x120 DUP5 ADD MLOAD PUSH2 0x2A4 CALLDATALOAD MULMOD DUP3 ADDMOD SWAP1 POP PUSH1 0x0 DUP1 MLOAD PUSH1 0x20 PUSH2 0x17C9 DUP4 CODECOPY DUP2 MLOAD SWAP2 MSTORE DUP1 PUSH2 0x140 DUP5 ADD MLOAD PUSH2 0x2C4 CALLDATALOAD MULMOD DUP3 ADDMOD SWAP1 POP PUSH1 0x0 DUP1 MLOAD PUSH1 0x20 PUSH2 0x17C9 DUP4 CODECOPY DUP2 MLOAD SWAP2 MSTORE DUP1 PUSH2 0x160 DUP5 ADD MLOAD PUSH2 0x2E4 CALLDATALOAD MULMOD DUP3 ADDMOD SWAP1 POP PUSH2 0x1385 DUP2 PUSH1 0x2 PUSH1 0x1 PUSH2 0x240 DUP7 ADD PUSH2 0xD76 JUMP JUMPDEST PUSH1 0x0 PUSH1 0x40 MLOAD PUSH2 0x240 DUP2 ADD PUSH1 0x40 MSTORE PUSH2 0x180 DUP2 ADD PUSH2 0x1C0 DUP3 ADD PUSH2 0x200 DUP4 ADD PUSH2 0x14AB PUSH2 0x1C4 DUP5 DUP2 CALLDATALOAD DUP2 MSTORE PUSH1 0x20 SWAP2 DUP3 ADD CALLDATALOAD SWAP2 ADD MSTORE JUMP JUMPDEST PUSH2 0x204 CALLDATALOAD DUP3 MSTORE PUSH2 0x224 CALLDATALOAD PUSH1 0x20 DUP4 ADD MSTORE PUSH2 0x14CA PUSH2 0x160 DUP8 ADD MLOAD DUP4 DUP7 PUSH2 0xDAA JUMP JUMPDEST PUSH2 0x14D4 DUP4 DUP6 PUSH2 0xCBF JUMP JUMPDEST PUSH1 0x0 DUP1 MLOAD PUSH1 0x20 PUSH2 0x17A9 DUP4 CODECOPY DUP2 MLOAD SWAP2 MSTORE PUSH1 0x20 DUP6 ADD MLOAD PUSH1 0x0 DUP1 MLOAD PUSH1 0x20 PUSH2 0x17A9 DUP4 CODECOPY DUP2 MLOAD SWAP2 MSTORE SUB MOD PUSH1 0x20 DUP6 ADD MSTORE PUSH32 0x32B79C3BA6D3BD9AAEDA06DCC794220C484A170413F0DC477D00DCF2F27E4DA PUSH1 0x40 DUP6 ADD MSTORE PUSH32 0x4866A3B9EAE9200AA8FF34BDB79B7E3DAC246323B4D5EEF9C46ECD15A525A95 PUSH1 0x60 DUP6 ADD MSTORE PUSH32 0x9440DD7450F86073C2EA1E0F6F98E11AC9FC2CD8DC50990BA90DB7D57B9347A PUSH1 0x80 DUP6 ADD MSTORE PUSH32 0x23D1B923229CAF782531A3E3935D2EBE1311645CBDFABB6045881412BCA92F9 PUSH1 0xA0 DUP6 ADD MSTORE PUSH2 0x15A8 PUSH1 0x60 DUP8 ADD MLOAD DUP5 PUSH1 0xC0 DUP8 ADD PUSH2 0xDAA JUMP JUMPDEST PUSH1 0x0 DUP1 MLOAD PUSH1 0x20 PUSH2 0x17C9 DUP4 CODECOPY DUP2 MLOAD SWAP2 MSTORE PUSH1 0x60 DUP8 ADD MLOAD PUSH2 0x160 DUP9 ADD MLOAD MULMOD SWAP3 POP PUSH1 0x0 DUP1 MLOAD PUSH1 0x20 PUSH2 0x17C9 DUP4 CODECOPY DUP2 MLOAD SWAP2 MSTORE PUSH1 0x0 DUP1 MLOAD PUSH1 0x20 PUSH2 0x17E9 DUP4 CODECOPY DUP2 MLOAD SWAP2 MSTORE DUP5 MULMOD SWAP3 POP PUSH2 0x15F2 DUP4 DUP4 DUP4 PUSH2 0xDAA JUMP JUMPDEST PUSH2 0x15FF DUP2 PUSH1 0xC0 DUP7 ADD PUSH2 0xCBF JUMP JUMPDEST POP POP POP PUSH2 0x1613 PUSH2 0x200 DUP5 ADD PUSH1 0xC0 DUP4 ADD PUSH2 0xCBF JUMP JUMPDEST PUSH2 0x260 DUP4 ADD DUP1 MLOAD PUSH1 0x0 DUP1 MLOAD PUSH1 0x20 PUSH2 0x17A9 DUP4 CODECOPY DUP2 MLOAD SWAP2 MSTORE SWAP1 DUP2 SUB MOD SWAP1 MSTORE PUSH2 0x1640 PUSH2 0x240 DUP5 ADD PUSH1 0xC0 DUP4 ADD PUSH2 0xCBF JUMP JUMPDEST PUSH32 0x198E9393920D483A7260BFB731FB5D25F1AA493335A9E71297E485B7AEF312C2 PUSH2 0x100 DUP3 ADD MSTORE PUSH32 0x1800DEEF121F1E76426A00665E5C4479674322D4F75EDADD46DEBD5CD992F6ED PUSH2 0x120 DUP3 ADD MSTORE PUSH32 0x90689D0585FF075EC9E99AD690C3395BC4B313370B38EF355ACDADCD122975B PUSH2 0x140 DUP3 ADD MSTORE PUSH32 0x12C85EA5DB8C6DEB4AAB71808DCB408FE3D1E7690C43D37B4CE6CC0166FA7DAA PUSH2 0x160 DUP3 ADD MSTORE PUSH1 0x20 DUP2 PUSH2 0x180 DUP4 PUSH1 0x8 PUSH2 0x7D0 GAS SUB STATICCALL SWAP1 MLOAD AND SWAP3 SWAP2 POP POP JUMP JUMPDEST PUSH1 0x40 MLOAD PUSH2 0x3C0 DUP2 ADD PUSH1 0x40 MSTORE PUSH2 0x1707 PUSH2 0x192 JUMP JUMPDEST PUSH2 0x1711 DUP4 DUP3 PUSH2 0x1DC JUMP JUMPDEST PUSH2 0x171A DUP2 PUSH2 0x79D JUMP JUMPDEST PUSH2 0x1724 DUP4 DUP3 PUSH2 0xA64 JUMP JUMPDEST PUSH2 0x172D DUP2 PUSH2 0xB67 JUMP JUMPDEST PUSH2 0x1736 DUP2 PUSH2 0xDBB JUMP JUMPDEST PUSH2 0x173F DUP2 PUSH2 0x1289 JUMP JUMPDEST PUSH2 0x1748 DUP2 PUSH2 0x1389 JUMP JUMPDEST PUSH2 0x1751 DUP2 PUSH2 0x1479 JUMP JUMPDEST PUSH2 0x3C0 DUP3 SUB PUSH1 0x40 MSTORE DUP1 PUSH1 0x0 MSTORE PUSH1 0x20 PUSH1 0x0 RETURN JUMPDEST PUSH1 0x0 DUP1 PUSH2 0x3A0 DUP1 DUP5 DUP7 SUB SLT ISZERO PUSH2 0x1778 JUMPI PUSH1 0x0 DUP1 REVERT JUMPDEST PUSH2 0x300 DUP5 ADD DUP6 DUP2 GT ISZERO PUSH2 0x178A JUMPI PUSH1 0x0 DUP1 REVERT JUMPDEST DUP5 SWAP4 POP DUP6 DUP3 DUP7 ADD GT ISZERO PUSH2 0x179C JUMPI PUSH1 0x0 DUP1 REVERT JUMPDEST DUP1 SWAP3 POP POP POP SWAP3 POP SWAP3 SWAP1 POP JUMP INVALID ADDRESS PUSH5 0x4E72E131A0 0x29 0xB8 POP GASLIMIT 0xB6 DUP2 DUP2 PC 0x5D SWAP8 DUP2 PUSH11 0x916871CA8D3C208C16D87C REVERT SELFBALANCE ADDRESS PUSH5 0x4E72E131A0 0x29 0xB8 POP GASLIMIT 0xB6 DUP2 DUP2 PC 0x5D 0x28 CALLER 0xE8 BASEFEE PUSH26 0xB9709143E1F593F00000010931D596DE2FD10F01DDD073FD5A90 0xA9 PUSH23 0xF169C76F039BB91C4775720042D43AA264697066735822 SLT KECCAK256 LOG4 CALL EXP PUSH13 0x496170F543EF22ADC489687F33 0xB3 DUP16 SLT 0x2C PUSH26 0x5B6907A728A4E2298F2464736F6C634300081100330000000000 "},"methodIdentifiers":{"verifyProof(uint256[24],uint256[5])":"4f6baab2"}}}}}