{"contracts/Groth16Verifier.sol":{"Groth16Verifier":{"abi":[{"inputs":[{"internalType":"uint256[2]","name":"_pA","type":"uint256[2]"},{"internalType":"uint256[2][2]","name":"_pB","type":"uint256[2][2]"},{"internalType":"uint256[2]","name":"_pC","type":"uint256[2]"},{"internalType":"uint256[5]","name":"_pubSignals","type":"uint256[5]"}],"name":"verifyProof","outputs":[{"internalType":"bool","name":"","type":"bool"}],"stateMutability":"view","type":"function"}],"evm":{"bytecode":{"linkReferences":{},"object":"608060405234801561001057600080fd5b506106df806100206000396000f3fe608060405234801561001057600080fd5b506004361061002b5760003560e01c806334baeab914610030575b600080fd5b61004361003e366004610643565b610057565b604051901515815260200160405180910390f35b60006105ba565b7f30644e72e131a029b85045b68181585d2833e84879b9709143e1f593f0000001811061008f576000805260206000f35b50565b600060405183815284602082015285604082015260408160608360076107d05a03fa9150816100c5576000805260206000f35b825160408201526020830151606082015260408360808360066107d05a03fa915050806100f6576000805260206000f35b5050505050565b7f2ae433bd17ec1953af6e85d0fb20e425d28e65b4c3b9ac1ee2342fb954973e5e85527f2a6faae2608343cf504969672148078e9b750e0b78822055279e63c7848ce00160208601526000608086018661019a87357f1a55b88c0343039f44fa133bd0708fbcd29c6e692a2c3f91728ef1a4f9b978627f1247e19e9b5209803d10b25385595f8b6b47c4a2a43120dd1decf6c034f6f01784610092565b6101ea60208801357f153c008dacd573d9c3bace6ebdcf456059cea10b85153d7782229e06387ce5647f1bc8e27b36fb9a2f256815f28da8c297b7ba81469cf75c736304fd19d12e84a584610092565b61023a60408801357f0cf07455bf3c322866e93d2fdbad97eee7eb47ecbed912ef50a52d815afecff47f1c4b17d3427184091b39d98bc9735cd0ff536cd74eb7b0e084934da216f5d22f84610092565b61028a60608801357f2a7f9edafe1d302b4c6ac853ae36ebac867e53c6d4638ae257b201bba8db604f7f0bcf99fccdbf73db41b4a7057b4f066808ea03023fc33580e362bf5d59d7756184610092565b6102da60808801357f1732b4dffe5b6719b0a43651d37aa170ab6c56164fdc43920d4d0b1bea0021657f1ceec8c0bf54837305150afbfd39b5e93eb88a3852e33edda3f65c70961b4a7e84610092565b50823581527f30644e72e131a029b85045b68181585d97816a916871ca8d3c208c16d87cfd4760208401357f30644e72e131a029b85045b68181585d97816a916871ca8d3c208c16d87cfd4703066020820152833560408201526020840135606082015260408401356080820152606084013560a08201527f17aeb20b3e787f3eb4e2b6e8904ae9678a0166255eac045207ff136923e66f2260c08201527f2258f9baf4f6e3ef9da506777a3040a3d967af1b4823a097d67cef40c4d28e1160e08201527f06c88fff583937630136abc58a5d5f7571543c8c2fc04debf306cfdc8e66b8756101008201527f1c1d39126e5edfaa334eef972d665d537619a20346174b63ec9c772eaa8f5e046101208201527f1c2b6d7395903ea29675bf080bcf9f210b2a187c36286b911fbd79530a2ed3d96101408201527f2e7114a42703fbb67cb9fb8d8c7f6413dbe56b8b1ea07a2941714c09f4c913ad610160820152600087015161018082015260206000018701516101a08201527f198e9393920d483a7260bfb731fb5d25f1aa493335a9e71297e485b7aef312c26101c08201527f1800deef121f1e76426a00665e5c4479674322d4f75edadd46debd5cd992f6ed6101e08201527f090689d0585ff075ec9e99ad690c3395bc4b313370b38ef355acdadcd122975b6102008201527f12c85ea5db8c6deb4aab71808dcb408fe3d1e7690c43d37b4ce6cc0166fa7daa610220820152843561024082015260208501356102608201527f0dc4e99ce99cf8d692d526429ff1a541ff4230c0eb5e311a44472222f59c37076102808201527f2b013c13cf6a3b8ee26304bcbd5e97cc084d85f70d13fd53d9a22a470be23be36102a08201527f1532d70a6e4100b5608694730d45dae54baed649c25230790224a05be35db5f16102c08201527f139e37efc028f0abbed0ac0534e14c0ed8293d64400ad1c1a5b0de84c3fcb3a06102e08201526020816103008360086107d05a03fa9051169695505050505050565b60405161038081016040526105d2600084013561005e565b6105df602084013561005e565b6105ec604084013561005e565b6105f9606084013561005e565b610606608084013561005e565b61061360a084013561005e565b610620818486888a6100fd565b90508060005260206000f35b806040810183101561063d57600080fd5b92915050565b6000806000806101a080868803121561065b57600080fd5b610665878761062c565b945060c086018781111561067857600080fd5b604087019450610688888261062c565b93505086818701111561069a57600080fd5b5092959194509261010001915056fea264697066735822122008b8f3286b07f428391c604391c033f2bc19018cadf34b95694bd4090bf07ddd64736f6c63430008110033","opcodes":"PUSH1 0x80 PUSH1 0x40 MSTORE CALLVALUE DUP1 ISZERO PUSH2 0x10 JUMPI PUSH1 0x0 DUP1 REVERT JUMPDEST POP PUSH2 0x6DF DUP1 PUSH2 0x20 PUSH1 0x0 CODECOPY PUSH1 0x0 RETURN INVALID PUSH1 0x80 PUSH1 0x40 MSTORE CALLVALUE DUP1 ISZERO PUSH2 0x10 JUMPI PUSH1 0x0 DUP1 REVERT JUMPDEST POP PUSH1 0x4 CALLDATASIZE LT PUSH2 0x2B JUMPI PUSH1 0x0 CALLDATALOAD PUSH1 0xE0 SHR DUP1 PUSH4 0x34BAEAB9 EQ PUSH2 0x30 JUMPI JUMPDEST PUSH1 0x0 DUP1 REVERT JUMPDEST PUSH2 0x43 PUSH2 0x3E CALLDATASIZE PUSH1 0x4 PUSH2 0x643 JUMP JUMPDEST PUSH2 0x57 JUMP JUMPDEST PUSH1 0x40 MLOAD SWAP1 ISZERO ISZERO DUP2 MSTORE PUSH1 0x20 ADD PUSH1 0x40 MLOAD DUP1 SWAP2 SUB SWAP1 RETURN JUMPDEST PUSH1 0x0 PUSH2 0x5BA JUMP JUMPDEST PUSH32 0x30644E72E131A029B85045B68181585D2833E84879B9709143E1F593F0000001 DUP2 LT PUSH2 0x8F JUMPI PUSH1 0x0 DUP1 MSTORE PUSH1 0x20 PUSH1 0x0 RETURN JUMPDEST POP JUMP JUMPDEST PUSH1 0x0 PUSH1 0x40 MLOAD DUP4 DUP2 MSTORE DUP5 PUSH1 0x20 DUP3 ADD MSTORE DUP6 PUSH1 0x40 DUP3 ADD MSTORE PUSH1 0x40 DUP2 PUSH1 0x60 DUP4 PUSH1 0x7 PUSH2 0x7D0 GAS SUB STATICCALL SWAP2 POP DUP2 PUSH2 0xC5 JUMPI PUSH1 0x0 DUP1 MSTORE PUSH1 0x20 PUSH1 0x0 RETURN JUMPDEST DUP3 MLOAD PUSH1 0x40 DUP3 ADD MSTORE PUSH1 0x20 DUP4 ADD MLOAD PUSH1 0x60 DUP3 ADD MSTORE PUSH1 0x40 DUP4 PUSH1 0x80 DUP4 PUSH1 0x6 PUSH2 0x7D0 GAS SUB STATICCALL SWAP2 POP POP DUP1 PUSH2 0xF6 JUMPI PUSH1 0x0 DUP1 MSTORE PUSH1 0x20 PUSH1 0x0 RETURN JUMPDEST POP POP POP POP POP JUMP JUMPDEST PUSH32 0x2AE433BD17EC1953AF6E85D0FB20E425D28E65B4C3B9AC1EE2342FB954973E5E DUP6 MSTORE PUSH32 0x2A6FAAE2608343CF504969672148078E9B750E0B78822055279E63C7848CE001 PUSH1 0x20 DUP7 ADD MSTORE PUSH1 0x0 PUSH1 0x80 DUP7 ADD DUP7 PUSH2 0x19A DUP8 CALLDATALOAD PUSH32 0x1A55B88C0343039F44FA133BD0708FBCD29C6E692A2C3F91728EF1A4F9B97862 PUSH32 0x1247E19E9B5209803D10B25385595F8B6B47C4A2A43120DD1DECF6C034F6F017 DUP5 PUSH2 0x92 JUMP JUMPDEST PUSH2 0x1EA PUSH1 0x20 DUP9 ADD CALLDATALOAD PUSH32 0x153C008DACD573D9C3BACE6EBDCF456059CEA10B85153D7782229E06387CE564 PUSH32 0x1BC8E27B36FB9A2F256815F28DA8C297B7BA81469CF75C736304FD19D12E84A5 DUP5 PUSH2 0x92 JUMP JUMPDEST PUSH2 0x23A PUSH1 0x40 DUP9 ADD CALLDATALOAD PUSH32 0xCF07455BF3C322866E93D2FDBAD97EEE7EB47ECBED912EF50A52D815AFECFF4 PUSH32 0x1C4B17D3427184091B39D98BC9735CD0FF536CD74EB7B0E084934DA216F5D22F DUP5 PUSH2 0x92 JUMP JUMPDEST PUSH2 0x28A PUSH1 0x60 DUP9 ADD CALLDATALOAD PUSH32 0x2A7F9EDAFE1D302B4C6AC853AE36EBAC867E53C6D4638AE257B201BBA8DB604F PUSH32 0xBCF99FCCDBF73DB41B4A7057B4F066808EA03023FC33580E362BF5D59D77561 DUP5 PUSH2 0x92 JUMP JUMPDEST PUSH2 0x2DA PUSH1 0x80 DUP9 ADD CALLDATALOAD PUSH32 0x1732B4DFFE5B6719B0A43651D37AA170AB6C56164FDC43920D4D0B1BEA002165 PUSH32 0x1CEEC8C0BF54837305150AFBFD39B5E93EB88A3852E33EDDA3F65C70961B4A7E DUP5 PUSH2 0x92 JUMP JUMPDEST POP DUP3 CALLDATALOAD DUP2 MSTORE PUSH32 0x30644E72E131A029B85045B68181585D97816A916871CA8D3C208C16D87CFD47 PUSH1 0x20 DUP5 ADD CALLDATALOAD PUSH32 0x30644E72E131A029B85045B68181585D97816A916871CA8D3C208C16D87CFD47 SUB MOD PUSH1 0x20 DUP3 ADD MSTORE DUP4 CALLDATALOAD PUSH1 0x40 DUP3 ADD MSTORE PUSH1 0x20 DUP5 ADD CALLDATALOAD PUSH1 0x60 DUP3 ADD MSTORE PUSH1 0x40 DUP5 ADD CALLDATALOAD PUSH1 0x80 DUP3 ADD MSTORE PUSH1 0x60 DUP5 ADD CALLDATALOAD PUSH1 0xA0 DUP3 ADD MSTORE PUSH32 0x17AEB20B3E787F3EB4E2B6E8904AE9678A0166255EAC045207FF136923E66F22 PUSH1 0xC0 DUP3 ADD MSTORE PUSH32 0x2258F9BAF4F6E3EF9DA506777A3040A3D967AF1B4823A097D67CEF40C4D28E11 PUSH1 0xE0 DUP3 ADD MSTORE PUSH32 0x6C88FFF583937630136ABC58A5D5F7571543C8C2FC04DEBF306CFDC8E66B875 PUSH2 0x100 DUP3 ADD MSTORE PUSH32 0x1C1D39126E5EDFAA334EEF972D665D537619A20346174B63EC9C772EAA8F5E04 PUSH2 0x120 DUP3 ADD MSTORE PUSH32 0x1C2B6D7395903EA29675BF080BCF9F210B2A187C36286B911FBD79530A2ED3D9 PUSH2 0x140 DUP3 ADD MSTORE PUSH32 0x2E7114A42703FBB67CB9FB8D8C7F6413DBE56B8B1EA07A2941714C09F4C913AD PUSH2 0x160 DUP3 ADD MSTORE PUSH1 0x0 DUP8 ADD MLOAD PUSH2 0x180 DUP3 ADD MSTORE PUSH1 0x20 PUSH1 0x0 ADD DUP8 ADD MLOAD PUSH2 0x1A0 DUP3 ADD MSTORE PUSH32 0x198E9393920D483A7260BFB731FB5D25F1AA493335A9E71297E485B7AEF312C2 PUSH2 0x1C0 DUP3 ADD MSTORE PUSH32 0x1800DEEF121F1E76426A00665E5C4479674322D4F75EDADD46DEBD5CD992F6ED PUSH2 0x1E0 DUP3 ADD MSTORE PUSH32 0x90689D0585FF075EC9E99AD690C3395BC4B313370B38EF355ACDADCD122975B PUSH2 0x200 DUP3 ADD MSTORE PUSH32 0x12C85EA5DB8C6DEB4AAB71808DCB408FE3D1E7690C43D37B4CE6CC0166FA7DAA PUSH2 0x220 DUP3 ADD MSTORE DUP5 CALLDATALOAD PUSH2 0x240 DUP3 ADD MSTORE PUSH1 0x20 DUP6 ADD CALLDATALOAD PUSH2 0x260 DUP3 ADD MSTORE PUSH32 0xDC4E99CE99CF8D692D526429FF1A541FF4230C0EB5E311A44472222F59C3707 PUSH2 0x280 DUP3 ADD MSTORE PUSH32 0x2B013C13CF6A3B8EE26304BCBD5E97CC084D85F70D13FD53D9A22A470BE23BE3 PUSH2 0x2A0 DUP3 ADD MSTORE PUSH32 0x1532D70A6E4100B5608694730D45DAE54BAED649C25230790224A05BE35DB5F1 PUSH2 0x2C0 DUP3 ADD MSTORE PUSH32 0x139E37EFC028F0ABBED0AC0534E14C0ED8293D64400AD1C1A5B0DE84C3FCB3A0 PUSH2 0x2E0 DUP3 ADD MSTORE PUSH1 0x20 DUP2 PUSH2 0x300 DUP4 PUSH1 0x8 PUSH2 0x7D0 GAS SUB STATICCALL SWAP1 MLOAD AND SWAP7 SWAP6 POP POP POP POP POP POP JUMP JUMPDEST PUSH1 0x40 MLOAD PUSH2 0x380 DUP2 ADD PUSH1 0x40 MSTORE PUSH2 0x5D2 PUSH1 0x0 DUP5 ADD CALLDATALOAD PUSH2 0x5E JUMP JUMPDEST PUSH2 0x5DF PUSH1 0x20 DUP5 ADD CALLDATALOAD PUSH2 0x5E JUMP JUMPDEST PUSH2 0x5EC PUSH1 0x40 DUP5 ADD CALLDATALOAD PUSH2 0x5E JUMP JUMPDEST PUSH2 0x5F9 PUSH1 0x60 DUP5 ADD CALLDATALOAD PUSH2 0x5E JUMP JUMPDEST PUSH2 0x606 PUSH1 0x80 DUP5 ADD CALLDATALOAD PUSH2 0x5E JUMP JUMPDEST PUSH2 0x613 PUSH1 0xA0 DUP5 ADD CALLDATALOAD PUSH2 0x5E JUMP JUMPDEST PUSH2 0x620 DUP2 DUP5 DUP7 DUP9 DUP11 PUSH2 0xFD JUMP JUMPDEST SWAP1 POP DUP1 PUSH1 0x0 MSTORE PUSH1 0x20 PUSH1 0x0 RETURN JUMPDEST DUP1 PUSH1 0x40 DUP2 ADD DUP4 LT ISZERO PUSH2 0x63D JUMPI PUSH1 0x0 DUP1 REVERT JUMPDEST SWAP3 SWAP2 POP POP JUMP JUMPDEST PUSH1 0x0 DUP1 PUSH1 0x0 DUP1 PUSH2 0x1A0 DUP1 DUP7 DUP9 SUB SLT ISZERO PUSH2 0x65B JUMPI PUSH1 0x0 DUP1 REVERT JUMPDEST PUSH2 0x665 DUP8 DUP8 PUSH2 0x62C JUMP JUMPDEST SWAP5 POP PUSH1 0xC0 DUP7 ADD DUP8 DUP2 GT ISZERO PUSH2 0x678 JUMPI PUSH1 0x0 DUP1 REVERT JUMPDEST PUSH1 0x40 DUP8 ADD SWAP5 POP PUSH2 0x688 DUP9 DUP3 PUSH2 0x62C JUMP JUMPDEST SWAP4 POP POP DUP7 DUP2 DUP8 ADD GT ISZERO PUSH2 0x69A JUMPI PUSH1 0x0 DUP1 REVERT JUMPDEST POP SWAP3 SWAP6 SWAP2 SWAP5 POP SWAP3 PUSH2 0x100 ADD SWAP2 POP JUMP INVALID LOG2 PUSH5 0x6970667358 0x22 SLT KECCAK256 ADDMOD 0xB8 RETURN 0x28 PUSH12 0x7F428391C604391C033F2BC NOT ADD DUP13 0xAD RETURN 0x4B SWAP6 PUSH10 0x4BD4090BF07DDD64736F PUSH13 0x63430008110033000000000000 "},"methodIdentifiers":{"verifyProof(uint256[2],uint256[2][2],uint256[2],uint256[5])":"34baeab9"}}}}}