{"contracts/Agreement.sol":{"zkAgreement":{"abi":[{"inputs":[{"internalType":"address","name":"_hasher","type":"address"},{"internalType":"address","name":"_verifier","type":"address"}],"stateMutability":"nonpayable","type":"constructor"},{"anonymous":false,"inputs":[{"indexed":false,"internalType":"uint256","name":"root","type":"uint256"},{"indexed":false,"internalType":"uint256[10]","name":"hashPairings","type":"uint256[10]"},{"indexed":false,"internalType":"uint8[10]","name":"pairDirection","type":"uint8[10]"}],"name":"Agreement","type":"event"},{"inputs":[{"internalType":"uint256","name":"_commitment","type":"uint256"}],"name":"agreement","outputs":[],"stateMutability":"payable","type":"function"},{"inputs":[{"internalType":"uint256","name":"","type":"uint256"}],"name":"commitments","outputs":[{"internalType":"bool","name":"","type":"bool"}],"stateMutability":"view","type":"function"},{"inputs":[],"name":"denomination","outputs":[{"internalType":"uint256","name":"","type":"uint256"}],"stateMutability":"view","type":"function"},{"inputs":[],"name":"nextLeafIdx","outputs":[{"internalType":"uint256","name":"","type":"uint256"}],"stateMutability":"view","type":"function"},{"inputs":[{"internalType":"uint256","name":"","type":"uint256"}],"name":"nullifierHashes","outputs":[{"internalType":"bool","name":"","type":"bool"}],"stateMutability":"view","type":"function"},{"inputs":[{"internalType":"uint256","name":"","type":"uint256"}],"name":"roots","outputs":[{"internalType":"bool","name":"","type":"bool"}],"stateMutability":"view","type":"function"},{"inputs":[],"name":"treeLevel","outputs":[{"internalType":"uint256","name":"","type":"uint256"}],"stateMutability":"view","type":"function"}],"evm":{"bytecode":{"linkReferences":{},"object":"600a6002819055670de0b6b3a764000060035560006004556101c06040527f8cfd904a1564f728bad463e11678c335bbe7bb55e73a07588b14f8bd04545c3d60809081527f3a362132ff01c0f19143e7526b28c6fdcabecaad0dfcdfdf6d8f23483b99438460a0527fcafc0f3216abfccb1134117a825ba2e17388c9b09877b1fee9873697c41de04460c0527f52d21251f1b6967a0505130ebea06b9d8e8cb000abe492df5259d6678b0e215360e0527f1548db067f3cf9a942c70c5ce0b6048806dd74e2b709f1d30e7a191548943a9d610100527f1ea1a9099c5691137f1d3d1830867cdd75c536dff279663aefb7b49f7798f4cb610120527f772dac99aed444be6218c8da12c933163e165b31f1099b7869f4ec29ba4da1c7610140527fc1c6314026af83a766e1ad18d985ac243fadcf9c07932757904500e6cff80b98610160527fa23d32762958399632e9e0b52d049042041484a30974a83254af4e50893ad991610180527f7ae8404bbd3493825346a185473e48d1015672145bef4cd06002212e65ed18ce6101a05261019a91600991906101f1565b503480156101a757600080fd5b50604051610a9f380380610a9f8339810160408190526101c691610260565b506001600081905580546001600160a01b0319166001600160a01b0392909216919091179055610293565b82600a810192821561021f579160200282015b8281111561021f578251825591602001919060010190610204565b5061022b92915061022f565b5090565b5b8082111561022b5760008155600101610230565b80516001600160a01b038116811461025b57600080fd5b919050565b6000806040838503121561027357600080fd5b61027c83610244565b915061028a60208401610244565b90509250929050565b6107fd806102a26000396000f3fe6080604052600436106100705760003560e01c80638bca6d161161004e5780638bca6d161461010e578063b8e7956414610124578063c2b40ae41461013a578063d5a7420d1461016a57600080fd5b80631f79a1e91461007557806345e0523f146100ba57806349ce8997146100de575b600080fd5b34801561008157600080fd5b506100a5610090366004610562565b60076020526000908152604090205460ff1681565b60405190151581526020015b60405180910390f35b3480156100c657600080fd5b506100d060045481565b6040519081526020016100b1565b3480156100ea57600080fd5b506100a56100f9366004610562565b60086020526000908152604090205460ff1681565b34801561011a57600080fd5b506100d060035481565b34801561013057600080fd5b506100d060025481565b34801561014657600080fd5b506100a5610155366004610562565b60056020526000908152604090205460ff1681565b61017d610178366004610562565b61017f565b005b6101876104cc565b60008181526008602052604090205460ff16156101eb5760405162461bcd60e51b815260206004820152601960248201527f6475706c696361746520636f6d6d69746d656e7420686173680000000000000060448201526064015b60405180910390fd5b600280546101f891610677565b6004541061023b5760405162461bcd60e51b815260206004820152601060248201526f1d1a19481d1c9959481a5cc8199d5b1b60821b60448201526064016101e2565b6000610245610525565b61024d610525565b6004548460008061025c610544565b60005b6002548160ff161015610428576102776002876106a0565b6000036102f65784935060098160ff16600a8110610297576102976106b4565b0154925060098160ff16600a81106102b1576102b16106b4565b0154888260ff16600a81106102c8576102c86106b4565b602002015260008760ff8316600a81106102e4576102e46106b4565b60ff909216602092909202015261034c565b60ff8116600081815260066020526040902054945085935084908990600a8110610322576103226106b4565b602002015260018760ff8316600a811061033e5761033e6106b4565b60ff90921660209290920201525b60ff81166000908152600660205260408120869055849083906020020152828260016020020181815250506000600160009054906101000a90046001600160a01b03166001600160a01b031663d622e5a4620249f0858e6040518463ffffffff1660e01b81526004016103c09291906106ca565b6020604051808303818786fa1580156103dd573d6000803e3d6000fd5b50505050506040513d601f19601f820116820180604052508101906104029190610702565b955085905061041260028861071b565b96505080806104209061072f565b91505061025f565b506000848152600560205260408120805460ff1916600190811790915560048054969a508a969192909161045d90849061074e565b909155505060008981526008602052604090819020805460ff19166001179055517fbe4e22d3d7564a83a1240bc208430e93166c4bf27a6ed14c1078641746795cb3906104af908a908a908a90610761565b60405180910390a150505050505050506104c96001600055565b50565b60026000540361051e5760405162461bcd60e51b815260206004820152601f60248201527f5265656e7472616e637947756172643a207265656e7472616e742063616c6c0060448201526064016101e2565b6002600055565b604051806101400160405280600a906020820280368337509192915050565b60405180604001604052806002906020820280368337509192915050565b60006020828403121561057457600080fd5b5035919050565b634e487b7160e01b600052601160045260246000fd5b600181815b808511156105cc5781600019048211156105b2576105b261057b565b808516156105bf57918102915b93841c9390800290610596565b509250929050565b6000826105e357506001610671565b816105f057506000610671565b816001811461060657600281146106105761062c565b6001915050610671565b60ff8411156106215761062161057b565b50506001821b610671565b5060208310610133831016604e8410600b841016171561064f575081810a610671565b6106598383610591565b806000190482111561066d5761066d61057b565b0290505b92915050565b600061068383836105d4565b9392505050565b634e487b7160e01b600052601260045260246000fd5b6000826106af576106af61068a565b500690565b634e487b7160e01b600052603260045260246000fd5b60608101818460005b60028110156106f25781518352602092830192909101906001016106d3565b5050508260408301529392505050565b60006020828403121561071457600080fd5b5051919050565b60008261072a5761072a61068a565b500490565b600060ff821660ff81036107455761074561057b565b60010192915050565b808201808211156106715761067161057b565b8381526102a0810160208083018560005b600a81101561078f57815183529183019190830190600101610772565b50505061016083018460005b600a8110156107bb57815160ff168352918301919083019060010161079b565b5050505094935050505056fea26469706673582212206837c745e18c197c9a8f4ad219c3cdc4ffe2b19f8da722ba52d1e07f2f64ebf364736f6c63430008110033","opcodes":"PUSH1 0xA PUSH1 0x2 DUP2 SWAP1 SSTORE PUSH8 0xDE0B6B3A7640000 PUSH1 0x3 SSTORE PUSH1 0x0 PUSH1 0x4 SSTORE PUSH2 0x1C0 PUSH1 0x40 MSTORE PUSH32 0x8CFD904A1564F728BAD463E11678C335BBE7BB55E73A07588B14F8BD04545C3D PUSH1 0x80 SWAP1 DUP2 MSTORE PUSH32 0x3A362132FF01C0F19143E7526B28C6FDCABECAAD0DFCDFDF6D8F23483B994384 PUSH1 0xA0 MSTORE PUSH32 0xCAFC0F3216ABFCCB1134117A825BA2E17388C9B09877B1FEE9873697C41DE044 PUSH1 0xC0 MSTORE PUSH32 0x52D21251F1B6967A0505130EBEA06B9D8E8CB000ABE492DF5259D6678B0E2153 PUSH1 0xE0 MSTORE PUSH32 0x1548DB067F3CF9A942C70C5CE0B6048806DD74E2B709F1D30E7A191548943A9D PUSH2 0x100 MSTORE PUSH32 0x1EA1A9099C5691137F1D3D1830867CDD75C536DFF279663AEFB7B49F7798F4CB PUSH2 0x120 MSTORE PUSH32 0x772DAC99AED444BE6218C8DA12C933163E165B31F1099B7869F4EC29BA4DA1C7 PUSH2 0x140 MSTORE PUSH32 0xC1C6314026AF83A766E1AD18D985AC243FADCF9C07932757904500E6CFF80B98 PUSH2 0x160 MSTORE PUSH32 0xA23D32762958399632E9E0B52D049042041484A30974A83254AF4E50893AD991 PUSH2 0x180 MSTORE PUSH32 0x7AE8404BBD3493825346A185473E48D1015672145BEF4CD06002212E65ED18CE PUSH2 0x1A0 MSTORE PUSH2 0x19A SWAP2 PUSH1 0x9 SWAP2 SWAP1 PUSH2 0x1F1 JUMP JUMPDEST POP CALLVALUE DUP1 ISZERO PUSH2 0x1A7 JUMPI PUSH1 0x0 DUP1 REVERT JUMPDEST POP PUSH1 0x40 MLOAD PUSH2 0xA9F CODESIZE SUB DUP1 PUSH2 0xA9F DUP4 CODECOPY DUP2 ADD PUSH1 0x40 DUP2 SWAP1 MSTORE PUSH2 0x1C6 SWAP2 PUSH2 0x260 JUMP JUMPDEST POP PUSH1 0x1 PUSH1 0x0 DUP2 SWAP1 SSTORE DUP1 SLOAD PUSH1 0x1 PUSH1 0x1 PUSH1 0xA0 SHL SUB NOT AND PUSH1 0x1 PUSH1 0x1 PUSH1 0xA0 SHL SUB SWAP3 SWAP1 SWAP3 AND SWAP2 SWAP1 SWAP2 OR SWAP1 SSTORE PUSH2 0x293 JUMP JUMPDEST DUP3 PUSH1 0xA DUP2 ADD SWAP3 DUP3 ISZERO PUSH2 0x21F JUMPI SWAP2 PUSH1 0x20 MUL DUP3 ADD JUMPDEST DUP3 DUP2 GT ISZERO PUSH2 0x21F JUMPI DUP3 MLOAD DUP3 SSTORE SWAP2 PUSH1 0x20 ADD SWAP2 SWAP1 PUSH1 0x1 ADD SWAP1 PUSH2 0x204 JUMP JUMPDEST POP PUSH2 0x22B SWAP3 SWAP2 POP PUSH2 0x22F JUMP JUMPDEST POP SWAP1 JUMP JUMPDEST JUMPDEST DUP1 DUP3 GT ISZERO PUSH2 0x22B JUMPI PUSH1 0x0 DUP2 SSTORE PUSH1 0x1 ADD PUSH2 0x230 JUMP JUMPDEST DUP1 MLOAD PUSH1 0x1 PUSH1 0x1 PUSH1 0xA0 SHL SUB DUP2 AND DUP2 EQ PUSH2 0x25B JUMPI PUSH1 0x0 DUP1 REVERT JUMPDEST SWAP2 SWAP1 POP JUMP JUMPDEST PUSH1 0x0 DUP1 PUSH1 0x40 DUP4 DUP6 SUB SLT ISZERO PUSH2 0x273 JUMPI PUSH1 0x0 DUP1 REVERT JUMPDEST PUSH2 0x27C DUP4 PUSH2 0x244 JUMP JUMPDEST SWAP2 POP PUSH2 0x28A PUSH1 0x20 DUP5 ADD PUSH2 0x244 JUMP JUMPDEST SWAP1 POP SWAP3 POP SWAP3 SWAP1 POP JUMP JUMPDEST PUSH2 0x7FD DUP1 PUSH2 0x2A2 PUSH1 0x0 CODECOPY PUSH1 0x0 RETURN INVALID PUSH1 0x80 PUSH1 0x40 MSTORE PUSH1 0x4 CALLDATASIZE LT PUSH2 0x70 JUMPI PUSH1 0x0 CALLDATALOAD PUSH1 0xE0 SHR DUP1 PUSH4 0x8BCA6D16 GT PUSH2 0x4E JUMPI DUP1 PUSH4 0x8BCA6D16 EQ PUSH2 0x10E JUMPI DUP1 PUSH4 0xB8E79564 EQ PUSH2 0x124 JUMPI DUP1 PUSH4 0xC2B40AE4 EQ PUSH2 0x13A JUMPI DUP1 PUSH4 0xD5A7420D EQ PUSH2 0x16A JUMPI PUSH1 0x0 DUP1 REVERT JUMPDEST DUP1 PUSH4 0x1F79A1E9 EQ PUSH2 0x75 JUMPI DUP1 PUSH4 0x45E0523F EQ PUSH2 0xBA JUMPI DUP1 PUSH4 0x49CE8997 EQ PUSH2 0xDE JUMPI JUMPDEST PUSH1 0x0 DUP1 REVERT JUMPDEST CALLVALUE DUP1 ISZERO PUSH2 0x81 JUMPI PUSH1 0x0 DUP1 REVERT JUMPDEST POP PUSH2 0xA5 PUSH2 0x90 CALLDATASIZE PUSH1 0x4 PUSH2 0x562 JUMP JUMPDEST PUSH1 0x7 PUSH1 0x20 MSTORE PUSH1 0x0 SWAP1 DUP2 MSTORE PUSH1 0x40 SWAP1 KECCAK256 SLOAD PUSH1 0xFF AND DUP2 JUMP JUMPDEST PUSH1 0x40 MLOAD SWAP1 ISZERO ISZERO DUP2 MSTORE PUSH1 0x20 ADD JUMPDEST PUSH1 0x40 MLOAD DUP1 SWAP2 SUB SWAP1 RETURN JUMPDEST CALLVALUE DUP1 ISZERO PUSH2 0xC6 JUMPI PUSH1 0x0 DUP1 REVERT JUMPDEST POP PUSH2 0xD0 PUSH1 0x4 SLOAD DUP2 JUMP JUMPDEST PUSH1 0x40 MLOAD SWAP1 DUP2 MSTORE PUSH1 0x20 ADD PUSH2 0xB1 JUMP JUMPDEST CALLVALUE DUP1 ISZERO PUSH2 0xEA JUMPI PUSH1 0x0 DUP1 REVERT JUMPDEST POP PUSH2 0xA5 PUSH2 0xF9 CALLDATASIZE PUSH1 0x4 PUSH2 0x562 JUMP JUMPDEST PUSH1 0x8 PUSH1 0x20 MSTORE PUSH1 0x0 SWAP1 DUP2 MSTORE PUSH1 0x40 SWAP1 KECCAK256 SLOAD PUSH1 0xFF AND DUP2 JUMP JUMPDEST CALLVALUE DUP1 ISZERO PUSH2 0x11A JUMPI PUSH1 0x0 DUP1 REVERT JUMPDEST POP PUSH2 0xD0 PUSH1 0x3 SLOAD DUP2 JUMP JUMPDEST CALLVALUE DUP1 ISZERO PUSH2 0x130 JUMPI PUSH1 0x0 DUP1 REVERT JUMPDEST POP PUSH2 0xD0 PUSH1 0x2 SLOAD DUP2 JUMP JUMPDEST CALLVALUE DUP1 ISZERO PUSH2 0x146 JUMPI PUSH1 0x0 DUP1 REVERT JUMPDEST POP PUSH2 0xA5 PUSH2 0x155 CALLDATASIZE PUSH1 0x4 PUSH2 0x562 JUMP JUMPDEST PUSH1 0x5 PUSH1 0x20 MSTORE PUSH1 0x0 SWAP1 DUP2 MSTORE PUSH1 0x40 SWAP1 KECCAK256 SLOAD PUSH1 0xFF AND DUP2 JUMP JUMPDEST PUSH2 0x17D PUSH2 0x178 CALLDATASIZE PUSH1 0x4 PUSH2 0x562 JUMP JUMPDEST PUSH2 0x17F JUMP JUMPDEST STOP JUMPDEST PUSH2 0x187 PUSH2 0x4CC JUMP JUMPDEST PUSH1 0x0 DUP2 DUP2 MSTORE PUSH1 0x8 PUSH1 0x20 MSTORE PUSH1 0x40 SWAP1 KECCAK256 SLOAD PUSH1 0xFF AND ISZERO PUSH2 0x1EB JUMPI PUSH1 0x40 MLOAD PUSH3 0x461BCD PUSH1 0xE5 SHL DUP2 MSTORE PUSH1 0x20 PUSH1 0x4 DUP3 ADD MSTORE PUSH1 0x19 PUSH1 0x24 DUP3 ADD MSTORE PUSH32 0x6475706C696361746520636F6D6D69746D656E74206861736800000000000000 PUSH1 0x44 DUP3 ADD MSTORE PUSH1 0x64 ADD JUMPDEST PUSH1 0x40 MLOAD DUP1 SWAP2 SUB SWAP1 REVERT JUMPDEST PUSH1 0x2 DUP1 SLOAD PUSH2 0x1F8 SWAP2 PUSH2 0x677 JUMP JUMPDEST PUSH1 0x4 SLOAD LT PUSH2 0x23B JUMPI PUSH1 0x40 MLOAD PUSH3 0x461BCD PUSH1 0xE5 SHL DUP2 MSTORE PUSH1 0x20 PUSH1 0x4 DUP3 ADD MSTORE PUSH1 0x10 PUSH1 0x24 DUP3 ADD MSTORE PUSH16 0x1D1A19481D1C9959481A5CC8199D5B1B PUSH1 0x82 SHL PUSH1 0x44 DUP3 ADD MSTORE PUSH1 0x64 ADD PUSH2 0x1E2 JUMP JUMPDEST PUSH1 0x0 PUSH2 0x245 PUSH2 0x525 JUMP JUMPDEST PUSH2 0x24D PUSH2 0x525 JUMP JUMPDEST PUSH1 0x4 SLOAD DUP5 PUSH1 0x0 DUP1 PUSH2 0x25C PUSH2 0x544 JUMP JUMPDEST PUSH1 0x0 JUMPDEST PUSH1 0x2 SLOAD DUP2 PUSH1 0xFF AND LT ISZERO PUSH2 0x428 JUMPI PUSH2 0x277 PUSH1 0x2 DUP8 PUSH2 0x6A0 JUMP JUMPDEST PUSH1 0x0 SUB PUSH2 0x2F6 JUMPI DUP5 SWAP4 POP PUSH1 0x9 DUP2 PUSH1 0xFF AND PUSH1 0xA DUP2 LT PUSH2 0x297 JUMPI PUSH2 0x297 PUSH2 0x6B4 JUMP JUMPDEST ADD SLOAD SWAP3 POP PUSH1 0x9 DUP2 PUSH1 0xFF AND PUSH1 0xA DUP2 LT PUSH2 0x2B1 JUMPI PUSH2 0x2B1 PUSH2 0x6B4 JUMP JUMPDEST ADD SLOAD DUP9 DUP3 PUSH1 0xFF AND PUSH1 0xA DUP2 LT PUSH2 0x2C8 JUMPI PUSH2 0x2C8 PUSH2 0x6B4 JUMP JUMPDEST PUSH1 0x20 MUL ADD MSTORE PUSH1 0x0 DUP8 PUSH1 0xFF DUP4 AND PUSH1 0xA DUP2 LT PUSH2 0x2E4 JUMPI PUSH2 0x2E4 PUSH2 0x6B4 JUMP JUMPDEST PUSH1 0xFF SWAP1 SWAP3 AND PUSH1 0x20 SWAP3 SWAP1 SWAP3 MUL ADD MSTORE PUSH2 0x34C JUMP JUMPDEST PUSH1 0xFF DUP2 AND PUSH1 0x0 DUP2 DUP2 MSTORE PUSH1 0x6 PUSH1 0x20 MSTORE PUSH1 0x40 SWAP1 KECCAK256 SLOAD SWAP5 POP DUP6 SWAP4 POP DUP5 SWAP1 DUP10 SWAP1 PUSH1 0xA DUP2 LT PUSH2 0x322 JUMPI PUSH2 0x322 PUSH2 0x6B4 JUMP JUMPDEST PUSH1 0x20 MUL ADD MSTORE PUSH1 0x1 DUP8 PUSH1 0xFF DUP4 AND PUSH1 0xA DUP2 LT PUSH2 0x33E JUMPI PUSH2 0x33E PUSH2 0x6B4 JUMP JUMPDEST PUSH1 0xFF SWAP1 SWAP3 AND PUSH1 0x20 SWAP3 SWAP1 SWAP3 MUL ADD MSTORE JUMPDEST PUSH1 0xFF DUP2 AND PUSH1 0x0 SWAP1 DUP2 MSTORE PUSH1 0x6 PUSH1 0x20 MSTORE PUSH1 0x40 DUP2 KECCAK256 DUP7 SWAP1 SSTORE DUP5 SWAP1 DUP4 SWAP1 PUSH1 0x20 MUL ADD MSTORE DUP3 DUP3 PUSH1 0x1 PUSH1 0x20 MUL ADD DUP2 DUP2 MSTORE POP POP PUSH1 0x0 PUSH1 0x1 PUSH1 0x0 SWAP1 SLOAD SWAP1 PUSH2 0x100 EXP SWAP1 DIV PUSH1 0x1 PUSH1 0x1 PUSH1 0xA0 SHL SUB AND PUSH1 0x1 PUSH1 0x1 PUSH1 0xA0 SHL SUB AND PUSH4 0xD622E5A4 PUSH3 0x249F0 DUP6 DUP15 PUSH1 0x40 MLOAD DUP5 PUSH4 0xFFFFFFFF AND PUSH1 0xE0 SHL DUP2 MSTORE PUSH1 0x4 ADD PUSH2 0x3C0 SWAP3 SWAP2 SWAP1 PUSH2 0x6CA JUMP JUMPDEST PUSH1 0x20 PUSH1 0x40 MLOAD DUP1 DUP4 SUB DUP2 DUP8 DUP7 STATICCALL ISZERO DUP1 ISZERO PUSH2 0x3DD JUMPI RETURNDATASIZE PUSH1 0x0 DUP1 RETURNDATACOPY RETURNDATASIZE PUSH1 0x0 REVERT JUMPDEST POP POP POP POP POP PUSH1 0x40 MLOAD RETURNDATASIZE PUSH1 0x1F NOT PUSH1 0x1F DUP3 ADD AND DUP3 ADD DUP1 PUSH1 0x40 MSTORE POP DUP2 ADD SWAP1 PUSH2 0x402 SWAP2 SWAP1 PUSH2 0x702 JUMP JUMPDEST SWAP6 POP DUP6 SWAP1 POP PUSH2 0x412 PUSH1 0x2 DUP9 PUSH2 0x71B JUMP JUMPDEST SWAP7 POP POP DUP1 DUP1 PUSH2 0x420 SWAP1 PUSH2 0x72F JUMP JUMPDEST SWAP2 POP POP PUSH2 0x25F JUMP JUMPDEST POP PUSH1 0x0 DUP5 DUP2 MSTORE PUSH1 0x5 PUSH1 0x20 MSTORE PUSH1 0x40 DUP2 KECCAK256 DUP1 SLOAD PUSH1 0xFF NOT AND PUSH1 0x1 SWAP1 DUP2 OR SWAP1 SWAP2 SSTORE PUSH1 0x4 DUP1 SLOAD SWAP7 SWAP11 POP DUP11 SWAP7 SWAP2 SWAP3 SWAP1 SWAP2 PUSH2 0x45D SWAP1 DUP5 SWAP1 PUSH2 0x74E JUMP JUMPDEST SWAP1 SWAP2 SSTORE POP POP PUSH1 0x0 DUP10 DUP2 MSTORE PUSH1 0x8 PUSH1 0x20 MSTORE PUSH1 0x40 SWAP1 DUP2 SWAP1 KECCAK256 DUP1 SLOAD PUSH1 0xFF NOT AND PUSH1 0x1 OR SWAP1 SSTORE MLOAD PUSH32 0xBE4E22D3D7564A83A1240BC208430E93166C4BF27A6ED14C1078641746795CB3 SWAP1 PUSH2 0x4AF SWAP1 DUP11 SWAP1 DUP11 SWAP1 DUP11 SWAP1 PUSH2 0x761 JUMP JUMPDEST PUSH1 0x40 MLOAD DUP1 SWAP2 SUB SWAP1 LOG1 POP POP POP POP POP POP POP POP PUSH2 0x4C9 PUSH1 0x1 PUSH1 0x0 SSTORE JUMP JUMPDEST POP JUMP JUMPDEST PUSH1 0x2 PUSH1 0x0 SLOAD SUB PUSH2 0x51E JUMPI PUSH1 0x40 MLOAD PUSH3 0x461BCD PUSH1 0xE5 SHL DUP2 MSTORE PUSH1 0x20 PUSH1 0x4 DUP3 ADD MSTORE PUSH1 0x1F PUSH1 0x24 DUP3 ADD MSTORE PUSH32 0x5265656E7472616E637947756172643A207265656E7472616E742063616C6C00 PUSH1 0x44 DUP3 ADD MSTORE PUSH1 0x64 ADD PUSH2 0x1E2 JUMP JUMPDEST PUSH1 0x2 PUSH1 0x0 SSTORE JUMP JUMPDEST PUSH1 0x40 MLOAD DUP1 PUSH2 0x140 ADD PUSH1 0x40 MSTORE DUP1 PUSH1 0xA SWAP1 PUSH1 0x20 DUP3 MUL DUP1 CALLDATASIZE DUP4 CALLDATACOPY POP SWAP2 SWAP3 SWAP2 POP POP JUMP JUMPDEST PUSH1 0x40 MLOAD DUP1 PUSH1 0x40 ADD PUSH1 0x40 MSTORE DUP1 PUSH1 0x2 SWAP1 PUSH1 0x20 DUP3 MUL DUP1 CALLDATASIZE DUP4 CALLDATACOPY POP SWAP2 SWAP3 SWAP2 POP POP JUMP JUMPDEST PUSH1 0x0 PUSH1 0x20 DUP3 DUP5 SUB SLT ISZERO PUSH2 0x574 JUMPI PUSH1 0x0 DUP1 REVERT JUMPDEST POP CALLDATALOAD SWAP2 SWAP1 POP JUMP JUMPDEST PUSH4 0x4E487B71 PUSH1 0xE0 SHL PUSH1 0x0 MSTORE PUSH1 0x11 PUSH1 0x4 MSTORE PUSH1 0x24 PUSH1 0x0 REVERT JUMPDEST PUSH1 0x1 DUP2 DUP2 JUMPDEST DUP1 DUP6 GT ISZERO PUSH2 0x5CC JUMPI DUP2 PUSH1 0x0 NOT DIV DUP3 GT ISZERO PUSH2 0x5B2 JUMPI PUSH2 0x5B2 PUSH2 0x57B JUMP JUMPDEST DUP1 DUP6 AND ISZERO PUSH2 0x5BF JUMPI SWAP2 DUP2 MUL SWAP2 JUMPDEST SWAP4 DUP5 SHR SWAP4 SWAP1 DUP1 MUL SWAP1 PUSH2 0x596 JUMP JUMPDEST POP SWAP3 POP SWAP3 SWAP1 POP JUMP JUMPDEST PUSH1 0x0 DUP3 PUSH2 0x5E3 JUMPI POP PUSH1 0x1 PUSH2 0x671 JUMP JUMPDEST DUP2 PUSH2 0x5F0 JUMPI POP PUSH1 0x0 PUSH2 0x671 JUMP JUMPDEST DUP2 PUSH1 0x1 DUP2 EQ PUSH2 0x606 JUMPI PUSH1 0x2 DUP2 EQ PUSH2 0x610 JUMPI PUSH2 0x62C JUMP JUMPDEST PUSH1 0x1 SWAP2 POP POP PUSH2 0x671 JUMP JUMPDEST PUSH1 0xFF DUP5 GT ISZERO PUSH2 0x621 JUMPI PUSH2 0x621 PUSH2 0x57B JUMP JUMPDEST POP POP PUSH1 0x1 DUP3 SHL PUSH2 0x671 JUMP JUMPDEST POP PUSH1 0x20 DUP4 LT PUSH2 0x133 DUP4 LT AND PUSH1 0x4E DUP5 LT PUSH1 0xB DUP5 LT AND OR ISZERO PUSH2 0x64F JUMPI POP DUP2 DUP2 EXP PUSH2 0x671 JUMP JUMPDEST PUSH2 0x659 DUP4 DUP4 PUSH2 0x591 JUMP JUMPDEST DUP1 PUSH1 0x0 NOT DIV DUP3 GT ISZERO PUSH2 0x66D JUMPI PUSH2 0x66D PUSH2 0x57B JUMP JUMPDEST MUL SWAP1 POP JUMPDEST SWAP3 SWAP2 POP POP JUMP JUMPDEST PUSH1 0x0 PUSH2 0x683 DUP4 DUP4 PUSH2 0x5D4 JUMP JUMPDEST SWAP4 SWAP3 POP POP POP JUMP JUMPDEST PUSH4 0x4E487B71 PUSH1 0xE0 SHL PUSH1 0x0 MSTORE PUSH1 0x12 PUSH1 0x4 MSTORE PUSH1 0x24 PUSH1 0x0 REVERT JUMPDEST PUSH1 0x0 DUP3 PUSH2 0x6AF JUMPI PUSH2 0x6AF PUSH2 0x68A JUMP JUMPDEST POP MOD SWAP1 JUMP JUMPDEST PUSH4 0x4E487B71 PUSH1 0xE0 SHL PUSH1 0x0 MSTORE PUSH1 0x32 PUSH1 0x4 MSTORE PUSH1 0x24 PUSH1 0x0 REVERT JUMPDEST PUSH1 0x60 DUP2 ADD DUP2 DUP5 PUSH1 0x0 JUMPDEST PUSH1 0x2 DUP2 LT ISZERO PUSH2 0x6F2 JUMPI DUP2 MLOAD DUP4 MSTORE PUSH1 0x20 SWAP3 DUP4 ADD SWAP3 SWAP1 SWAP2 ADD SWAP1 PUSH1 0x1 ADD PUSH2 0x6D3 JUMP JUMPDEST POP POP POP DUP3 PUSH1 0x40 DUP4 ADD MSTORE SWAP4 SWAP3 POP POP POP JUMP JUMPDEST PUSH1 0x0 PUSH1 0x20 DUP3 DUP5 SUB SLT ISZERO PUSH2 0x714 JUMPI PUSH1 0x0 DUP1 REVERT JUMPDEST POP MLOAD SWAP2 SWAP1 POP JUMP JUMPDEST PUSH1 0x0 DUP3 PUSH2 0x72A JUMPI PUSH2 0x72A PUSH2 0x68A JUMP JUMPDEST POP DIV SWAP1 JUMP JUMPDEST PUSH1 0x0 PUSH1 0xFF DUP3 AND PUSH1 0xFF DUP2 SUB PUSH2 0x745 JUMPI PUSH2 0x745 PUSH2 0x57B JUMP JUMPDEST PUSH1 0x1 ADD SWAP3 SWAP2 POP POP JUMP JUMPDEST DUP1 DUP3 ADD DUP1 DUP3 GT ISZERO PUSH2 0x671 JUMPI PUSH2 0x671 PUSH2 0x57B JUMP JUMPDEST DUP4 DUP2 MSTORE PUSH2 0x2A0 DUP2 ADD PUSH1 0x20 DUP1 DUP4 ADD DUP6 PUSH1 0x0 JUMPDEST PUSH1 0xA DUP2 LT ISZERO PUSH2 0x78F JUMPI DUP2 MLOAD DUP4 MSTORE SWAP2 DUP4 ADD SWAP2 SWAP1 DUP4 ADD SWAP1 PUSH1 0x1 ADD PUSH2 0x772 JUMP JUMPDEST POP POP POP PUSH2 0x160 DUP4 ADD DUP5 PUSH1 0x0 JUMPDEST PUSH1 0xA DUP2 LT ISZERO PUSH2 0x7BB JUMPI DUP2 MLOAD PUSH1 0xFF AND DUP4 MSTORE SWAP2 DUP4 ADD SWAP2 SWAP1 DUP4 ADD SWAP1 PUSH1 0x1 ADD PUSH2 0x79B JUMP JUMPDEST POP POP POP POP SWAP5 SWAP4 POP POP POP POP JUMP INVALID LOG2 PUSH5 0x6970667358 0x22 SLT KECCAK256 PUSH9 0x37C745E18C197C9A8F 0x4A 0xD2 NOT 0xC3 0xCD 0xC4 SELFDESTRUCT 0xE2 0xB1 SWAP16 DUP14 0xA7 0x22 0xBA MSTORE 0xD1 0xE0 PUSH32 0x2F64EBF364736F6C634300081100330000000000000000000000000000000000 "},"methodIdentifiers":{"agreement(uint256)":"d5a7420d","commitments(uint256)":"49ce8997","denomination()":"8bca6d16","nextLeafIdx()":"45e0523f","nullifierHashes(uint256)":"1f79a1e9","roots(uint256)":"c2b40ae4","treeLevel()":"b8e79564"}}}}}