{
  "_format": "hh-sol-artifact-1",
  "contractName": "PlonkVerifier",
  "sourceName": "contracts/PlonkVerifier.sol",
  "abi": [
    {
      "inputs": [
        {
          "internalType": "uint256[24]",
          "name": "_proof",
          "type": "uint256[24]"
        },
        {
          "internalType": "uint256[5]",
          "name": "_pubSignals",
          "type": "uint256[5]"
        }
      ],
      "name": "verifyProof",
      "outputs": [
        {
          "internalType": "bool",
          "name": "",
          "type": "bool"
        }
      ],
      "stateMutability": "view",
      "type": "function"
    }
  ],
  "bytecode": "0x608060405234801561001057600080fd5b5061183e806100206000396000f3fe608060405234801561001057600080fd5b506004361061002b5760003560e01c80634f6baab214610030575b600080fd5b61004361003e366004611763565b610057565b604051901515815260200160405180910390f35b60006116f4565b600080600184846000805b821561008b575092938183058581029091039350909181830290039081610069565b505050600181111561009c57600080fd5b505060008112156100aa5783015b9392505050565b60405181602084028301815160208301925060005b828410156100f7578185526000805160206117c98339815191528451830991506020850194506020840193506100c6565b61010f6000805160206117c98339815191528361005e565b91506020850394506020840393508592505b82841115610166576000805160206117c98339815191528551830990506000805160206117c983398151915284518309818552601f1995860195909401939150610121565b5090915250505050565b6000805160206117c9833981519152811061018f576000805260206000f35b50565b61019e61024435610170565b6101aa61026435610170565b6101b661028435610170565b6101c26102a435610170565b6101ce6102c435610170565b6101da6102e435610170565b565b604080517f18d9e33e2032ebdb28916b3b6678cbed5f9aced5344d41bd41e7f41e08ac73cc81527f0795f2589bd4808f0e0329ab2c56a6f58acf10ddcbecc750fefa4e044888e78b60208083019182527f2b285a6145694457a99c7a39d0112d022949f5632b193f8d8484d7b2597187188385019081527f066ba1c3252f39eab44d8c305ca3365da94ebe5f32cd053cef0307a390dd619e60608086019182527f0bda53f136f579cd2fbe0725cca9cc8b3b0ab97897c57e198c8e94866b1dc7296080808801919091527f177bc5ab3cbae0357a7f18dd2bb407cdb49ca8a116bc95ab07ad9284d4cbb34b60a08801527f2ba23beef6a2cabf1dda49b6eec6c83c11b32540b80e81f41775db0da5031b8f60c08801527f15d510a27b23ab67ea5b131e9f9f9f07c2a1ae171deb2b861c614fa881852c7360e08801527f093750f846566080741ec04df784b0cb89fd5d9b9228dec83ba418b5c076e8f96101008801527f2413bae5569840f846ec51114ad93281b13ab6768defc0592081f726dc49ff5b6101208801527f2b0bacdbdbd2712f89c309ccb87d88f80843d811ce2c762ee1d68ed1a8629adf6101408801527f14ebe97446e09c184ec09ae628405bbaefebebd403c579df716413e9cbcb45b86101608801527f252e014584ba766c745eee9d60245d656a32742acf2e38881ac907bf45f643706101808801527f1414968417bf4e34d6658b659968bbb34b92ec09566cb184d2b5392dc8e21d826101a08801527f1b57b7b5c831d6c0fa2e099a1646c1ef236e6857976ede99e0208de1b31f0a926101c08801527f0d90d393e049966a21e3adc92030dc5a105f5f0491c0d3ee1b9afe5ccff10c196101e08801528935610200880152898501356102208801528988013561024088015290890135610260870152888101356102808701526004356102a08701526024356102c08701526044356102e087015260643561030087015260843561032087015260a43561034087015261036086206000805160206117c98339815191529081900689860181815295909520819006978901978852848752965190945260c43590915260e435905290822083900680855290929091908280096102c08501528181526101043560208201526020610104013560408201526101443560608201526020610144013560808201526101843560a08201526020610184013560c08201526000805160206117c983398151915260e082200691508160608501528181526102443560208201526102643560408201526102843560608201526102a43560808201526102c43560a08201526102e43560c08201526000805160206117c983398151915260e08220068060c08601526000805160206117c983398151915283850960a08601526000805160206117c983398151915283840992506000805160206117c983398151915283840992506000805160206117c983398151915283840992506000805160206117c983398151915283840992506000805160206117c983398151915283840992506000805160206117c983398151915283840992506000805160206117c983398151915283840992506000805160206117c983398151915283840992506000805160206117c983398151915283840992506000805160206117c983398151915283840992506000805160206117c983398151915283840992506000805160206117c983398151915283840992508260808601526000805160206117c9833981519152806001850301069250826102e0860152826103008601526000805160206117c983398151915281820992508260e08601526000805160206117c98339815191528184099250826101008601526000805160206117c98339815191528184099250826101208601526000805160206117c9833981519152818409610140860152506101c43581526101e4356020820152610204356040820152610224356060820152608090206000805160206117c9833981519152900661016090930192909252505050565b60016000805160206117c9833981519152806000805160206117c9833981519152836060860151030106611000096103208301526000805160206117c98339815191526000805160206117e9833981519152820990506000805160206117c9833981519152806000805160206117c9833981519152836060860151030106611000096103408301526000805160206117c98339815191526000805160206117e9833981519152820990506000805160206117c9833981519152806000805160206117c9833981519152836060860151030106611000096103608301526000805160206117c98339815191526000805160206117e9833981519152820990506000805160206117c9833981519152806000805160206117c9833981519152836060860151030106611000096103808301526000805160206117c98339815191526000805160206117e9833981519152820990506000805160206117c9833981519152806000805160206117c9833981519152836060860151030106611000096103a0830152610930600661030084016100b1565b6102e0820151600191506000805160206117c983398151915281610320850151096103208401526000805160206117c98339815191526000805160206117e9833981519152830991506000805160206117c983398151915280826103408601510983096103408401526000805160206117c98339815191526000805160206117e9833981519152830991506000805160206117c983398151915280826103608601510983096103608401526000805160206117c98339815191526000805160206117e9833981519152830991506000805160206117c983398151915280826103808601510983096103808401526000805160206117c98339815191526000805160206117e9833981519152830991506000805160206117c983398151915280826103a08601510983096103a0840152505050565b60006000805160206117c9833981519152806000805160206117c98339815191526000860135610320860151098303010690506000805160206117c9833981519152806000805160206117c98339815191526020860135610340860151098303010690506000805160206117c9833981519152806000805160206117c98339815191526040860135610360860151098303010690506000805160206117c9833981519152806000805160206117c98339815191526060860135610380860151098303010690506000805160206117c9833981519152806000805160206117c983398151915260808601356103a08601510983030106905080610180830152505050565b6101808101516000805160206117c98339815191526102c0830151610320840151096000805160206117c9833981519152806102a43560208601510961024435086000805160206117c98339815191526040850151820890506000805160206117c9833981519152806102c43560208701510961026435086000805160206117c98339815191526040860151820890506000805160206117c9833981519152604086015161028435086000805160206117c9833981519152816000805160206117c983398151915284860909925050506000805160206117c98339815191526102e435820990506000805160206117c98339815191526000850151820990506000805160206117c983398151915280836000805160206117c98339815191520306840892506000805160206117c983398151915280826000805160206117c98339815191520306840892505050806101a08301525050565b6040518151815260208201516020820152825160408201526020830151606082015260408260808360066107d05a03fa905080610d00576000805260206000f35b505050565b50505050565b600060405183815284602082015285604082015260408160608360076107d05a03fa915081610d3e576000805260206000f35b825160408201526020830151606082015260408360808360066107d05a03fa91505080610d6f576000805260206000f35b5050505050565b600060405183815284602082015285604082015260408360608360076107d05a03fa91505080610d6f576000805260206000f35b610d00836020840151845184610d76565b6101c0810160408201516040516101008101604052610e1f7f2413bae5569840f846ec51114ad93281b13ab6768defc0592081f726dc49ff5b7f093750f846566080741ec04df784b0cb89fd5d9b9228dec83ba418b5c076e8f98590815260200152565b610e826000805160206117c98339815191526102643561024435097f0795f2589bd4808f0e0329ab2c56a6f58acf10ddcbecc750fefa4e044888e78b7f18d9e33e2032ebdb28916b3b6678cbed5f9aced5344d41bd41e7f41e08ac73cc86610d0b565b610ed1610244357f066ba1c3252f39eab44d8c305ca3365da94ebe5f32cd053cef0307a390dd619e7f2b285a6145694457a99c7a39d0112d022949f5632b193f8d8484d7b25971871886610d0b565b610f20610264357f177bc5ab3cbae0357a7f18dd2bb407cdb49ca8a116bc95ab07ad9284d4cbb34b7f0bda53f136f579cd2fbe0725cca9cc8b3b0ab97897c57e198c8e94866b1dc72986610d0b565b610f6f610284357f15d510a27b23ab67ea5b131e9f9f9f07c2a1ae171deb2b861c614fa881852c737f2ba23beef6a2cabf1dda49b6eec6c83c11b32540b80e81f41775db0da5031b8f86610d0b565b60a08401516000805160206117c9833981519152836000805160206117c9833981519152836102443508086000805160206117c9833981519152846000805160206117c983398151915280600286096102643508086000805160206117c9833981519152856000805160206117c9833981519152806003870961028435080892506000805160206117c983398151915260008801516000805160206117c9833981519152856000805160206117c983398151915285870909096000805160206117c98339815191526102c08901516103208a01510960c43560c087015260e43560e08701526110896000805160206117c98339815191526101608b01516000805160206117c98339815191528486080860c0880188610daa565b50506000805160206117c9833981519152856000805160206117c9833981519152806102a43560208c01510961024435080891506000805160206117c9833981519152856000805160206117c9833981519152806102c43560208c01510961026435080890506000805160206117c98339815191526102e4356000805160206117c983398151915260208a015160008b0151090992506111906000805160206117c9833981519152846000805160206117c9833981519152848609097f0d90d393e049966a21e3adc92030dc5a105f5f0491c0d3ee1b9afe5ccff10c197f1b57b7b5c831d6c0fa2e099a1646c1ef236e6857976ede99e0208de1b31f0a9260408801610d76565b5050506101043560808201526101243560a08201526111c16080850151602061014401356101443560808501610d0b565b60808401516000805160206117c983398151915290800991506111ef826101a4356101843560808501610d0b565b61120b6102e085015160a0830151608084015160808501610d76565b6000805160206117a983398151915260206040830101516000805160206117a9833981519152030660206040830101526000805160206117a983398151915260a08201516000805160206117a9833981519152030660a082015261126f8184610cbf565b61127c6040820184610cbf565b610d056080820184610cbf565b6101c081015161020082019081526101e082015161022083015260c08201516112b89060243560043584610d0b565b60e08201516112cd9060643560443584610d0b565b6101008201516112e39060a43560843584610d0b565b6113346101208301517f14ebe97446e09c184ec09ae628405bbaefebebd403c579df716413e9cbcb45b87f2b0bacdbdbd2712f89c309ccb87d88f80843d811ce2c762ee1d68ed1a8629adf84610d0b565b6113856101408301517f1414968417bf4e34d6658b659968bbb34b92ec09566cb184d2b5392dc8e21d827f252e014584ba766c745eee9d60245d656a32742acf2e38881ac907bf45f6437084610d0b565b5050565b6000805160206117c98339815191526101a08201516000805160206117c983398151915203066000805160206117c98339815191528060c08401516102443509820890506000805160206117c98339815191528060e08401516102643509820890506000805160206117c9833981519152806101008401516102843509820890506000805160206117c9833981519152806101208401516102a43509820890506000805160206117c9833981519152806101408401516102c43509820890506000805160206117c9833981519152806101608401516102e435098208905061138581600260016102408601610d76565b6000604051610240810160405261018081016101c0820161020083016114ab6101c48481358152602091820135910152565b6102043582526102243560208301526114ca6101608701518386610daa565b6114d48385610cbf565b6000805160206117a983398151915260208501516000805160206117a9833981519152030660208501527f032b79c3ba6d3bd9aaeda06dcc794220c484a170413f0dc477d00dcf2f27e4da60408501527f04866a3b9eae9200aa8ff34bdb79b7e3dac246323b4d5eef9c46ecd15a525a9560608501527f09440dd7450f86073c2ea1e0f6f98e11ac9fc2cd8dc50990ba90db7d57b9347a60808501527f023d1b923229caf782531a3e3935d2ebe1311645cbdfabb6045881412bca92f960a08501526115a860608701518460c08701610daa565b6000805160206117c983398151915260608701516101608801510992506000805160206117c98339815191526000805160206117e9833981519152840992506115f2838383610daa565b6115ff8160c08601610cbf565b505050611613610200840160c08301610cbf565b610260830180516000805160206117a9833981519152908103069052611640610240840160c08301610cbf565b7f198e9393920d483a7260bfb731fb5d25f1aa493335a9e71297e485b7aef312c26101008201527f1800deef121f1e76426a00665e5c4479674322d4f75edadd46debd5cd992f6ed6101208201527f090689d0585ff075ec9e99ad690c3395bc4b313370b38ef355acdadcd122975b6101408201527f12c85ea5db8c6deb4aab71808dcb408fe3d1e7690c43d37b4ce6cc0166fa7daa6101608201526020816101808360086107d05a03fa90511692915050565b6040516103c08101604052611707610192565b61171183826101dc565b61171a8161079d565b6117248382610a64565b61172d81610b67565b61173681610dbb565b61173f81611289565b61174881611389565b61175181611479565b6103c082036040528060005260206000f35b6000806103a080848603121561177857600080fd5b61030084018581111561178a57600080fd5b84935085828601111561179c57600080fd5b8092505050925092905056fe30644e72e131a029b85045b68181585d97816a916871ca8d3c208c16d87cfd4730644e72e131a029b85045b68181585d2833e84879b9709143e1f593f00000010931d596de2fd10f01ddd073fd5a90a976f169c76f039bb91c4775720042d43aa2646970667358221220a4f10a6c496170f543ef22adc489687f33b38f122c795b6907a728a4e2298f2464736f6c63430008110033",
  "linkReferences": {},
  "deployedLinkReferences": {}
}