{
  "_format": "hh-sol-artifact-1",
  "contractName": "Groth16Verifier",
  "sourceName": "contracts/Groth16Verifier.sol",
  "abi": [
    {
      "inputs": [
        {
          "internalType": "uint256[2]",
          "name": "_pA",
          "type": "uint256[2]"
        },
        {
          "internalType": "uint256[2][2]",
          "name": "_pB",
          "type": "uint256[2][2]"
        },
        {
          "internalType": "uint256[2]",
          "name": "_pC",
          "type": "uint256[2]"
        },
        {
          "internalType": "uint256[5]",
          "name": "_pubSignals",
          "type": "uint256[5]"
        }
      ],
      "name": "verifyProof",
      "outputs": [
        {
          "internalType": "bool",
          "name": "",
          "type": "bool"
        }
      ],
      "stateMutability": "view",
      "type": "function"
    }
  ],
  "bytecode": "0x608060405234801561001057600080fd5b506106df806100206000396000f3fe608060405234801561001057600080fd5b506004361061002b5760003560e01c806334baeab914610030575b600080fd5b61004361003e366004610643565b610057565b604051901515815260200160405180910390f35b60006105ba565b7f30644e72e131a029b85045b68181585d2833e84879b9709143e1f593f0000001811061008f576000805260206000f35b50565b600060405183815284602082015285604082015260408160608360076107d05a03fa9150816100c5576000805260206000f35b825160408201526020830151606082015260408360808360066107d05a03fa915050806100f6576000805260206000f35b5050505050565b7f2ae433bd17ec1953af6e85d0fb20e425d28e65b4c3b9ac1ee2342fb954973e5e85527f2a6faae2608343cf504969672148078e9b750e0b78822055279e63c7848ce00160208601526000608086018661019a87357f1a55b88c0343039f44fa133bd0708fbcd29c6e692a2c3f91728ef1a4f9b978627f1247e19e9b5209803d10b25385595f8b6b47c4a2a43120dd1decf6c034f6f01784610092565b6101ea60208801357f153c008dacd573d9c3bace6ebdcf456059cea10b85153d7782229e06387ce5647f1bc8e27b36fb9a2f256815f28da8c297b7ba81469cf75c736304fd19d12e84a584610092565b61023a60408801357f0cf07455bf3c322866e93d2fdbad97eee7eb47ecbed912ef50a52d815afecff47f1c4b17d3427184091b39d98bc9735cd0ff536cd74eb7b0e084934da216f5d22f84610092565b61028a60608801357f2a7f9edafe1d302b4c6ac853ae36ebac867e53c6d4638ae257b201bba8db604f7f0bcf99fccdbf73db41b4a7057b4f066808ea03023fc33580e362bf5d59d7756184610092565b6102da60808801357f1732b4dffe5b6719b0a43651d37aa170ab6c56164fdc43920d4d0b1bea0021657f1ceec8c0bf54837305150afbfd39b5e93eb88a3852e33edda3f65c70961b4a7e84610092565b50823581527f30644e72e131a029b85045b68181585d97816a916871ca8d3c208c16d87cfd4760208401357f30644e72e131a029b85045b68181585d97816a916871ca8d3c208c16d87cfd4703066020820152833560408201526020840135606082015260408401356080820152606084013560a08201527f17aeb20b3e787f3eb4e2b6e8904ae9678a0166255eac045207ff136923e66f2260c08201527f2258f9baf4f6e3ef9da506777a3040a3d967af1b4823a097d67cef40c4d28e1160e08201527f06c88fff583937630136abc58a5d5f7571543c8c2fc04debf306cfdc8e66b8756101008201527f1c1d39126e5edfaa334eef972d665d537619a20346174b63ec9c772eaa8f5e046101208201527f1c2b6d7395903ea29675bf080bcf9f210b2a187c36286b911fbd79530a2ed3d96101408201527f2e7114a42703fbb67cb9fb8d8c7f6413dbe56b8b1ea07a2941714c09f4c913ad610160820152600087015161018082015260206000018701516101a08201527f198e9393920d483a7260bfb731fb5d25f1aa493335a9e71297e485b7aef312c26101c08201527f1800deef121f1e76426a00665e5c4479674322d4f75edadd46debd5cd992f6ed6101e08201527f090689d0585ff075ec9e99ad690c3395bc4b313370b38ef355acdadcd122975b6102008201527f12c85ea5db8c6deb4aab71808dcb408fe3d1e7690c43d37b4ce6cc0166fa7daa610220820152843561024082015260208501356102608201527f0dc4e99ce99cf8d692d526429ff1a541ff4230c0eb5e311a44472222f59c37076102808201527f2b013c13cf6a3b8ee26304bcbd5e97cc084d85f70d13fd53d9a22a470be23be36102a08201527f1532d70a6e4100b5608694730d45dae54baed649c25230790224a05be35db5f16102c08201527f139e37efc028f0abbed0ac0534e14c0ed8293d64400ad1c1a5b0de84c3fcb3a06102e08201526020816103008360086107d05a03fa9051169695505050505050565b60405161038081016040526105d2600084013561005e565b6105df602084013561005e565b6105ec604084013561005e565b6105f9606084013561005e565b610606608084013561005e565b61061360a084013561005e565b610620818486888a6100fd565b90508060005260206000f35b806040810183101561063d57600080fd5b92915050565b6000806000806101a080868803121561065b57600080fd5b610665878761062c565b945060c086018781111561067857600080fd5b604087019450610688888261062c565b93505086818701111561069a57600080fd5b5092959194509261010001915056fea264697066735822122008b8f3286b07f428391c604391c033f2bc19018cadf34b95694bd4090bf07ddd64736f6c63430008110033",
  "linkReferences": {},
  "deployedLinkReferences": {}
}