{
  "_format": "hh-sol-artifact-1",
  "contractName": "Groth16Verifier",
  "sourceName": "contracts/verifier.sol",
  "abi": [
    {
      "inputs": [
        {
          "internalType": "uint256[2]",
          "name": "_pA",
          "type": "uint256[2]"
        },
        {
          "internalType": "uint256[2][2]",
          "name": "_pB",
          "type": "uint256[2][2]"
        },
        {
          "internalType": "uint256[2]",
          "name": "_pC",
          "type": "uint256[2]"
        },
        {
          "internalType": "uint256[5]",
          "name": "_pubSignals",
          "type": "uint256[5]"
        }
      ],
      "name": "verifyProof",
      "outputs": [
        {
          "internalType": "bool",
          "name": "",
          "type": "bool"
        }
      ],
      "stateMutability": "view",
      "type": "function"
    }
  ],
  "bytecode": "0x608060405234801561001057600080fd5b506106df806100206000396000f3fe608060405234801561001057600080fd5b506004361061002b5760003560e01c806334baeab914610030575b600080fd5b61004361003e366004610643565b610057565b604051901515815260200160405180910390f35b60006105ba565b7f30644e72e131a029b85045b68181585d2833e84879b9709143e1f593f0000001811061008f576000805260206000f35b50565b600060405183815284602082015285604082015260408160608360076107d05a03fa9150816100c5576000805260206000f35b825160408201526020830151606082015260408360808360066107d05a03fa915050806100f6576000805260206000f35b5050505050565b7f2b809f970df6f2a3e0810be9427aa639fb9f55e59a20afd2e08105a7abe7dc5785527f0c404b781ae14e2ecf3b8fab6df3dc98f251de5f72b96a200ad541339677379a60208601526000608086018661019a87357f09f2d99c03d41ae05c978b80da08fe32fe04a0a386127306b2c7823554e7ee717f14c4be3f1cc70c061490f69e5360d709c41659a69b5f51bd99e71a30a923e5d084610092565b6101ea60208801357f26677530a2dab1b63cfa3df4be46fa035393568cda65378704c6d8fa438c822f7f0d87783d75c13552397186427813b20494df2563d7c84439fc969867ae2694ee84610092565b61023a60408801357f29280ef9d169a92f19470c00ad0c022596067cb4b948a111cb131216848bfa1c7f0e7c3770ac509c9da7014734a1409f62316c192fcb40afdc77b6e31499733e7884610092565b61028a60608801357f0f3459d226a8683cb268607f2bf254211cc790c827fdf788a1196887c0f507f77f0c459432a7fee00cb0b7313bddf2f9f6e56a0c948d3bf0f023e94e010562a5c084610092565b6102da60808801357f2f5ded45838c2b8b7f031199ece4693cb8e3c48fc79bb7200e4d7705faa6ddfd7f232f45973013bde5d26065a0b089fc5021f4a0e46484e68d803712644dae5ecb84610092565b50823581527f30644e72e131a029b85045b68181585d97816a916871ca8d3c208c16d87cfd4760208401357f30644e72e131a029b85045b68181585d97816a916871ca8d3c208c16d87cfd4703066020820152833560408201526020840135606082015260408401356080820152606084013560a08201527f0115334e599a7dbeb4a668767594a2fec38dba54c8792079b8e9dda1ca0c754d60c08201527f135f504bfa1f77cdecafb3c9c8cd730ce1034c3b235d0e22e7ed161b7d3c491c60e08201527f2f0b3193a88cd67023d896217031df2278c31f52ab7768232a8239148b4e62126101008201527f0f290370d6d38f863bc49ba5854adaba8209c36c2444949247050717fdf1be5f6101208201527f29ff430cffc819674acf16aa75eb9ea0a04b431297d7b357cbca41e7978633f46101408201527f04cb606e83bc89cb2067e457e45fab5afc032cd3d28d6ab0cf9e8fef48a81d12610160820152600087015161018082015260206000018701516101a08201527f198e9393920d483a7260bfb731fb5d25f1aa493335a9e71297e485b7aef312c26101c08201527f1800deef121f1e76426a00665e5c4479674322d4f75edadd46debd5cd992f6ed6101e08201527f090689d0585ff075ec9e99ad690c3395bc4b313370b38ef355acdadcd122975b6102008201527f12c85ea5db8c6deb4aab71808dcb408fe3d1e7690c43d37b4ce6cc0166fa7daa610220820152843561024082015260208501356102608201527f159e45502cdd0e57384ab771771e910ebde68b4182248b69feaca3787aafffab6102808201527f10b65466625d90a9cd0f80df9a10c34f4db42284ef38db5cd67dfb0321ca4c916102a08201527f268781ef785750e69bef4550fecae201c2b65f245b7f776d7a885fd6f9775cc66102c08201527f07480a96847f45f8d2b1b36ee814ad29aa1d686c86b0df8de6e695242eed7e4e6102e08201526020816103008360086107d05a03fa9051169695505050505050565b60405161038081016040526105d2600084013561005e565b6105df602084013561005e565b6105ec604084013561005e565b6105f9606084013561005e565b610606608084013561005e565b61061360a084013561005e565b610620818486888a6100fd565b90508060005260206000f35b806040810183101561063d57600080fd5b92915050565b6000806000806101a080868803121561065b57600080fd5b610665878761062c565b945060c086018781111561067857600080fd5b604087019450610688888261062c565b93505086818701111561069a57600080fd5b5092959194509261010001915056fea26469706673582212201ba98cd1a37ae7cc800aba8eb1953487440aad0735c9c82fb4766b8d42690c8864736f6c63430008110033",
  "linkReferences": {},
  "deployedLinkReferences": {}
}