{
  "_format": "hh-sol-artifact-1",
  "contractName": "Hasher",
  "sourceName": "contracts/MiMC5Sponge.sol",
  "abi": [
    {
      "inputs": [
        {
          "internalType": "uint256[2]",
          "name": "_ins",
          "type": "uint256[2]"
        },
        {
          "internalType": "uint256",
          "name": "_k",
          "type": "uint256"
        }
      ],
      "name": "MiMC5Sponge",
      "outputs": [
        {
          "internalType": "uint256",
          "name": "h",
          "type": "uint256"
        }
      ],
      "stateMutability": "view",
      "type": "function"
    }
  ],
  "bytecode": "0x7f30644e72e131a029b85045b68181585d2833e84879b9709143e1f593f0000001600090815561030060405260809081527f0166e2fe0ef3b56226cdd1098934d565a02c591cab43f06cfe72ca93cd1eb5dd60a0527fbc78a9b2ef37752d64b2324cadf305ac355f681c89ae6c650637bebe1139bbdd60c0527f762dcc70494b205bb71386cf958a1e5750208be69e4992d51b3af371c4c7df2860e0527f83a87b06b0adb53de910b97532abc44b7f4fa4a83b83fbe0751afc48521fabb2610100527ffef8fbfc768aa195768be184e7dce735bdb3c01bb8f9371ae8c978145c826a8e610120527f30d97c83a145bc2ee25ba2b70d7711bfd06cde9d14c5d04e18ecc1532e0a557f610140527f218c208ce82bd1ef19323fa905889a631ac094040dc69704713fe50c7dc3272e610160527fca205eeacd826d091fb55a0d41df8c991127b221f09650a3210e59817a5e97b7610180527fb6102467ad90f3bf9868b8c2dfe3d13465aeb0027321589a6caebd973d8c68ee6101a0527f7fc9ffa166e0de68d0504a1a2233372f282fe59d2f279cbd61b817ece7b331236101c0527fd5f31a9837ce9ad07203edf348865ca0119af1c38d642ad97d57630abd0d16126101e0527f872040ffa33ff124b88d0f1cb21a6bc700c32283a0671d42024ab41076542c1c610200527f97be92bf1db0dc8efb33ae16aeb5a27ecf88212c5cec2b2289f8b00de04dbdec610220527f890f11cc148674f6340dd32fd8c81d0aba13fe66f97d0cb0cdb6e499236af0ab610240527f4f1859692bb45cee6a47b11fab2ec1c35fce6dbdc09f132bfa1810151b9a80e5610260527fe115f3eace8ef073c87d0b35959fe98158502abbd3a145bde3ad234c5108628e610280527fc90f5cda081f1497088c6d441582e4a8428d5dfaa211e5076dd95e47fcf08ab26102a0527fbefdade267013cb0845e25b28d36b17e3f69b2685be012ccafa21df4fd125d956102c0527f3f0f2b60be883daa264a546cf42d746f211f4daecdeea4a4ee3e44965283f5766102e0526102fa90600190601461030d565b5034801561030757600080fd5b50610360565b826014810192821561033b579160200282015b8281111561033b578251825591602001919060010190610320565b5061034792915061034b565b5090565b5b80821115610347576000815560010161034c565b6102c78061036f6000396000f3fe608060405234801561001057600080fd5b506004361061002b5760003560e01c8063d622e5a414610030575b600080fd5b61004361003e3660046101b3565b610055565b60405190815260200160405180910390f35b60008080805b60028160ff1610156100b7576000548061007757610077610238565b868260ff166002811061008c5761008c61024e565b6020020151840892506100a08383876100c1565b9093509150806100af81610264565b91505061005b565b5090949350505050565b6000806014858583808080805b8760ff168160ff16101561018a57600054806100ec576100ec610238565b8b870894506000548061010157610101610238565b60018260ff16601481106101175761011761024e565b0154860894506000548061012d5761012d610238565b85860993506000548061014257610142610238565b84850992506000548061015757610157610238565b85840994508591506000548061016f5761016f610238565b8588089550819650808061018290610264565b9150506100ce565b50949b939a509298505050505050505050565b634e487b7160e01b600052604160045260246000fd5b600080606083850312156101c657600080fd5b83601f8401126101d557600080fd5b6040516040810181811067ffffffffffffffff821117156101f8576101f861019d565b806040525080604085018681111561020f57600080fd5b855b81811015610229578035835260209283019201610211565b50919691359550909350505050565b634e487b7160e01b600052601260045260246000fd5b634e487b7160e01b600052603260045260246000fd5b600060ff821660ff810361028857634e487b7160e01b600052601160045260246000fd5b6001019291505056fea26469706673582212201d1f601e263ecd42a7bade59b1b7ceb91252958502159f89da024dcc00e1710b64736f6c63430008110033",
  "linkReferences": {},
  "deployedLinkReferences": {}
}